:020000040800F2
:1000000040190020DD320008F5300008F730000804
:10001000F9300008FB300008FD3000080000000047
:10002000000000000000000000000000FF30000899
:10003000013100080000000003310008053100080C
:10004000F5320008F9320008FD32000801330008DB
:1000500005330008093300080D3300081133000888
:100060001331000815330008193300081D33000848
:100070002133000825330008193100081F3100081A
:10008000293300082D3300083133000835330008C8
:10009000393300083D330008413300084533000878
:1000A000493300084D330008513300085533000828
:1000B000593300085D3300086133000865330008D8
:1000C000693300086D330008713300087533000888
:1000D000793300087D330008813300088533000838
:1000E000893300088D3300089133000895330008E8
:1000F000993300089D330008A1330008A533000898
:10010000A9330008AD330008B1330008B533000847
:1001100025310008B9330008BD330008C133000899
:100120002B310008C5330008C933000831310008FD
:10013000CD330008D1330008D5330008D933000887
:10014000DD330008E1330008E5330008E933000837
:10015000ED330008F1330008F5330008F9330008E7
:10016000FD33000801340008053400080934000894
:100170000D34000811340008153400080000000098
:100180001934000838B5040001D1012032BD002027
:10019000A06204F15005687820B900222A70204638
:1001A00000F06EFD0221697000F052FC6268A068E8
:1001B000E168A369024320690A43616902430A4373
:1001C00003F40073E069216A1A430243A06A2368BA
:1001D0000A4302431A60A169606A2268090C01F0AF
:1001E0000401014351602168C86920F40060C861BE
:1001F0000021696001206870002032BD2DE9F843BC
:10020000074607F15006002530780C46914698467F
:10021000012808BF022000F096800120307000F015
:1002200041FE7178012918BF022554D1002C18BF56
:10023000B9F1000F00F08380032171700023736017
:100240003C63A7F83490A7F836900021B963BB87C8
:10025000F9877B643964BB68B3F5004F04D13B6810
:10026000196841F48041196039680B685C0603D451
:100270000B6843F040030B604446F968B1F5006F2A
:1002800079682CD1002918BFB9F1010F09D13B6B56
:1002900039681A88CA603B6B9A1C3A63F98E4A1E09
:1002A000FA86804606E03A6B1188C1603A6B901C72
:1002B00000F0C7F9F88E002835D0386882689107B9
:1002C000F1D400F0EFFDA0EB0800A04204D314F13C
:1002D000010FEFD0032533E0002CEBD1FAE7002922
:1002E00018BFB9F1010F00F0C2F9804608E03A6B7F
:1002F00011780173386B411C3963F88E411EF98601
:10030000F88E80B1386882689107F0D400F0CAFD99
:10031000A0EB0800A04203D314F1010FF0D0D9E7FD
:10032000002CEDD1D6E742462146384600F0F3FBDB
:1003300008B12020706000F08FF9706800B10125CD
:1003400000F09DF82846BDE8F2832DE9F843074602
:10035000002478680D469146984607F15006B0F59E
:10036000827F04BFB86800280BD14FF0040C86F8D8
:1003700001C0CDF800804B462A46384600F084F88C
:100380007BE03078012808BF022076D00120307051
:1003900000F088FD7178012918BF02246AD1002D70
:1003A00018BFB9F1000F64D004227270002171608F
:1003B000BD63A7F83C90A7F83E903963B986002248
:1003C000FA8639647A64B968B1F5004F04D13A68A5
:1003D000116821F48041116039680A68530600F001
:1003E00035F90546F968002926D108E0007BB96B8C
:1003F0000870B86B421CBA63F98F481EF887F88FF3
:1004000068B338688268D107F0D400F04BFD401B18
:10041000404504D318F1010FF1D003242AE0B8F1CC
:10042000000FECD1F9E7C168B86B0180B96B8A1C89
:10043000BA63F98F481EF887F88F80B138688168F1
:10044000CA07F0D400F02EFD401B404503D318F13D
:10045000010FF1D0E1E7B8F1000FEDD1DDE72A4659
:100460004146384600F042FB08B1202070607068B9
:1004700000B1012400F003F82046BDE8F28301201A
:1004800070700021317070472DE9FC47074607F175
:100490005006012530788A4691464FF00008012821
:1004A00008BF022000F0CB801C46357000F0FAFC3B
:1004B0007278012A23460AD07968B1F5827F02BF9B
:1004C000B9680029042A02D04FF00208B4E0BAF15A
:1004D000000F18BFB9F1000F00D00CB9A846ABE06F
:1004E00096F801C0BCF1040F1CBF4FF0050E86F852
:1004F00001E0C446C6F804C0C7F83890FC87BC8742
:10050000C7F830A0FC86BC86C7F84080C7F8448096
:1005100039680A68540600F099F8F9680A9CB1F540
:10052000006F796841D1002918BF012B09D13B6BBD
:1005300039681A88CA603A6B911C3963FA8E511E69
:10054000F9868146F88E002804BFF88F002866D00F
:100550003968886882070CD5F88E002818BF002DEE
:1005600007D0386B0288CA600025396B881C00F000
:1005700068F839688868C2070BD5F88F48B1C86831
:10058000B96B08800125B86B821CBA63F88F411ED5
:10059000F98700F087FCA0EB0900A042D2D314F148
:1005A000010FCFD04FF0030846E0002918BF012B00
:1005B00000F05DF88146F88E002804BFF88F00280F
:1005C0002DD03968886882070CD5F88E002818BFAE
:1005D000002D07D0386B02780A730025396B481C50
:1005E00000F02FF839688868C2070BD5F88F48B13A
:1005F000C868B96B08700125BA6B501CB863F98FD5
:10060000481EF88700F04EFCA0EB0900A04203D37F
:1006100014F1010FCFD0C5E7002CCCD1C2E74A4678
:100620002146384600F077FA20B120204FF001082B
:10063000706001E000F010F8FFF721FF4046BDE8D0
:10064000F6873863F98E481EF886704703D40A6827
:1006500042F040020A607047B86838B90021009142
:100660003968C868009089680091009A704709D17C
:100670003B6B39681A780A733A6B511C3963FA8EEE
:10068000511EF986704770B5064606F150050024E4
:100690002878012801D1022070BD01232B706878D1
:1006A000012818BF022439D109B1100001D1012459
:1006B00034E00320687000236B603163B286F286F9
:1006C0000021B16371643164B187F187B068B0F51E
:1006D000004F04D13168086840F480400860B06C75
:1006E0000FF235310164B06C0FF23521C163B06C8B
:1006F0000FF23D31C164B06C0365F38E3068316B2D
:1007000000F10C02B06C00F04BFC10B100F067F887
:1007100004E000F06CF840F002004860002028700F
:10072000204670BDF8B506460024B06806F15005B5
:10073000002804BF7368B3F5827F08D104246C706D
:10074000304601B0BDE8F04013460A465FE02F781E
:10075000012F01D10220F2BD01272F706B78012BF0
:1007600018BF022437D109B1130001D1012432E0AE
:1007700004236B7000276F60B163B287F28700219A
:1007800034647164B486B0F5004FF18604D13168E9
:10079000086820F480400860F06C0FF28521016445
:1007A000F06C0FF2C511C163F06C0FF28521C164CA
:1007B000F06C0465F38F3068B26B00F10C01F06CE3
:1007C00000F0EEFB10B100F00AF804E000F00FF8C2
:1007D00040F001004860002028702046F2BD6868A3
:1007E00040F0100068600124012068707047306894
:1007F00001684A0603D4016841F040010160316894
:10080000486840F020004860316848687047F8B593
:10081000044604F1500600253078012801D1022059
:10082000F2BD012030707778012F09D06068B0F5F3
:10083000827F02BFA0680028042F01D0022568E053
:10084000002918BF002A01D0180001D1012560E05D
:10085000707804281CBF0527777000207060216322
:10086000A386E386A263A387E38720646064E06CC9
:100870007278042A07D10FF2A91101640FF2E9007E
:10088000E16CC86306E00FF2A1120FF24511026499
:10089000E06CC163E06C0FF29911C164E06C056516
:1008A000E38F2068A26B00F10C01E06C00F078FB94
:1008B000A8B92168486840F001004860A06C056450
:1008C000A06CC563A06CC564A06C0565E38E206850
:1008D000216B00F10C02A06C00F062FB38B1706873
:1008E00040F01000706001250120707011E0206858
:1008F00001684A0603D4016841F0400101602168A3
:10090000486840F0200048602068416841F00201DA
:100910004160002030702846F2BD90F851007047C9
:1009200038B500F040F800F039F811D400F03FF885
:1009300000F013F800F065F800F0FFF800F003F99C
:100940000020E086012184F85110606D00B13AE08A
:100950002046BDE8324000F053BE2168486820F0D0
:10096000020048607047000038B500F01CF800F045
:1009700015F80ED400F01BF800F01FF86421204693
:1009800000F0B4F808B12021616500F03DF800B135
:1009900019E02046BDE8324000F038BE2B681968E7
:1009A0000246C80570470546AC6B00F07BBA21686B
:1009B000486820F020004860704721684868800837
:1009C0008000486070472046BDE8324000F0D4BE49
:1009D00038B5FFF7E8FFFFF7E1FF0DD4FFF7E7FFBA
:1009E00000F00FF800F0A9F8FFF7E7FF0021E1861B
:1009F00000F00AF800B1E6E72046BDE8324000F01A
:100A000013BE6421204686E00020E087012184F89F
:100A10005110606D70470000806B00F0AEBE0000AA
:100A2000806B00F0ABBE0000806B00F0A8BE000041
:100A3000806B026851688908890051600121426D0C
:100A400042F01002426580F8511000F095BE00009F
:100A50002168086820F04000086070472DE9F041E7
:100A6000069F05460E4690461C4629688868304019
:100A7000B0420CBF01210021414534D014F1010FD7
:100A8000F3D000F00FFAC01BA04201D2002CECD131
:100A90002968486820F0E00048606868B0F5827F07
:100AA0000BD1A868B0F5004F18BFB0F5806F04D126
:100AB0002968086820F040000860A86AB0F5005F67
:100AC00009D12868016821F400510160296808688B
:100AD00040F40050086005F15000012242700021EE
:100AE0000170032000E00020BDE8F0811CB5044641
:100AF0000B466068B0F5827F08D1A068B0F5004F62
:100B000018BFB0F5806F01D1FFF7A2FF00928021DE
:100B10000022204605E01CB500920B460446002248
:100B20008021FFF79BFF10B100F002F8032016BDF3
:100B3000606D40F020006065704718B1606D40F056
:100B4000200060657047A06838B9002100912168D5
:100B5000C868009089680091009A704781B00020B1
:100B60000090DFF80403416841F48041416041682E
:100B700001F4804100910021009B0091026842F045
:100B800080520260006800F080500090009801B030
:100B9000704710B586B0044614210022684600F064
:100BA000EFFD2368DFF8C4128B4261D1002005906D
:100BB000AF48026842F000720260016801F0007103
:100BC00000F058F842F080620260016801F0806134
:100BD00000F050F842F000620260016801F000612C
:100BE00000F048F842F004020260016801F00401DC
:100BF00000F040F842F001020260016801F00101DA
:100C000005910021059A05910221036843F0020332
:100C10000360006800F0020005903220059A009001
:100C2000019103200B210022039004910292694656
:100C3000904800F0C3FD0221019186200B21009015
:100C40000022032304910292039369468A4800F02C
:100C5000B5FD00210222029101924FF460500B2158
:100C600000900322049103926946844800F0A6FD97
:100C700006B010BD05910021059B059102687047E3
:100C80002DE9F84386B0054600F0E8F82A687C4B69
:100C90007A4877499A424FF4806943D10022009202
:100CA0004FF0C0674B69774C43F480534B614FF46E
:100CB00000384A6902F4805200920022009E724E6F
:100CC00000920B6843F002030B600223096801F0F5
:100CD000020100913821009A0293002203920191AF
:100CE000032305220493059201A900F067FD266005
:100CF00067600020A06000F06CF808B100F03AFDD9
:100D0000EC64A56306F14800604C206067604021F8
:100D1000A160002000F05DF808B100F02BFDAC648C
:100D2000A5634EE05A4B9A424BD1002200920B69C8
:100D3000584F43F480430B610A6902F480420092E9
:100D40000022009B009202220E6846F002060E600E
:100D50000968514E01F0020100914FF44441009B9B
:100D6000019102920321002304910522039305922D
:100D700001A900F023FD00207860B860F860786178
:100D8000B861F861386278623E6000F01DF808B121
:100D900000F0F0FCEF64BD634020404F06F1180204
:100DA0000021B8603A607960F9607961B961F961F0
:100DB0003962796200F008F808B100F0DBFCAF643A
:100DC000BD6307B0BDE8F083C7F81090384600F067
:100DD0006FB8E060C4F810906061A061E061C4F891
:100DE00020806062204600F063B810B586B00446EB
:100DF00000F034F823682A498B422DD1002000905E
:100E00001B48016941F400210161016901F40021DD
:100E100000910021009B0091026842F004020260F0
:100E20000222006800F0040000904FF44060009936
:100E3000029201210391019008210322059104925D
:100E400001A90C4800F0BAFC00220021342000F077
:100E5000DCFD342000F0F8FD06B010BD14210022A6
:100E600001A800F08DBC0000403802400080024024
:100E700030380240000802400000024000040240F6
:100E8000003001403413002010640240941300200D
:100E900000380040F4130020586002405414002031
:100EA000004C004001484068704700BF30000020FF
:100EB00070B50446FFF7F6FF06460CB9012070BD79
:100EC00004F13405002028700221697000F062F8F6
:100ED00022681168C80708D5FFF7E4FF801B0628C1
:100EE000F6D320212962032052E01368DFF8DC02E8
:100EF00061680340A0680B43E168034320690B432A
:100F000061690343A0690B43E16903430B43216A11
:100F1000606A1943042803D1E06A0843216B014346
:100F2000116022685369606ADB08042840EAC30341
:100F30000AD1A66AE06A334330B1A16989B9002EAB
:100F400018BF022E1FD016D35361204600F05AF965
:100F5000A96A3F228A4082600020286201216970CC
:100F600070BDB1F5005F0AD1032EEDD8DFE806F0C1
:100F70000D0B0D03E8E7B0F1C07FE5D105E0022ECF
:100F800003D9F61EE0D1C001DED54021296201203F
:100F9000687070BD216808684008400008607047AC
:100FA000F8B5044604F13407002538787E6A012834
:100FB00001D10220F2BD01203870787801281DD1BE
:100FC0004FF0020C87F801C000203862204600F084
:100FD00009F9B86A3F2101FA00FCC6F808C0206888
:100FE000016841F016010160F86820B121680868C5
:100FF00040F00800086000F005F801E03D700225AF
:101000002846F2BD2168086840F00100086070477A
:1010100090F83520022A03D08021416501207047D5
:10102000052180F835100168086840084000086014
:10103000002070472DE9FC41064606F134050020EA
:10104000634A00904FF416506F6A11683C68B1FB18
:10105000F0F8A86A082101FA00F004420ED03068C6
:1010600003685A070AD5036823F004030360A86ADB
:101070008140B960296A41F001012962A86A24FA15
:1010800000F2D1070BD5326851690A0607D5012154
:1010900001FA00F0B860286A40F0020028620421DA
:1010A000A86A81400C4208D033681A68900704D5BA
:1010B000B960286A40F0040028621021A86A8140C3
:1010C0000C421BD033681A68100717D5B960306816
:1010D0000268510307D5006801030BD5696969B13E
:1010E000304688470AE00168CA0503D4016821F048
:1010F00008010160E96809B130468847A86A2021E3
:1011000081400C4241D032681068C3063DD5B960B9
:101110003068697805291ED1026822F01602026043
:10112000316800F057F804BF6869002804D03068BF
:10113000016821F0080101603F22A86A8240BA607C
:101140000021297001226A70E96900293AD03046ED
:10115000BDE8FC41084701684A0307D50068010360
:101160000FD4296989B1304688470EE00168CA0565
:1011700007D4016821F01001016000222A700120CB
:101180006870A96809B130468847286AD0B1296AD1
:10119000C80711D5052169703168FFF7FCFE00987A
:1011A000401C8045009003D332681168C807F6D40C
:1011B00000222A7001216970A96919B13046BDE881
:1011C000FC410847BDE8F381000000003F8010F0BB
:1011D0003C000020486920F080004861E868002851
:1011E0007047000030B50468256825F48025256027
:1011F00063608068402802D1A260E16030BDA160D8
:10120000E26030BD10B501461822086807A400F05E
:10121000FF03103BB3FBF2F2800AA35CCB658002B4
:10122000042A28BF001D886510BD000000061016A6
:10123000000610162DE9F04786B000F02DFC00F0F6
:10124000A4F91421684600F041FC0020DFF8C474C2
:10125000DFF8C484DFF8C454DFF8C464DFF8C49452
:10126000DFF8C4440590396841F0100139603868EE
:1012700000F0100000F07BF941F08001396038681F
:1012800000F0800000F073F941F004013960386823
:1012900000F0040000F065F942F001023A6038689D
:1012A00000F0010000F05DF942F002023A60386897
:1012B00000F0020005900020059A0590012239688F
:1012C00041F0080139601B21386800F008000590E2
:1012D0000598404600F054FB00224021404600F0B3
:1012E0004FFB00228121284600F04AFB00224FF4E8
:1012F000E071304600F044FB00224FF4A061484604
:1013000000F03EFB00227B21204600F039FB012249
:101310008021204600F034FB04200021009002913F
:101320006946DFF808240192404600F047FA5B2244
:1013300000F023F9404600F041FA812200F01DF947
:10134000284600F03BFA4FF4E0720121009200F0D1
:1013500016F9304600F032FA0221019100220323EF
:101360004FF40078029203930492CDF8008069460E
:10137000304600F023FA4FF4A06200F0FEF8484631
:1013800000F01CFAFB2200F0F8F8204600F016FAF4
:10139000002000903968DFF8985341F4001139605B
:1013A00005F1AC06386800F40010009000200099A8
:1013B000009000213A6842F480023A6000223868C6
:1013C00000F48000009000980E2000F01EFB0E201C
:1013D00000F03AFB002200210F2000F016FB0F2046
:1013E00000F032FB00220021382000F00EFB3820F4
:1013F00000F02AFB002200213B2000F006FB3B20EE
:1014000000F022FB4FF4E13100227160B260002154
:10141000C84830600C22F16031617261B161F161E4
:10142000304600F057FB08B100F0A4F9C24CC348A5
:1014300020604FF4827AC4F804A00021A160E1602A
:1014400021616161C4F81880E16121626162A16279
:1014500020460A21E162FEF795FE08B100F08AF904
:101460000120B74F002110226F65A866E9650A20A8
:10147000C5F88000296669662A676967A967E96710
:10148000C5F858A0C5F86C8005F15400FEF77AFE47
:1014900008B100F06FF9AB48E86001214FF48040DB
:1014A000686129610120A8834FF40061E120A870E0
:1014B000A9614FF4000000228021E8622A7069705F
:1014C000EA70AA806A62AA622D6205F10C0000F03F
:1014D0002BFD08B100F04EF900220021082000F099
:1014E00094FA082000F0B0FA00F0FAFE01F06AF871
:1014F0004FF48071944801F0B5F8002293483264AB
:101500000021017088469248924A80F8008011704C
:101510000122914801703046904900F034FB19E0F7
:1015200004280CD101F030F807E00228F8D100229D
:101530004FF48071484600F023FA85F80880A06DCA
:10154000102805D104F15C0001F054F8C4F858806B
:1015500001F0B6F838687064287A0128E5D10122D4
:10156000E6E705900020059905903A6870470590D8
:101570000020059A05903968704700920121019179
:101580000022029203926946704700B591B0302163
:1015900005A800F09BFA1421684600F097FA102184
:1015A0000991012200210C910892C3210E91022081
:1015B00005900B900D220F9004210D92109105A81B
:1015C00001F026FA08B100F0D5F8022101910F20B0
:1015D0004FF48051009000234FF4A05204910293E5
:1015E00003920321684601F076FB08B100F0C2F8CF
:1015F0004FF0E0620021012001F0F1FB11B000BDCD
:101600004D49884200D0704780B504E04A4988427D
:1016100000D0704780B50A2000F02EFF50490878AE
:10162000BDE8024000F035BF2DE9F041052000F093
:1016300023FF01224021384800F0A2F94948C2782E
:10164000017941EA0221484A11804479837943EAC9
:1016500004235380C579047A44EA05249480467AA9
:10166000857A45EA0625D580C77A067B46EA0726AD
:10167000168190F80DC0877B47EA0C27578190F8B8
:101680000FE090F810C04CEA0E2CA2F80CC090F8B5
:10169000118090F812E04EEA082EA2F80EE0334ACC
:1016A0009480D5801180538016815781A2F80CC098
:1016B000A2F80EE0204CA56D102D08D2C11C04EB41
:1016C000051010225C3001F02FFC6D1CA565BDE8F3
:1016D000F08182B0026817498A420DD10A20009039
:1016E0000098411E00280091FAD100224FF4806139
:1016F0000C4802B000F044B902B0704780B5052034
:1017000000F0BAFE00F09BFE19490868401C086012
:1017100001BD0000303802400010024000040240C9
:101720000008024000000240000C024000002110AE
:101730009C0E0020004C0040400C0020003800406F
:1017400000300140008002409C0D0020631000200A
:101750006410002065100020661000206210002038
:1017600067100020FC14002008120020400A00200E
:101770003815002072B6FEE7704770477047704713
:101780004018491C1CBFB1F1010100F8012DF9D12D
:1017900070470EE002684368024408305FEAC37C89
:1017A00044BF4B445B1E52F804CB43F804CB091FE3
:1017B000F9D150F8041B0029ECD170472DE9F84FFE
:1017C0000027794EDFF8E4814FF00F0902460B46FF
:1017D0002EE0774DAA4214BF4FF0090E4FF0080ECD
:1017E0000EFA01F141EA040E724941F82CE0C543BA
:1017F00031685C682940E40348BF01433160716887
:101800005C682940A40348BF01437160B1685C680B
:101810002940E40248BF0143B160F16805EA010CC8
:101820005968890248BF40EA0C0CC6F80CC07F1CFE
:10183000186830FA07F100F0A1800121B940084092
:10184000F5D04FEA470C032404FA0CF46FEA040EB7
:101850005C68012C18BF022C03D0112C18BF122C6D
:1018600010D19468DD680EEA040405FA0CF52C43E7
:101870009460546824EA01015C68C4F30014BC401D
:1018800021435160D46899680EEA040401FA0CF10E
:101890000C43D460B9005C68022C18BF122C11D123
:1018A000FC0802EB840401F01C05D4F820B009FA0E
:1018B00005FA2BEA0A0BD3F810A00AFA05F545EA57
:1018C0000B05256214680EEA04051C7904F0030474
:1018D00004FA0CF444EA050CC2F800C05C68E400A9
:1018E000A5D54FF0000ECDF800E04FEA970CD8F8E0
:1018F000004044F48044C8F8004001F00C01D8F8DE
:1019000000E00EF4804ECDF800E009FA01F5009CED
:10191000DFF8A0E05EF82C40AC43274DAA4208BF98
:101920004FF0000E29D0254DAA4208BF4FF0010EFE
:1019300023D0234DAA4208BF4FF0020E1DD0214DE7
:10194000AA4208BF4FF0030E17D01F4DAA4208BF8E
:101950004FF0040E11D01D4DAA4208BF4FF0050EE6
:101960000BD01B4DAA4208BF4FF0060E05D0194DF3
:10197000AA427FF42EAF4FF0070E31E7BDE8F18F9A
:1019800002B909048161704742690A4218BF09041B
:101990008161704710490A6803461A421CBF0B60F8
:1019A000FFF7ACBE70470000003C014044380240E5
:1019B00000200240083801400000024000040240BC
:1019C00000080240000C02400010024000140240D7
:1019D00000180240001C0240143C01400A010100B2
:1019E00002D4274B5A547047264801F00F01014496
:1019F00001F8042C704724490A6860F30A2240F277
:101A0000FA5060F31F420A60704770B51E4C23689D
:101A1000C3F302230124C3F10705052D2FBF0F26B1
:101A2000C3F1070604FA06F6761E1D1D072D34BF06
:101A30000023DB1E3140994004FA03F3BDE87040F7
:101A40005B1E1A401143C9E7010007D4012200F0D0
:101A50001F010E4B8A40400943F820207047401E6A
:101A6000B0F1807F01D30120704709494860F0221E
:101A70000848027000238B6007220A60002070472C
:101A800000E400E018ED00E00CED00E000E100E013
:101A900010E000E023ED00E080B50B48016841F460
:101AA00000710160026842F480620260016841F4E2
:101AB000807101600320FFF79EFF0F2001F040FAC4
:101AC000FFF74CF8002002BD003C0240002201F06C
:101AD00057BA000038B5040001D1012032BD04F12D
:101AE0003805687808B900F013F800F007F800F03E
:101AF00020F8FFE7486100F010F832BD242068703C
:101B00002168C86820F40050C860204600F07EB903
:101B1000002129702046FFF768B92168C86840F4A1
:101B20000050C8606A60202169702020A8700020E1
:101B300070472168086920F49040086100222168FC
:101B4000486920F02A00704710B500F138035C782E
:101B5000202C16D109B1140001D1012010BD1C7830
:101B6000012C0ED001241C7001628284C2840021E9
:101B7000596021225A7019700168C86840F08000CD
:101B80002AE0022010BD10B500F138039C78202C0B
:101B900020D109B1140001D1012010BD1C78012C05
:101BA00018D001241C7081628285C2850021596091
:101BB00022229A7019700168CA6842F48072CA6061
:101BC0000268516941F0010151610168C86840F043
:101BD000200001E0022010BDC860002010BD416956
:101BE00021F040014161606B704770B50446206888
:101BF0000268014612F00F0FCB68456903F0200020
:101C000002F0200107D1002918BF00285BD0204630
:101C1000BDE87040B0E0EE0702D413F4907F52D0DC
:101C2000D60705D5DB0503D5E66B46F00106E6636E
:101C3000560705D5EB0703D5E66B46F00206E663CB
:101C4000960705D5EB0703D5E66B46F00406E66379
:101C5000120706D508B9EA0703D5E36B43F008037A
:101C6000E363E26B002A6FD000291EBF00282046E4
:101C700000F082F820684069E26B110701D4400649
:101C80001BD5204600F061F8206841694A060FD54F
:101C9000FFF7A5FF60B10FF2D1010165606BFFF79F
:101CA000B7F9002850D0606B016DBDE8704008475F
:101CB0002046BDE8704001F07CB9204601F079F97A
:101CC0000020E06370BD11062DD518062BD594F8C1
:101CD0003910212938D1A068B0F5805F0DD1226A72
:101CE00021681088C0F30800486020690028206A35
:101CF0000CBF811C411C216205E0206A421C22624B
:101D0000017820684160E08C401EE08480B2D8B940
:101D10002168C86820F08000C8602168C86840F069
:101D20004000C86070BD50060ED559060CD520681D
:101D3000C16821F04001C1602046202184F839109B
:101D4000BDE87040FFF7C5BC70BD0268D16821F4E2
:101D50009071D1600268516949084900516120229F
:101D600080F83A2070470000806B0022C285002175
:101D7000C18401F01EB9000010B590F83A10222974
:101D800042D18168B1F5805F2AD1826A0169134628
:101D900001BB04686168C1F30801921C826219806A
:101DA000C18D491EC18589B261BB0268D16821F02D
:101DB0002001D1600268D16821F48071D16001688E
:101DC0004A69520852004A61202180F83A1000F016
:101DD0004DFC17E00168496801F0FF01521CDDE786
:101DE00001690029816A05D14A1C826203685A6828
:101DF0000A70D5E74B1C83620268536803F07F03C7
:101E00000B70CDE7002010BD022010BD70B5044658
:101E1000192622681169E06821F4405101431161DB
:101E20006FF06305D3683A48A168034020690B430B
:101E300061690343E0690B430343D3605169A069BF
:101E4000344B21F44071014351613348E169B1F5EC
:101E5000004F35D1824218BF9A4215D101F03AF8AD
:101E600046436068400000F059F805FB0015ED009E
:101E700032356421B5FBF1F14A0002F4F87202EB4D
:101E8000001201F007013EE001F01CF846436068D3
:101E90004000B6FBF0F06421B0FBF1F105FB010559
:101EA000ED0032356420B5FBF0F0420002F4F87228
:101EB00002EB0112216800F007008018886070BDF5
:101EC000824218BF9A4207D101F004F84643606885
:101ED000800000F023F809E000F0F4FF6168464359
:101EE0008900B6FBF1F16420B1FBF0F005FB0015B1
:101EF0002D0132356421B5FBF1F101F0F00202EB66
:101F0000001201F00F0120688918816070BD000087
:101F1000F369FFFF0014014000100140B6FBF0F12F
:101F20006422B1FBF2F07047FEB504460020009039
:101F30000CB90120FEBD04F14405287820B9002128
:101F400069702046FEF725FE002001904FF4805670
:101F5000DFF85C03016841F480410160006800F42F
:101F6000804001900199DFF84C13086820F40000CC
:101F700008600A68206A02430A602068815941F0BB
:101F800001018151FEF78EFF074620688159CA077B
:101F90000BD5FEF787FFC01B40F2F5118842F4D342
:101FA00003222A700020687058E0066900F087FF5D
:101FB000DFF80423DFF80413121826F01C068A4207
:101FC00038BF46F0080612D3DFF8F422DFF8F41227
:101FD00012188A4238BF46F00C0608D3DFF8E81220
:101FE000DFF8E8220818904228BF46F0040620686F
:101FF00006614FF4004200F06BF8002851D1FF2039
:1020000000F0D8FF6068002841D0FEF74BFF07467C
:1020100041F2893600F058F8FEF744FFC01BB04289
:1020200016D200994807F5D54FF4805200F050F8C9
:10203000002836D1FEF736FF074600F045F8FEF7D8
:1020400031FFC01BB04203D200998806F5D507E0E6
:1020500000F037F801202870002169700320FEBDD0
:102060006A461021204600F036F8D0B900984107A2
:1020700047BF4FF40060E0600021E16000998807ED
:1020800059BF4FF48040A0600021A16012E0A06819
:10209000E268C0035203000C40EA124200F018F854
:1020A00020B100F00EF801202870FEBD40F6FF7050
:1020B00000F080FF002100F005F8012028700020CA
:1020C000FEBD0121204679E06A460121204602E05A
:1020D0000021204638E02DE9F041044604F1440691
:1020E0000F4630788228154602D10220BDE8F081E3
:1020F00082203070BF0122681069218A00F058F8F0
:10210000084307F4F867074347F001071761FEF734
:10211000C9FE804601E020680769F8070CD5FEF784
:10212000C1FEA0EB0800B0F5803FF4D3012131706F
:10213000002070700320D9E72168486980B22860C8
:10214000012232700020D1E7F8B5044604F14405BD
:102150000E462878422801D10220F2BD4220287084
:1021600092B223681869218A5A6100F021F8B601F9
:10217000084306F4F8660643206846F00306066145
:10218000FEF790FE074601E020680669F0070BD5D0
:10219000FEF788FEC01BB0F5803FF5D30121297002
:1021A000002068700320F2BD012028700020F2BDDD
:1021B000C90200F01C0001F47841704738B50446AC
:1021C00029B14FF400614FF48040E160A060E06904
:1021D00000280CBF4FF48065002522683C48136836
:1021E000A1680340E0680B4303431D4345F40075B9
:1021F00015600120156800F0DDFE206805604021B3
:102200004160456800F051F821684D600020886009
:102210000022CA604FF641708A69024042F0800293
:102220008A6101208D6900F0C5FE2068856100216A
:10223000C161C56900F039F821682648CD6141F2D5
:1022400018028B58034043F0087343F004038B508B
:1022500001208D5800F0AEFE20681F4900F5805027
:1022600085610160056800F020F8206800F5805065
:102270000560A169012905D1C16941F4803141F0AE
:102280004001C161606943790279144942EA03223D
:102290000A608278C378120442EA036243780078C5
:1022A00042EA032202434A6031BD012000F082BEAF
:1022B000443802400438014000D3CEFEC0E1E400BF
:1022C00040F1E9FD40787D0100796CFC005A620222
:1022D0000F8120FF233FDEF88020C10240800240B2
:1022E00070B5614C0122102100F0A0F8642000F0CC
:1022F00061FE012200F09FF8002200F096F86420B1
:1023000000F058FE012200F090F84FF47A7000F0CF
:1023100051FE00F08FF800F0ADF8544D514E4FF0E3
:10232000FF33132206F118012846FEF70EF800F0DD
:10233000A1F8012200F07FF800F09CF8112000F0D5
:1023400078F800F097F800F069F800F093F80122AF
:1023500000F071F800F08EF8452200211120327053
:102360007170B07000F066F800F082F800F056F876
:1023700000F07EF800F04BF800F07AF800F040F83A
:1023800000F076F8012200F056F800F073F81A20F9
:1023900000F04FF800F06EF800F040F800F06AF836
:1023A000012200F048F800F065F845223270002163
:1023B00010207170B07000F03DF800F059F800F096
:1023C0002DF800F055F800F022F800F051F800F078
:1023D00017F800F04DF8012200F02DF800F04AF84F
:1023E000102000F026F800F045F800F017F800F093
:1023F00041F8012200F01FF8BDE8704019203BE0D1
:102400004FF0FF330122B11C2846FDF7F7BE4FF015
:10241000FF330122711C2846FDF7F0BE4FF0FF3359
:10242000012231462846FDF7E9BE08212046FFF784
:10243000A7BA3070002240212046FFF7A1BA80B52C
:10244000002240210848FFF79BFA142000F014F8FE
:102450000448BDE80050021D00F12C01132303487D
:10246000FEF7D5B9F814002000100240F00E00204D
:10247000642001E01920FFE7002100E0491C8142AF
:10248000FCD37047704B33F8101003EB800300222D
:1024900005E06D4B33F8101003EB8003012218693F
:1024A000FFF76EBA11B50C46684981B00C7000F0A8
:1024B0005CF82046FFF7E6FF00F057F8012201A97B
:1024C00000F04DF813BD78B5C1B004460D46164670
:1024D0004FF4827100226846FFF752F95B490C7095
:1024E00000F040F800F041F800F03CF802202A0C1F
:1024F000290A8DF800008DF801208DF802108DF862
:1025000003504FF48072314601A800F067FD204669
:10251000FFF7B8FF00F029F84FF4827200F01EF8C0
:1025200042B070BD38B504460D4600F01BF800F00F
:102530001CF800BF4AA0016800912B0C290A8DF8F5
:1025400001308DF802108DF803502046FFF79AFFF6
:1025500000F00BF8042200F001F831BD69463C4858
:10256000FEF791B8214606209CE70A20FFF784BFBA
:1025700010B50446FFF7F6FFFFF7F7FF2146BDE869
:102580001040C7208EE700001CB500BF33A1304CBF
:102590000A6800920020FFF775FFFFF7E6FF4FF48F
:1025A0007A73042269462046FDF728FE4FF4206224
:1025B00028492046FEF7B6F82046FEF7AEF9012876
:1025C000FAD113BD10B50024E1B20620FFF76AFF6F
:1025D000FFF7CBFFE1B29820FFF764FFFFF7C5FFDD
:1025E000E0B2FFF7C5FFFFF7C0FF641CE0B20828A8
:1025F000EADB10BD70B5184C267804EB8605024660
:102600006968B1F5000F24BF002068606968304632
:10261000FFF759FF6968686A01F5807100F58070FD
:10262000B0F5805F6960686206D300206862090BBC
:1026300009033046FFF776FF761C0020301800F0C3
:10264000F800361A267070BD0000002067100020C8
:10265000400C002040000020B414002003000000C3
:10266000200000000022FFF78BB8000038B5C74CEF
:10267000C74A23780120A07060781354401CC5B26B
:10268000CD2DA8BF0020607001222146C148FFF770
:102690007AFA0021E17031BD4278012A0AD0032A7A
:1026A00009D0052A09D0062A06D00F2A06D0102AFA
:1026B00005D0704754E0A6E0F0E0DFE0FDE02FE158
:1026C000F8B5B24C217901292BD10020207167780F
:1026D000B14DAF4E7A1C3146284600F025FC002350
:1026E0006370CD213046FFF7F1F9CD21AB48FFF7FC
:1026F000EDF907F1FE01C9B2284600F06DF9E919BC
:102700008A1E1178527842EA0122A5F8D02082422E
:1027100004BF2878012804D139462846BDE8F44092
:10272000BAE7F1BD99488178012908D1C278511CD6
:10273000652A03DB0021012281700271C17070479C
:1027400038B505460C4601224FF480619448FFF7E6
:1027500017F922462946BDE838408E48FFF7F4B9FC
:102760002DE9F8430746B878FC787D7944EA0024DF
:10277000387945EA0025642DC8BF642528B200F0E9
:1027800017F9864E3978317000217A787270B070FE
:102790000027F21C01E0D1547F1CFBB28342FADB1C
:1027A000214600237F4A044606F1030806F1030987
:1027B00017E0981003EB507047053F0E20F007001C
:1027C000A742A3EB000C0BDA5818105C40B119F8C3
:1027D00007E0012000FA0CF040EA0E0008F80700BC
:1027E0005B1CAB42E5DBE11CC9B2304600F0F4F8FB
:1027F000F21C31191055641D000A0871E1B230460F
:10280000BDE8F4439CE72DE9F0418378C278447930
:10281000624D42EA0322037944EA032403782B70D1
:10282000002146786E706000A8708C4666005E4895
:102830002F1D0FE0CBB29B1830F81380EB1C4FEA32
:10284000182E03F80CE007F80C800CF10203491C69
:102850005FFA83FCB445EDDBF01CC1B2284600F002
:10286000BBF8291D020A01F81420EB1C761D03F8A1
:102870001400F1B22846BDE8F04161E710B5837855
:10288000C278447942EA0322037954EA032318BF49
:102890000123444CA354BDE8104051E738B5847877
:1028A000C3780579404A43EA0423447944EA05247D
:1028B00022F81340BDE8344042E7F8B501460A79F2
:1028C0004D7945EA02250027364A17E0DCB20C4470
:1028D0004FF0010CE4790CFA00FC1CEA0404A44655
:1028E00018BF4FF0010C401CC0B202F806C010F037
:1028F000070F02D108B15B1C00207F1CFEB2AE4264
:10290000E4DB264C0622204600F00EFB0621204682
:1029100000F062F8A0710821000AE071204632E060
:10292000F8B504464FF480512048FFF72DF8A17800
:10293000E278657942EA0122217945EA0125002001
:10294000002719490DE0231804EB000EDB799EF8EF
:1029500008C04CEA0323B61821F81630801CC0B218
:102960007F1CFEB2AE42EEDB0C4D0622214628460D
:1029700000F0DAFA0621284600F02EF8A8710821A6
:10298000000AE8712846BDE8F440D9E6621000204C
:1029900068100020480F0020900F00203811002000
:1029A00000000240D012002008120020000C02405B
:1029B00081B000218DF8001001B2002908D4083838
:1029C0009DF8001002B2491C002A8DF80010F3D5C2
:1029D0009DF8000001B0704770B54FF6FF750023F9
:1029E0000AA40CE0C25C554008222E4605F0010501
:1029F00034F81550521E85EA5605F6D15B1C8B4201
:102A0000F0D3280A40EA052080B270BD000001A082
:102A10002DE9FC47040016D02078DFF8CC74C107FC
:102A200013D5B86800F00C00042807D0B86800F08F
:102A30000C00082842D1786841023FD538688103EC
:102A400003D56068002800F03C812078DFF8A89466
:102A5000810719D5B86810F00C0F07D0B86800F0DE
:102A60000C00082846D17868410243D438688107B1
:102A700003D5E068012840F024813968206921F0FD
:102A8000F80141EAC00139602178DFF87084080755
:102A900066D56069DFF86814002853D001220A6007
:102AA000FEF700FA0546D8F80400810758D4FEF76F
:102AB000F9F9401B0228F6D9032005E16168B970D5
:102AC000606858B1FEF7EEF9054639688803BCD452
:102AD000FEF7E8F9401B6528F7D3EDE7FEF7E2F9CA
:102AE000054639688803B0D5FEF7DCF9401B652838
:102AF000F7D3E1E7E068B0B10122C9F80020FEF7A2
:102B0000D1F905463968880705D4FEF7CBF9401B93
:102B10000228F7D9D0E73868216920F0F80040EAA8
:102B2000C1003860B0E70022C9F80020FEF7BAF90A
:102B3000054638688107A7D5FEF7B4F9401B02287F
:102B4000F7D9B9E70860FEF7ADF90546D8F80400F3
:102B5000810705D5FEF7A6F9401B0228F6D9ABE799
:102B60002078410751D5386C0025C1000BD40020D6
:102B700000900125396C41F080513964386C00F0C7
:102B8000805000900098DFF87C63306840F48070DB
:102B900030603168CA0510D4306840F4807030600D
:102BA000FEF780F982463068C10506D4FEF77AF94F
:102BB000A0EB0A000228F6D97EE7A16888F8001089
:102BC00041F28936A06868B1FEF76CF98246D8F800
:102BD0000010880714D4FEF765F9A0EB0A00B04294
:102BE000F5D369E7FEF75EF98246D8F80000810761
:102BF00006D5FEF757F9A0EB0A00B042F5D35BE724
:102C00001DB1386C20F080503864A06900285AD07B
:102C1000B96801F00C01082937D0022829D100F049
:102C200055F805463868810105D5FEF73BF9401B8C
:102C30006528F7D340E7E269206A616A0243A06A27
:102C4000400842EA8112401E42EA0042E06A42EA3B
:102C500000627A600121C9F86010FEF723F904468A
:102C6000386881012FD4FEF71DF9001B6528F7D3C2
:102C700022E700F02BF804463868810123D5FEF7DF
:102C800011F9001B6528F7D316E7012819D07868D9
:102C9000E16900F480028A4202BF00F03F02216A2B
:102CA0008A420ED1636AC0F38811994202BF00F4D0
:102CB0004032A16A8A4202BF00F07060E16A884235
:102CC00001D0012000E00020BDE8F6870020C9F80F
:102CD0006000FEF7E7B82DE9F04104000F4652D03E
:102CE000894E306800F00F00B84202D200F071F84F
:102CF00049D121687C4D880712D5490703D5A868BA
:102D000040F4E050A8602178080703D5A96841F491
:102D10006041A960A968A06821F0F0010143A960A1
:102D20002178C80727D56068012802D129688A035D
:102D300003E0022803D129688A0103D423E02B6829
:102D4000990720D5AA68920840EA8200A860FEF799
:102D5000A9F88046A968606801F00C01B1EB800F0A
:102D600009D0FEF79FF8A0EB080041F289318842B4
:102D7000F0D303202BE0306800F00F00874204D22C
:102D800000F027F801D0012021E02178480705D57F
:102D9000A968E06821F4E0510143A96021780A079D
:102DA00006D5A868216920F4604040EAC100A86007
:102DB00000F05BF8AA685549C2F303128B5C4B49DB
:102DC000D84008604B48006800F0BAF80020BDE821
:102DD000F0813770316801F00F01B942704770B56A
:102DE00086B00E4614464A4DE8B90090A96A41F0F3
:102DF0000101A9620221A86A00F0010000904FF4CD
:102E00008070009A029101900021032203910591A4
:102E1000049201A93F48FEF7D1FC296821F0EC613A
:102E20000E4326431EE0002000900222A96A41F0D2
:102E30000401A9624FF40071A86A00F00400009038
:102E4000009B3548019102920321049100220392D4
:102E5000059201A9FEF7B2FC286820F078400643ED
:102E600046EAC4062E6006B070BD30B52B4C6068D3
:102E700000F00C00042802D0082802D01DE02848E9
:102E800030BD226821680023480202F03F0204D5C9
:102E900025682348C5F3881103E021681448C1F36D
:102EA0008811A0FB010100F09FF82168C1F30141E6
:102EB000491C4900B0FBF1F030BD0D4830BD0B4856
:102EC000006870470948124B00681A681549C2F338
:102ED000822206E005480E4B00681A681149C2F3C9
:102EE0004232895CC8407047003802403C000020F4
:102EF0000024F400380000200000474270380240EF
:102F0000800E474200700040003C0240A0310008A3
:102F10000838024000000240000802400438024025
:102F200000127A00EC3200084AB1000011F8013BAF
:102F3000521E00F8013B1CBF11F8013BF8E7704737
:102F400038B50D4D0D4A297804464FF47A73106850
:102F5000B3FBF1F1B0FBF1F0FEF781FD50B9102C9D
:102F600008D2002221464FF0FF30FEF74EFDAC6044
:102F7000002032BD012032BD300000203C00002086
:102F800000B500BF130096469446103928BFA0E84C
:102F90000C50FAD85FEA417C28BF0CC048BF40F80B
:102FA000042BC90728BF20F8022B48BF00F8012BCB
:102FB00000BD704731B5FDF775FF009D15F1010F9C
:102FC000044602D0044908784519FDF76BFF001B41
:102FD000A842FAD331BD00BF3000002010B504462E
:102FE000FFF7A2FF204610BDD3BBD9B1B2F5803F99
:102FF0005BD2022A1ED98C46B1FBF2F102FB11C34F
:103000001B0443EA1043B3FBF2FC02FB1C3380B207
:1030100040EA0343B3FBF2F002FB103240EA0C40FB
:1030200000237047022A05D98446B0FBF2F002FB68
:1030300010C270474AB105D100F0010249085FEAA9
:103040003000704700220023704700F051B80B0099
:103050000200002100207047F7D3002200237047B0
:10306000904271EB030CF2D370B5B1FA81F4B3FA6C
:1030700083F52C1BA340C4F1200532FA05F6334337
:10308000A2405FF00046E64002E05B085FEA3202E1
:10309000841A71EB030524BF204629467641F4D3F8
:1030A00002000B003000002170BD70B5B1FA81F450
:1030B000B2FA82F5C4F120046419B4F12006DAD31F
:1030C000B2405FF00044F440002502E052085FEA9D
:1030D0003303C61A71EB020E24BF304671466441B9
:1030E0006D41F3D302000B002000290070BD0000E9
:1030F00070470000FEE7FEE7FEE7FEE7FEE77047E9
:103100007047704780B5FFF70DFBBDE8014000F048
:103110001DB80420FEF73EBC0748FDF78BBF0748EB
:10312000FDF788BF0648FEF760BD0648FDF782BF81
:103130000548FDF77FBF0000F41300205414002061
:10314000480F00203413002094130020024A5168D5
:1031500010784118516070473000002010B50C49BC
:103160000C4C086840F00100086000238B600A687E
:10317000094802400A604C6000220B68074823F4AB
:1031800080230B60CA604FF00061016010BD000039
:103190000038024010300024FFFFF6FE08ED00E08A
:1031A00000000000000000000102030406070809F7
:1031B0008000400020001000080080000200010094
:1031C000000C0240000C0240000C0240000C0240C7
:1031D000000C024000040240000C0240000C0240BF
:1031E0000100000000000000100000000024F400B6
:1031F00030B4002412E050F8043BDA0744BF4B44DB
:103200005B1E091F042943F8044BFAD21A468D07A6
:1032100044BF1C80921CCB0748BF147050F8041B9D
:103220000029E8D130BC704710B5034A7A4408320F
:10323000024C7C44A41D03E01C0000003C00000084
:1032400004E01168101D114488470246A242F8D1DB
:1032500010BD00009DFFFFFFFC1400004000002097
:10326000000000002FE5FFFF4000000044FFFFFFCB
:10327000000000200000000000F00DF8002801D040
:10328000FFF7D2FFAFF300800020AFF30080FDF71F
:10329000D1FF00F002F80120704700F001B80000F3
:1032A0000746384600F002F8FBE7000080B5AFF3B0
:1032B0000080024A11001820ABBEFBE72600020086
:1032C0000548014603B4684680F30988AFF30080DF
:1032D000AFF30080FFF7D0FFA5EDF5FE0148804772
:1032E000014800475D310008C132000800000000BD
:1032F00001020304FFF7FEBFFFF7FEBFFFF7FEBFAB
:10330000FFF7FEBFFFF7FEBFFFF7FEBFFFF7FEBFF1
:10331000FFF7FEBFFFF7FEBFFFF7FEBFFFF7FEBFE1
:10332000FFF7FEBFFFF7FEBFFFF7FEBFFFF7FEBFD1
:10333000FFF7FEBFFFF7FEBFFFF7FEBFFFF7FEBFC1
:10334000FFF7FEBFFFF7FEBFFFF7FEBFFFF7FEBFB1
:10335000FFF7FEBFFFF7FEBFFFF7FEBFFFF7FEBFA1
:10336000FFF7FEBFFFF7FEBFFFF7FEBFFFF7FEBF91
:10337000FFF7FEBFFFF7FEBFFFF7FEBFFFF7FEBF81
:10338000FFF7FEBFFFF7FEBFFFF7FEBFFFF7FEBF71
:10339000FFF7FEBFFFF7FEBFFFF7FEBFFFF7FEBF61
:1033A000FFF7FEBFFFF7FEBFFFF7FEBFFFF7FEBF51
:1033B000FFF7FEBFFFF7FEBFFFF7FEBFFFF7FEBF41
:1033C000FFF7FEBFFFF7FEBFFFF7FEBFFFF7FEBF31
:1033D000FFF7FEBFFFF7FEBFFFF7FEBFFFF7FEBF21
:1033E000FFF7FEBFFFF7FEBFFFF7FEBFFFF7FEBF11
:1033F000FFF7FEBFFFF7FEBFFFF7FEBFFFF7FEBF01
:10340000FFF7FEBFFFF7FEBFFFF7FEBFFFF7FEBFF0
:0C341000FFF7FEBFFFF7FEBFFFF7FEBF97
:04000005080032C1FC
:00000001FF
