:020000040800F2
:10000000D85A002041540008395200083B520008D9
:100010003D5200083F520008415200080000000015
:100020000000000000000000000000006751000810
:10003000435200080000000021510008455200080A
:100040008D540008915400089554000899540008F4
:100050009D540008A1540008A5540008A9540008A4
:100060005D520008AD540008B1540008B5540008B2
:10007000B9540008BD5400086352000869520008D2
:10008000C1540008C5540008C9540008CD540008E4
:10009000D1540008D5540008D9540008DD54000894
:1000A000E1540008E5540008E9540008ED54000844
:1000B000F1540008F5540008F9540008FD540008F4
:1000C0000155000805550008095500080D550008A0
:1000D0001155000815550008195500081D55000850
:1000E0002155000825550008295500082D55000800
:1000F0003155000835550008395500083D550008B0
:100100004155000845550008495500084D5500085F
:100110006F520008515500087552000855550008E7
:100120007B520008595500085D55000881520008AF
:100130006155000865550008695500086D550008AF
:100140007155000875550008795500087D5500085F
:100150008155000885550008895500088D5500080F
:100160009155000895550008995500089D550008BF
:10017000A1550008A5550008A95500080000000079
:10018000AD55000838B5040001D1012032BD002072
:10019000A06204F15005687820B900222A70204638
:1001A00000F0FBFC0221697000F052FC6268A0685C
:1001B000E168A369024320690A43616902430A4373
:1001C00003F40073E069216A1A430243A06A2368BA
:1001D0000A4302431A60A169606A2268090C01F0AF
:1001E0000401014351602168C86920F40060C861BE
:1001F0000021696001206870002032BD2DE9F843BC
:10020000074607F15006002530780C46914698467F
:10021000012808BF022000F096800120307000F015
:10022000E7FD7178012918BF022554D1002C18BFB1
:10023000B9F1000F00F08380032171700023736017
:100240003C63A7F83490A7F836900021B963BB87C8
:10025000F9877B643964BB68B3F5004F04D13B6810
:10026000196841F48041196039680B685C0603D451
:100270000B6843F040030B604446F968B1F5006F2A
:1002800079682CD1002918BFB9F1010F09D13B6B56
:1002900039681A88CA603B6B9A1C3A63F98E4A1E09
:1002A000FA86804606E03A6B1188C1603A6B901C72
:1002B00000F0C7F9F88E002835D0386882689107B9
:1002C000F1D400F095FDA0EB0800A04204D314F196
:1002D000010FEFD0032533E0002CEBD1FAE7002922
:1002E00018BFB9F1010F00F0C2F9804608E03A6B7F
:1002F00011780173386B411C3963F88E411EF98601
:10030000F88E80B1386882689107F0D400F070FDF3
:10031000A0EB0800A04203D314F1010FF0D0D9E7FD
:10032000002CEDD1D6E742462146384600F0F3FBDB
:1003300008B12020706000F08FF9706800B10125CD
:1003400000F09DF82846BDE8F2832DE9F843074602
:10035000002478680D469146984607F15006B0F59E
:10036000827F04BFB86800280BD14FF0040C86F8D8
:1003700001C0CDF800804B462A46384600F084F88C
:100380007BE03078012808BF022076D00120307051
:1003900000F02EFD7178012918BF02246AD1002DCA
:1003A00018BFB9F1000F64D004227270002171608F
:1003B000BD63A7F83C90A7F83E903963B986002248
:1003C000FA8639647A64B968B1F5004F04D13A68A5
:1003D000116821F48041116039680A68530600F001
:1003E00035F90546F968002926D108E0007BB96B8C
:1003F0000870B86B421CBA63F98F481EF887F88FF3
:1004000068B338688268D107F0D400F0F1FC401B73
:10041000404504D318F1010FF1D003242AE0B8F1CC
:10042000000FECD1F9E7C168B86B0180B96B8A1C89
:10043000BA63F98F481EF887F88F80B138688168F1
:10044000CA07F0D400F0D4FC401B404503D318F198
:10045000010FF1D0E1E7B8F1000FEDD1DDE72A4659
:100460004146384600F042FB08B1202070607068B9
:1004700000B1012400F003F82046BDE8F28301201A
:1004800070700021317070472DE9FC47074607F175
:100490005006012530788A4691464FF00008012821
:1004A00008BF022000F0CB801C46357000F0A0FC95
:1004B0007278012A23460AD07968B1F5827F02BF9B
:1004C000B9680029042A02D04FF00208B4E0BAF15A
:1004D000000F18BFB9F1000F00D00CB9A846ABE06F
:1004E00096F801C0BCF1040F1CBF4FF0050E86F852
:1004F00001E0C446C6F804C0C7F83890FC87BC8742
:10050000C7F830A0FC86BC86C7F84080C7F8448096
:1005100039680A68540600F099F8F9680A9CB1F540
:10052000006F796841D1002918BF012B09D13B6BBD
:1005300039681A88CA603A6B911C3963FA8E511E69
:10054000F9868146F88E002804BFF88F002866D00F
:100550003968886882070CD5F88E002818BF002DEE
:1005600007D0386B0288CA600025396B881C00F000
:1005700068F839688868C2070BD5F88F48B1C86831
:10058000B96B08800125B86B821CBA63F88F411ED5
:10059000F98700F02DFCA0EB0900A042D2D314F1A2
:1005A000010FCFD04FF0030846E0002918BF012B00
:1005B00000F05DF88146F88E002804BFF88F00280F
:1005C0002DD03968886882070CD5F88E002818BFAE
:1005D000002D07D0386B02780A730025396B481C50
:1005E00000F02FF839688868C2070BD5F88F48B13A
:1005F000C868B96B08700125BA6B501CB863F98FD5
:10060000481EF88700F0F4FBA0EB0900A04203D3DA
:1006100014F1010FCFD0C5E7002CCCD1C2E74A4678
:100620002146384600F077FA20B120204FF001082B
:10063000706001E000F010F8FFF721FF4046BDE8D0
:10064000F6873863F98E481EF886704703D40A6827
:1006500042F040020A607047B86838B90021009142
:100660003968C868009089680091009A704709D17C
:100670003B6B39681A780A733A6B511C3963FA8EEE
:10068000511EF986704770B5064606F150050024E4
:100690002878012801D1022070BD01232B706878D1
:1006A000012818BF022439D109B1100001D1012459
:1006B00034E00320687000236B603163B286F286F9
:1006C0000021B16371643164B187F187B068B0F51E
:1006D000004F04D13168086840F480400860B06C75
:1006E0000FF235310164B06C0FF23521C163B06C8B
:1006F0000FF23D31C164B06C0365F38E3068316B2D
:1007000000F10C02B06C00F0F1FB10B100F067F8E2
:1007100004E000F06CF840F002004860002028700F
:10072000204670BDF8B506460024B06806F15005B5
:10073000002804BF7368B3F5827F08D104246C706D
:10074000304601B0BDE8F04013460A465FE02F781E
:10075000012F01D10220F2BD01272F706B78012BF0
:1007600018BF022437D109B1130001D1012432E0AE
:1007700004236B7000276F60B163B287F28700219A
:1007800034647164B486B0F5004FF18604D13168E9
:10079000086820F480400860F06C0FF28521016445
:1007A000F06C0FF2C511C163F06C0FF28521C164CA
:1007B000F06C0465F38F3068B26B00F10C01F06CE3
:1007C00000F094FB10B100F00AF804E000F00FF81C
:1007D00040F001004860002028702046F2BD6868A3
:1007E00040F0100068600124012068707047306894
:1007F00001684A0603D4016841F040010160316894
:10080000486840F020004860316848687047F8B593
:10081000044604F1500600253078012801D1022059
:10082000F2BD012030707778012F09D06068B0F5F3
:10083000827F02BFA0680028042F01D0022568E053
:10084000002918BF002A01D0180001D1012560E05D
:10085000707804281CBF0527777000207060216322
:10086000A386E386A263A387E38720646064E06CC9
:100870007278042A07D10FF2A91101640FF2E9007E
:10088000E16CC86306E00FF2A1120FF24511026499
:10089000E06CC163E06C0FF29911C164E06C056516
:1008A000E38F2068A26B00F10C01E06C00F01EFBEE
:1008B000A8B92168486840F001004860A06C056450
:1008C000A06CC563A06CC564A06C0565E38E206850
:1008D000216B00F10C02A06C00F008FB38B17068CD
:1008E00040F01000706001250120707011E0206858
:1008F00001684A0603D4016841F0400101602168A3
:10090000486840F0200048602068416841F00201DA
:100910004160002030702846F2BD90F851007047C9
:1009200038B500F040F800F039F811D400F03FF885
:1009300000F013F800F065F800F0FFF800F003F99C
:100940000020E086012184F85110606D00B13AE08A
:100950002046BDE8324000F03EBE2168486820F0E5
:10096000020048607047000038B500F01CF800F045
:1009700015F80ED400F01BF800F01FF86421204693
:1009800000F0B4F808B12021616500F03DF800B135
:1009900019E02046BDE8324000F024BE2B681968FB
:1009A0000246C80570470546AC6B00F021BA2168C5
:1009B000486820F020004860704721684868800837
:1009C0008000486070472046BDE8324001F00EB814
:1009D00038B5FFF7E8FFFFF7E1FF0DD4FFF7E7FFBA
:1009E00000F00FF800F0A9F8FFF7E7FF0021E1861B
:1009F00000F00AF800B1E6E72046BDE8324000F01A
:100A0000FFBD6421204686E00020E087012184F8B4
:100A10005110606D70470000806B00F0E8BF00006F
:100A2000806B00F0E5BF0000806B00F0E2BF0000CB
:100A3000806B026851688908890051600121426D0C
:100A400042F01002426580F8511000F0CFBF000064
:100A50002168086820F04000086070472DE9F041E7
:100A6000069F05460E4690461C4629688868304019
:100A7000B0420CBF01210021414534D014F1010FD7
:100A8000F3D000F0B5F9C01BA04201D2002CECD18C
:100A90002968486820F0E00048606868B0F5827F07
:100AA0000BD1A868B0F5004F18BFB0F5806F04D126
:100AB0002968086820F040000860A86AB0F5005F67
:100AC00009D12868016821F400510160296808688B
:100AD00040F40050086005F15000012242700021EE
:100AE0000170032000E00020BDE8F0811CB5044641
:100AF0000B466068B0F5827F08D1A068B0F5004F62
:100B000018BFB0F5806F01D1FFF7A2FF00928021DE
:100B10000022204605E01CB500920B460446002248
:100B20008021FFF79BFF10B100F002F8032016BDF3
:100B3000606D40F020006065704718B1606D40F056
:100B4000200060657047A06838B9002100912168D5
:100B5000C868009089680091009A704782B00020B0
:100B600000909548416841F480414160416801F43A
:100B7000804100910021009B00910F21026842F00A
:100B8000805202600022006800F0805000906FF0F8
:100B90000100009B02B000F044BF2DE9F84386B08D
:100BA000054600F004F92A68844B854885499A4235
:100BB0004FF4806943D1002200924FF0C0674B6927
:100BC000814C43F480534B614FF400384A6902F47E
:100BD000805200920022009E7C4E00920B6843F0EF
:100BE00002030B600223096801F002010091382121
:100BF000009A029300220392019103230522049399
:100C0000059201A900F054FF266067600020A060F3
:100C100000F06CF808B100F0CFFEEC64A56306F1BB
:100C200048006B4C206067604021A160002000F00C
:100C30005DF808B100F0C0FEAC64A5634EE0654B02
:100C40009A424BD1002200920B69634F43F48043D8
:100C50000B610A6902F4804200920022009B00921C
:100C600002220E6846F002060E6009685B4E01F033
:100C7000020100914FF44441009B01910292032133
:100C80000023049105220393059201A900F010FFAF
:100C900000207860B860F8607861B861F861386207
:100CA00078623E6000F01DF808B100F085FEEF6448
:100CB000BD6340204A4F06F118020021B8603A6037
:100CC0007960F9607961B961F9613962796200F03E
:100CD00008F808B100F070FEAF64BD6307B0BDE86E
:100CE000F083C7F81090384600F088B8E060C4F888
:100CF00010906061A061E061C4F8208060622046CD
:100D000000F07CB8026837498A4200D0704780B54D
:100D10000020009000222848016841F01001016085
:100D20000821006800F0100000903620009B00F0C1
:100D300078FEBDE80240362000F092BE10B586B0C5
:100D4000044600F034F8236827498B422DD1002057
:100D500000901C48016941F400210161016901F41E
:100D6000002100910021009B0091026842F00402E2
:100D700002600222006800F0040000904FF440601E
:100D8000009902920121039101900821032205910B
:100D9000049201A9154800F08BFE0022082134209E
:100DA00000F03FFE342000F05BFE06B010BD1421C1
:100DB000002201A800F08CBF403802400030014002
:100DC00000040240303802407C530020106402408E
:100DD000DC530020003800403C54002058600240A2
:100DE0009C54002000100040004C004000080240CD
:100DF00001484068704700BF3C00002070B50446C1
:100E0000FFF7F6FF06460CB9012070BD04F134056A
:100E1000002028700221697000F062F822681168D1
:100E2000C80708D5FFF7E4FF801B0628F6D320216A
:100E30002962032052E01368DFF8DC026168034096
:100E4000A0680B43E168034320690B4361690343D6
:100E5000A0690B43E16903430B43216A606A1943AC
:100E6000042803D1E06A0843216B01431160226822
:100E70005369606ADB08042840EAC3030AD1A66A02
:100E8000E06A334330B1A16989B9002E18BF022E40
:100E90001FD016D35361204600F05AF9A96A3F22A9
:100EA0008A408260002028620121697070BDB1F51E
:100EB000005F0AD1032EEDD8DFE806F00D0B0D031D
:100EC000E8E7B0F1C07FE5D105E0022E03D9F61EB8
:100ED000E0D1C001DED5402129620120687070BDDB
:100EE000216808684008400008607047F8B504466B
:100EF00004F13407002538787E6A012801D10220E8
:100F0000F2BD01203870787801281DD14FF0020C15
:100F100087F801C000203862204600F009F9B86A5D
:100F20003F2101FA00FCC6F808C02068016841F0C2
:100F300016010160F86820B12168086840F00800D7
:100F4000086000F005F801E03D7002252846F2BD7A
:100F50002168086840F001000860704790F835206B
:100F6000022A03D08021416501207047052180F8C5
:100F7000351001680868400840000860002070478C
:100F80002DE9FC41064606F134050020634A009035
:100F90004FF416506F6A11683C68B1FBF0F8A86A0C
:100FA000082101FA00F004420ED0306803685A07A5
:100FB0000AD5036823F004030360A86A8140B9607E
:100FC000296A41F001012962A86A24FA00F2D107D6
:100FD0000BD5326851690A0607D5012101FA00F0E4
:100FE000B860286A40F0020028620421A86A8140A3
:100FF0000C4208D033681A68900704D5B960286A93
:1010000040F0040028621021A86A81400C421BD0E5
:1010100033681A68100717D5B96030680268510341
:1010200007D5006801030BD5696969B13046884767
:101030000AE00168CA0503D4016821F008010160D3
:10104000E96809B130468847A86A202181400C42EE
:1010500041D032681068C3063DD5B9603068697800
:1010600005291ED1026822F016020260316800F0E4
:1010700057F804BF6869002804D03068016821F07F
:10108000080101603F22A86A8240BA6000212970ED
:1010900001226A70E96900293AD03046BDE8FC4176
:1010A000084701684A0307D5006801030FD429697E
:1010B00089B1304688470EE00168CA0507D4016847
:1010C00021F01001016000222A7001206870A968D7
:1010D00009B130468847286AD0B1296AC80711D5B6
:1010E000052169703168FFF7FCFE0098401C8045BF
:1010F000009003D332681168C807F6D400222A7022
:1011000001216970A96919B13046BDE8FC41084761
:10111000BDE8F381000000003F8010F0480000208F
:10112000486920F080004861E868002870470000A6
:1011300030B50468256825F48025256063608068E3
:10114000402802D1A260E16030BDA160E26030BD04
:1011500010B501461822086807A400F0FF03103BF1
:10116000B3FBF2F2800AA35CCB658002042A28BF9D
:10117000001D886510BD0000000610160006101640
:101180002DE9F843DFF8D84786B04FF44861204690
:1011900000F0BCFD4FF4486104F1480000F0B6FDDA
:1011A0004FF4486104F1900000F0B0FD4FF4486145
:1011B00004F1D80000F0AAFD4FF4486104F59070E6
:1011C00000F0A4FD4FF4486104F5B47000F09EFDFA
:1011D0004FF4486104F5D87000F098FD4FF4486171
:1011E00004F5FC7000F092FD00F000FE00F0B8F98C
:1011F0001421684600F014FE0020DFF86877DFF85D
:101200006847DFF86857DFF86867DFF86897DFF846
:1012100068870590396841F010013960386800F03E
:10122000100000F097F941F080013960386800F053
:10123000800000F08FF941F002013960386800F059
:10124000020000F087F941F008013960386800F0C9
:10125000080000F07FF941F004013960386800F0BF
:10126000040005900020059A05900122396841F09C
:10127000010139601B21386800F0010005900598D4
:1012800000F080FA00F07CFA00228121284600F06C
:10129000F7FC00224FF4E071304600F0F1FC002230
:1012A0004FF4A061484600F0EBFC00227B21404651
:1012B00000F0E6FC01228021404600F0E1FC04221F
:1012C00000920022DFF8B41601910292694620468E
:1012D00000F0EEFB5B200121009000F02DF920468C
:1012E00000F0E6FB812200F025F9284600F0E0FB43
:1012F0004FF470620092002101910122029269462E
:10130000404600F0D5FB4FF4E07000F01BF930468A
:1013100000F0CEFB022201920021029103220491EF
:101320004FF40074039200946946304600F0C0FB0D
:101330004FF4A06200F0FEF8484600F0B9FBFB2035
:1013400000F000F9404600F0B3FB0020009039683F
:10135000DFF82C5641F400113960386800F40010B1
:10136000009000200099009005213A6842F4800224
:101370003A600022386800F48000009000980E2047
:1013800000F04FFB0E2000F06BFB002205210F2028
:1013900000F047FB0F2000F063FB002206213820FD
:1013A00000F03FFB382000F05BFB002206213B20D1
:1013B00000F037FB3B2000F053FBDFF8C805286046
:1013C0004FF4E1310C20002268616960AA60EA6094
:1013D0002A61AA61EA61284600F026FD08B100F002
:1013E000EBFA0022DFF8A0058260C2600261426170
:1013F000C2610262426282620A22DFF890150160D5
:101400004FF4827600F091F808B100F0D5FADFF8D9
:101410008005DFF88015016000228260C2600261F1
:10142000012108224161C26100210A220162416258
:10143000816200F07AF808B100F0BEFA00200021C5
:10144000CDE900016964FA21DFF84C052864E964FC
:101450000020A864A86505F1400000F09DFF08B1D8
:1014600000F0AAFA002000900190694605F14000C2
:1014700001F0C6F808B100F09FFA002205213620DD
:1014800000F0CFFA362000F0EBFA00220721082006
:1014900000F0C7FA082000F0E3FA01F05DF905F169
:1014A000400000F086FF01F0E9F901F0F8FB01F0DF
:1014B000A5FC0FF208520021012005F1840601F07D
:1014C00060FDF06000210FF20452DFF8D0440120EB
:1014D00001F057FD306101210FF20052012001F0AF
:1014E00050FD7061224600210FF2E12001F0BFFCA7
:1014F000C5F8800004F1240200210FF2013001F050
:10150000B6FC306004F1480200210FF2FD2001F02A
:10151000AEFC706004F16C0200210FF2FD2001F0BE
:10152000A6FCB06001F084FCFEE7C2624660846104
:10153000FEF728BE0092012101910022029203923F
:1015400069467047002100900122029103910192A7
:101550006946704705900020059A059039687047E4
:1015600000B591B0302105A800F05AFC142168465E
:1015700000F056FC10210991012200210C910892E3
:10158000C3210E91022005900B900D220F90042193
:101590000D92109105A801F05FFD08B100F00CFA62
:1015A000022101910F204FF48051009000234FF44D
:1015B000A0520491029303920321684601F0AFFE0A
:1015C00008B100F0F9F94FF0E0620021012001F0CC
:1015D0002AFF11B000BDDFF8B013884200D0704779
:1015E00080B504E0E849884200D0704780B50A2001
:1015F00001F022FAEA490878BDE8024001F027B874
:10160000E34A904200D070472DE9F84FE548017851
:10161000002900F0B3800A2001F00EFA01224021D7
:10162000D148DFF8848300F02BFBE048C6780179CD
:1016300008F5007541EA06212F78A980102F42791C
:10164000817941EA0221E980C279017A41EA0221E5
:101650002981427A817A41EA02216981027BC17A39
:1016600042EA0122AA81437B827B42EA0324EC8185
:1016700090F810A090F80FB04AEA0B242C8290F852
:1016800012C090F811E04CEA0E246C825FDA6C789C
:101690004FEA071908EB04247F1C04F809606C78F2
:1016A00008EB04264E44047974706E7808EB062427
:1016B0004C444679A6706C78867908EB04244C4437
:1016C000E6706C78C67908EB04244C4426716C787B
:1016D000067A08EB04244C4466716C7808EB042409
:1016E00004EB0906447AB4716C7808EB04264E4486
:1016F000847AF4716E7808EB06244C4421726E787B
:10170000007B08EB0621494448726C7808EB042101
:1017100049448B726B7808EB03204844C2726978A5
:1017200008EB0120484480F80CB0697808EB0120F0
:10173000484480F80DA0697808EB0120484480F8FF
:101740000EE0697808EB0120484480F80FC0F8B239
:10175000102812DB864C2F70012200F012F8A878B6
:1017600008EB002001F010F800F00AF86878A87083
:101770000027697881F0010169702F70BDE8F18F51
:1017800000224021204600F07BBA02687D498A424F
:1017900000D0704780B5052001F04EF9BDE8084043
:1017A00000224FF48061734800F06ABA80B50420CB
:1017B00001F042F9BDE8014001F022B90168764824
:1017C000814208BF01F0B4B970470000F8B54FF08E
:1017D000FF37684D764E96F8304078B2844209D093
:1017E000002C0CBF002201224FF48071284600F02B
:1017F00047FA274600F00CF8EDE7000080B501F04D
:1018000060F900F005F8FAE780B500F001F8FCE7B0
:10181000012001F08DBB00002DE9F843DFF8409175
:10182000634FDFF8908109F5EC7409F5A47509F1AF
:10183000B806484600F080FA09F1480000F07CFA4A
:1018400009F1900000F078FA09F1D80000F074FA7C
:1018500009F5907000F070FA09F5B47000F06CFAB8
:1018600009F5D87000F068FA09F5FC7000F064FA28
:10187000D9F82800414601F079FE01F0E3FE3882F4
:101880004146D9F8700001F071FE01F0DBFE78826C
:101890004146306801F06AFE01F0D4FEB88241464C
:1018A000B06C01F063FE01F0CDFEF882414628687D
:1018B00001F05CFE01F0C6FE38834146A86C01F0E1
:1018C00055FE01F0BFFE78834146206801F04EFED0
:1018D00001F0B8FEB8834146A06C01F047FE01F06C
:1018E000B1FEF8834146D9F82C0001F03FFE01F02B
:1018F000A9FE38844146D9F8740001F037FE01F0A2
:10190000A1FE78844146706801F030FE01F09AFE35
:10191000B8844146F06C01F029FE01F093FEF88492
:101920004146686801F022FE01F08CFE3885414690
:10193000E86C01F01BFE01F085FE78854146606889
:1019400001F014FE01F07EFEB8854146E06C01F026
:101950000DFE01F077FEF885FFF75AFF69E70000FA
:10196000804700203038024000100240000402404E
:101970000008024000000240000C0240000021105C
:1019800044520020004C0040B05500200038004078
:10199000585500200030014000100040A8510008B8
:1019A000D25600204C000020C04900205056002094
:1019B0007C51002000007A4472B6FEE76C540008A7
:1019C0000000000000000000000000008854000833
:1019D0000000000000000000000000007454000837
:1019E0000000000000000000000000007047704789
:1019F000704770470A01010002D4274B5A547047C0
:101A0000264801F00F01014401F8042C70472449D5
:101A10000A6860F30A2240F2FA5060F31F420A603B
:101A2000704770B51E4C2368C3F302230124C3F131
:101A30000705052D2FBF0F26C3F1070604FA06F68A
:101A4000761E1D1D072D34BF0023DB1E314099403B
:101A500004FA03F3BDE870405B1E1A401143C9E766
:101A6000010007D4012200F01F010E4B8A404009FB
:101A700043F820207047401EB0F1807F01D3012041
:101A8000704709494860F0220848027000238B60C3
:101A900007220A600020704700E400E018ED00E033
:101AA0000CED00E000E100E010E000E023ED00E0DC
:101AB0002DE9F84F0027794EDFF8E4814FF00F0948
:101AC00002460B462EE0774DAA4214BF4FF0090E96
:101AD0004FF0080E0EFA01F141EA040E724941F886
:101AE0002CE0C54331685C682940E40348BF0143EA
:101AF000316071685C682940A40348BF014371608C
:101B0000B1685C682940E40248BF0143B160F168F4
:101B100005EA010C5968890248BF40EA0C0CC6F876
:101B20000CC07F1C186830FA07F100F0A180012179
:101B3000B9400840F5D04FEA470C032404FA0CF4EE
:101B40006FEA040E5C68012C18BF022C03D0112C24
:101B500018BF122C10D19468DD680EEA040405FA4F
:101B60000CF52C439460546824EA01015C68C4F3CA
:101B70000014BC4021435160D46899680EEA040403
:101B800001FA0CF10C43D460B9005C68022C18BF58
:101B9000122C11D1FC0802EB840401F01C05D4F8CE
:101BA00020B009FA05FA2BEA0A0BD3F810A00AFABA
:101BB00005F545EA0B05256214680EEA04051C7953
:101BC00004F0030404FA0CF444EA050CC2F800C063
:101BD0005C68E400A5D54FF0000ECDF800E04FEAB8
:101BE000970CD8F8004044F48044C8F8004001F055
:101BF0000C01D8F800E00EF4804ECDF800E009FAB0
:101C000001F5009CDFF8A0E05EF82C40AC43274DC6
:101C1000AA4208BF4FF0000E29D0254DAA4208BFA6
:101C20004FF0010E23D0234DAA4208BF4FF0020E01
:101C30001DD0214DAA4208BF4FF0030E17D01F4DF3
:101C4000AA4208BF4FF0040E11D01D4DAA4208BF92
:101C50004FF0050E0BD01B4DAA4208BF4FF0060EE9
:101C600005D0194DAA427FF42EAF4FF0070E31E791
:101C7000BDE8F18F0069084018BF0120C0B270476D
:101C800002B909048161704710490A6803461A4283
:101C90001CBF0B60FFF78ABD70470000003C01408D
:101CA0004438024000200240083801400000024051
:101CB0000004024000080240000C024000100240F4
:101CC0000014024000180240001C0240143C014075
:101CD0004018491C1CBFB1F1010100F8012DF9D1D8
:101CE00070470EE002684368024408305FEAC37C34
:101CF00044BF4B445B1E52F804CB43F804CB091F8E
:101D0000F9D150F8041B0029ECD1704710B50160DF
:101D100000240021416000F13801C1E90244C0E91A
:101D20000444C0E90244C0E90844C0E906448462AE
:101D3000C4620C70446310BD2DE9F041044694F870
:101D40003800002842D0D4E9080101F08FFCDFF808
:101D50008880224F224E414601F008FC0546D4E916
:101D6000060101F0B1FC414601F000FC8046284626
:101D7000294601F0FBFB0146404601F033FD01F02E
:101D800079FD00F025F8394601F0F0FB314601F00D
:101D9000EDFBA062284600F01BF8394601F0E6FB97
:101DA000314601F0E3FBE062606B01F09DFD00F065
:101DB0000FF8394601F0DAFB314601F0D7FB09494B
:101DC00001F0D4FB2063002084F83800BDE8F081E6
:101DD000054901F09BBD00005C8159326F128340C0
:101DE000CDCC8C3F00007A4400FEFF4680B50B4806
:101DF000016841F400710160026842F4806202608F
:101E0000016841F4807101600320FFF700FE0F209C
:101E100001F008FEFEF7A2FE002002BD003C0240D9
:101E2000002201F023BE000038B5040001D10120DA
:101E300032BD04F13805687808B900F013F800F0F5
:101E400007F800F020F8FFE7486100F010F832BD15
:101E5000242068702168C86820F40050C8602046BB
:101E600000F00CBA002129702046FEF767BF2168F8
:101E7000C86840F40050C8606A6020216970202062
:101E8000A870002070472168086920F4904008611C
:101E900000222168486920F02A0070472DE9F843A4
:101EA000054605F138070C467878202816469946ED
:101EB00047D1002C14BF002E012043D038780128D0
:101EC0003FD001223A700021796021207870FEF71E
:101ED0008FFFAE84EE84002280463A7003E02868CB
:101EE00014F8011B4160E88CE0B1E88C411EE984E4
:101EF0004346A868CDF80090B0F5805F0DD100F0A2
:101F000023F8C0B920882968C0F308004860286910
:101F1000002814BF641CA41CE5E700F015F8002895
:101F2000DDD008E0CDF8009043460022402128464D
:101F300000F016F908B1032004E02020787000209A
:101F400000E00220BDE8F28300228021284600F054
:101F500007B910B500F138035C78202C16D109B10F
:101F6000140001D1012010BD1C78012C0ED00124D9
:101F70001C7001628284C2840021596021225A703F
:101F800019700168C86840F080002AE0022010BD86
:101F900010B500F138039C78202C20D109B1140031
:101FA00001D1012010BD1C78012C18D001241C7017
:101FB00081628285C2850021596022229A7019703F
:101FC0000168CA6842F48072CA600268516941F0CF
:101FD000010151610168C86840F0200001E0022061
:101FE00010BDC860002010BD416921F04001416171
:101FF000606B704729684869400840004861704735
:1020000070B5044620680268014612F00F0FCB68D5
:10201000456903F0200002F0200107D1002918BF14
:1020200000285BD02046BDE87040DDE0EE0702D41A
:1020300013F4907F52D0D60705D5DB0503D5E66BA8
:1020400046F00106E663560705D5EB0703D5E66BB8
:1020500046F00206E663960705D5EB0703D5E66B67
:1020600046F00406E663120706D508B9EA0703D569
:10207000E36B43F00803E363E26B002A6FD00029AF
:102080001EBF0028204600F0AFF820684069E26BD0
:10209000110701D440061BD5204600F08EF82068B9
:1020A00041694A060FD5FFF79FFF60B10FF2291172
:1020B0000165606BFEF752FF002850D0606B016D28
:1020C000BDE8704008472046BDE8704001F0E7BC1D
:1020D000204601F0E4FC0020E06370BD11062DD520
:1020E00018062BD594F83910212938D1A068B0F5FD
:1020F000805F0DD1226A21681088C0F30800486013
:1021000020690028206A0CBF811C411C216205E067
:10211000206A421C2262017820684160E08C401EE7
:10212000E08480B2D8B92168C86820F08000C86017
:102130002168C86840F04000C86070BD50060ED5E8
:1021400059060CD52068C16821F04001C1602046C5
:10215000202184F83910BDE87040FFF716BB70BD30
:102160002DE9F041069C05460E4690461F4629681B
:1021700008683040B0420CBF01210021414519D10F
:1021800014F1010FF3D024B1FEF732FEC01B8442DC
:10219000EDD22968C86820F4D070C8602022FFF70B
:1021A00029FF202105F13800417082700021017063
:1021B000032000E00020BDE8F0810268D16821F42E
:1021C0009071D1600268516949084900516120222B
:1021D00080F83A2070470000806B0022C285002101
:1021E000C18401F05CBC000010B590F83A102229BF
:1021F00042D18168B1F5805F2AD1826A01691346B4
:1022000001BB04686168C1F30801921C82621980F5
:10221000C18D491EC18589B261BB0268D16821F0B8
:102220002001D1600268D16821F48071D160016819
:102230004A69520852004A61202180F83A1000F0A1
:1022400005FC17E00168496801F0FF01521CDDE759
:1022500001690029816A05D14A1C826203685A68B3
:102260000A70D5E74B1C83620268536803F07F0352
:102270000B70CDE7002010BD022010BD70B50446E4
:10228000192622681169E06821F440510143116167
:102290006FF06305D3683A48A168034020690B4397
:1022A00061690343E0690B430343D3605169A0694B
:1022B000344B21F44071014351613348E169B1F578
:1022C000004F35D1824218BF9A4215D101F023F94F
:1022D00046436068400000F059F805FB0015ED002A
:1022E00032356421B5FBF1F14A0002F4F87202EBD9
:1022F000001201F007013EE001F005F94643606875
:102300004000B6FBF0F06421B0FBF1F105FB0105E4
:10231000ED0032356420B5FBF0F0420002F4F872B3
:1023200002EB0112216800F007008018886070BD80
:10233000824218BF9A4207D101F0EDF84643606827
:10234000800000F023F809E001F0DDF86168464301
:102350008900B6FBF1F16420B1FBF0F005FB00153C
:102360002D0132356421B5FBF1F101F0F00202EBF1
:10237000001201F00F0120688918816070BD000013
:10238000F369FFFF0014014000100140B6FBF0F1BB
:102390006422B1FBF2F0704738B5040001D101208E
:1023A00032BD00F024F818B900F01DF8FEF7AAFCC1
:1023B0000FE00068C16841F00101C160816801F06F
:1023C0000701062903D0016841F0010101600020E6
:1023D000704702206870211D206800F0B0F80120CD
:1023E0006870002032BD002129702046704704F13A
:1023F0003C056878704710B504462068026991076B
:1024000015D5C268910712D56FF002020261012151
:102410002177806910F0030F204602D001F040FBC5
:1024200003E001F03EFB00F087F8002020772068F1
:102430000269510715D5C268510712D56FF0040221
:10244000026102212177806910F4407F204602D08A
:1024500001F026FB03E001F024FB00F06DF8002002
:102460002077206801690A0715D5C1680A0712D5C7
:102470006FF00801016104222277C06910F0030F98
:10248000204602D001F00CFB03E001F00AFB00F053
:1024900053F80020207720680269D10615D5C2685C
:1024A000D10612D56FF01002026108212177C069B0
:1024B00010F4407F204602D001F0F2FA03E001F070
:1024C000F0FA00F039F80020207720680169CA0787
:1024D00008D5C168CA0705D56FF001010161204622
:1024E000FFF76CF9206801690A0608D5C1680A0679
:1024F00005D56FF080010161204601F0D3FA206814
:102500000269510608D5C3685A0605D56FF0400127
:102510000161204601F0C7FA206801698A060AD5E0
:10252000C1688A0607D56FF0200101612046BDE829
:10253000104001F0B9BA10BD204601F0B6BAF0B5AE
:102540000368244D244CDFF894C0254A254EA84248
:1025500018BFB0F1804F07D0B04218BF904203D0EF
:10256000604518BFA0420DD123F070074B683B4374
:10257000A84218BFB0F1804F17D0B0421CBF9042A4
:10258000604512D0A0421CBF174A90420DD0174E92
:10259000B0421CBF164A904207D0164EB0421FBF31
:1025A000154A9042154EB04203D123F44072CB68D5
:1025B00013434A6923F0800313430360A8428B68E6
:1025C000C3620A68826212BFA0420A6902630121E3
:1025D0004161F0BD0000014000040140000C0040DA
:1025E0000008004000040040004001400044014059
:1025F0000048014000180040001C0040002000403E
:1026000070B500F13C031A78012A01D1022070BD97
:1026100001241C7002225A7006687468B5684A6802
:10262000096824F070040C43746025F0800500688C
:1026300015438560012159700020187070BD00009D
:10264000884B33F8101003EB8003002205E0854B24
:1026500033F8101003EB800301221869FFF710BB59
:1026600001B5084680490870FFF7EAFF0122694674
:102670007E48FEF708F801BDF8B50D467A497C4F53
:1026800004460C70164600F056F800F062F802227C
:10269000290C280A3A707970B870FD704FF4807276
:1026A0003146381D01F002FA2046FFF7C9FF00F05D
:1026B00050F83946BDE8F8404FF4827238E070B502
:1026C0001446694A6A4D10700B0C0A0A03266B7097
:1026D000AA70E9702E70FFF7B3FF00F03AF8634E6E
:1026E0000A23042229463046FDF788FD4FF4807204
:1026F00021463046FEF716F83046FEF70EF901285F
:10270000FAD170BD70B504460D4600F014F8584E6D
:10271000280A2022290CB07032707170F5702046A2
:10272000FFF78EFF00F015F83146BDE87040042237
:102730004E48FDF7A8BF2146062091E710B5044694
:10274000FFF7F9FF00F005F82146BDE81040C7206B
:1027500086E70A2000F070B910B50024E1B2062027
:10276000FFF77EFFFFF7F5FFE1B29820FFF778FF54
:10277000FFF7EFFFE0B2FFF7E1FFFFF7EAFF641CAE
:10278000E0B20828EADB10BD70B53A4C257C04EBBA
:10279000850602467069B0F5003F03D300217161E0
:1027A0000120207328467169FFF766FF2571716962
:1027B0002068A160401C206001F58071706B716120
:1027C00000F58070B0F5805F706313D300207063F4
:1027D000090B090301F58041281DB1F5003F28BF11
:1027E000A1F50031082828BF0838A0656165C0B28E
:1027F000FFF788FF6D1C0020281800F0F8002D1A44
:10280000257470BD2DE9F8431B4E37788046894604
:10281000002522E006EB87046168B1F5003F24BF84
:1028200000206060616842463846FFF748FF6068F4
:1028300000F580706060606A00F580706062B0F5DD
:10284000805F24BF002060627F1CB90807EB5170D5
:10285000C008A7EBC007FFB26D1C4D45DAD3377037
:10286000BDE8F18300000020D2560020B0550020C2
:10287000044E0020FC54002008560020FEB56B4C8E
:102880000122102100F0B1F8642001F015F90122B5
:1028900000F0B2F8002200F0A7F8642001F00CF973
:1028A000012200F0A1F84FF47A7001F005F900F070
:1028B000A2F800F09DF85E4D5B4E4FF0FF331322FF
:1028C00006F118012846FDF740FD00F091F80122BD
:1028D00000F092F800F08CF8112000F08BF800F076
:1028E00087F800F07AF800F083F8012200F084F80D
:1028F00000F07EF853A00027D0E90021CDE90021A7
:1029000000F056F811207170B07000F074F800F00B
:1029100091F800F062F800F08DF800F057F800F040
:1029200089F800F04CF800F085F8012200F064F816
:1029300000F05EF87F1C082FE2DB1A2000F05AF846
:1029400000F056F800F049F800F052F8012200F0CB
:1029500053F800F04DF8002700F02AF810207170AD
:10296000B07000F048F800F065F800F036F800F0BC
:1029700061F800F02BF800F05DF800F020F800F0AE
:1029800059F8012200F038F800F032F87F1C082FC7
:10299000E2DB102000F02EF800F02AF800F01DF81D
:1029A00000F026F8012200F027F800F021F8F7BD2A
:1029B0001DF8070040F040003070002170474FF0D4
:1029C000FF330122B11C2846FDF718BC4FF0FF333E
:1029D0000122711C2846FDF711BC4FF0FF33012284
:1029E00031462846FDF70ABC08212046FFF748B9C2
:1029F000192021E03070002240212046FFF740B925
:102A000080B5002240210948FFF73AF9042000F080
:102A100013F80548BDE80050021D00F12C011323F6
:102A20000348FDF7F4BE00004C56002000100240A1
:102A3000585500206420FFE7002100E0491C814236
:102A4000FCD3704705060708090A0B0C38B5DFF8F8
:102A50007443DFF8742323780120A0706078135446
:102A6000401CC5B2CD2DA8BF0020607000F04CF90D
:102A70000021E17031BD38B504460D4600F049F93A
:102A8000F0B9204600F066F9D0B96078032804D088
:102A9000042807D006280AD00EE029462046BDE8C3
:102AA000344066E029462046BDE83440A2E029468D
:102AB0002046BDE83440CAE02046BDE8324061E12E
:102AC00031BDF8B5DFF8FC42217901292FD1002072
:102AD00020716678DFF8F452DFF8EC72721C394628
:102AE000284600F0FDFF00236370CD213846FFF734
:102AF00097F9CD21DFF8D802FFF792F906F1FE0130
:102B0000C9B2284600F0B2F8A9198A1E1178527885
:102B100041EA0221A5F8D010814202BF28786179EC
:102B2000884204D131462846BDE8F440A3E7F1BD10
:102B3000DFF890028178012908D1C278511CC92A96
:102B400003DB0021012281700271C170704738B52A
:102B500005460C4601224FF48061DFF87802FFF74A
:102B60008FF822462946BDE83840DFF86C02FFF7AF
:102B7000F0B92DE9F0418378C2784579DFF85C42FD
:102B800042EA0322037945EA03252580DFF8404223
:102B9000037823700021467866706800A0708C4628
:102BA0006E00DFF83C02271D0FE0CBB29B1830F817
:102BB0001380E31C4FEA182E03F80CE007F80C8092
:102BC0000CF10203491C5FFA83FCB445EDDBF01CF9
:102BD000C1B2204600F04AF8211D020A01F8152072
:102BE000E31C761D03F81500B1B22046BDE8F041A4
:102BF00000F082BF70B504460D46A178E0782279D6
:102C000050EA0120617941EA0221744A118019D108
:102C1000744ED6F80001102814D218B9012130469C
:102C2000FFF7F0FDD6F8000101017318725C5978C6
:102C300041EA02216A4A401C1180102828BF002066
:102C4000C6F8000129462046BDE8704091E738B536
:102C50008478C3780579624A43EA0423447944EAD4
:102C6000052422F81340BDE8344070E7F0B5034670
:102C70004FF6FF705FF000055FA40CE0EAB29A5CCB
:102C80005040082200F0010734F81760521E86EA0F
:102C90006000F7D16D1CEEB28E42EFD3F0BD38B5B7
:102CA000484C514D00206070A070E070207100F021
:102CB0002BF84FF4006100F024F818B9607940F067
:102CC000010060714FF4806100F01BF818B9607961
:102CD00040F0020060714FF4007100F012F818B972
:102CE000607940F0040060714FF4807100F009F8E1
:102CF00018B9607940F0080060716179384801873F
:102D000031BD2846FEF7B6BF012221463248FFF703
:102D10003FB980B54378DB1E012B02D9DB1E0FD0F3
:102D20000CE00279417951EA02210FD08378C27810
:102D300042EA03228918491E642907DA002002BDED
:102D40008278C17841EA02216429F7DB00F01FF89C
:102D5000012002BD80B54178062911D1027941795F
:102D6000837841EA0221C27842EA0322182A07D175
:102D7000002918BF012903D000F038F8012002BD56
:102D8000002002BD10B500F018F8012203E010B5D4
:102D900000F013F802224078A27040F080006070CA
:102DA00003212046FFF762FFE0700521000A207131
:102DB0002046BDE8104000F09FBE054C0178217010
:102DC00070470000D64F0020DC4F0020044F002049
:102DD000AC5000200000024044520020D056002099
:102DE0007C510020004D0020000C024010B5FFF780
:102DF000E4FF0322CFE70000000001A0EFF305800D
:102E0000002804BFEFF31080002807D1DFF8641119
:102E10000868022803D1EFF3118000B180E0086850
:102E200010B901220A6070474FF0FF307047000070
:102E300080B500F0A2F804BFEFF31080002805D1A0
:102E400000F071F803D1EFF3118000B109E00A68D6
:102E5000012A05D10220086000F08EFF002002BD8B
:102E600002E06FF0050002BD4FF0FF3002BDF0B58B
:102E700085B000230493EFF30583002B04BFEFF329
:102E80001083002B49D1DFF8EC402368022B03D1DB
:102E9000EFF31183002B40D103003ED000238025A7
:102EA00018268DF80C3003AC5AB3136803B11C46D6
:102EB00093691BB11E0004D0392E02D21779FB078B
:102EC00001D500202AE0536903B19D08D2F80CC057
:102ED000976887B1BCF15C0F1FD31269002A18BF35
:102EE000002B1AD001920B46029700962A462146E3
:102EF00000F02EFE10E0BCF1000F04BF1269002AA2
:102F00000BD104AB019300960B46AAB2214600F008
:102F10004FFE012801D000200490049805B0F0BDB8
:102F20006FF005007047DFF84C1008680228704702
:102F300010B500F015F804BFEFF31081002905D19A
:102F400000F012F805D1EFF3118111B16FF0050413
:102F500003E0002408B100F0F6FE204610BD002575
:102F6000EFF3058100297047024A11680229704772
:102F700000000000CC5600200446EFF30580002836
:102F800070477CB50E461446FFF7E9FF04BFEFF328
:102F90001081002944D1FFF7E7FF03D1EFF311813E
:102FA00000293DD100283BD0B04239D344B1E2687A
:102FB000A16819B1502A33D3012102E0002A2FD190
:102FC0000021012819D1012908D1032000900022F5
:102FD000A3680021012001F0A1F902E0032201F021
:102FE000CDF905001CD0A6B100F01CF8012810D0C6
:102FF000284601F0A7FB002512E0012904D1A268B0
:10300000314601F0F2F902E0314601F008FA05001C
:1030100006D0002C14BF21680021284601F02AFCAC
:10302000284676BD00230022002101F00FBA084B8C
:10303000036003F15C000860802111607047054B5C
:10304000036003F15C0008604FF480711160704709
:1030500024450020C84000202DE9FC47040016D07C
:103060002078DFF8C874C10713D5B86800F00C00E9
:10307000042807D0B86800F00C00082842D178680E
:1030800041023FD53868810303D56068002800F00D
:103090003C812078DFF8A494810719D5B86810F036
:1030A0000C0F07D0B86800F00C00082846D17868EB
:1030B000410243D43868810703D5E068012840F015
:1030C00024813968206921F0F80141EAC0013960A2
:1030D0002178DFF86C84080766D56069DFF864142E
:1030E000002853D001220A60FDF782FE0546D8F879
:1030F0000400810758D4FDF77BFE401B0228F6D957
:10310000032005E16168B970606858B1FDF770FE91
:10311000054639688803BCD4FDF76AFE401B652864
:10312000F7D3EDE7FDF764FE054639688803B0D5AF
:10313000FDF75EFE401B6528F7D3E1E7E068B0B11C
:103140000122C9F80020FDF753FE054639688807BB
:1031500005D4FDF74DFE401B0228F7D9D0E73868AB
:10316000216920F0F80040EAC1003860B0E7002291
:10317000C9F80020FDF73CFE054638688107A7D551
:10318000FDF736FE401B0228F7D9B9E70860FDF7C6
:103190002FFE0546D8F80400810705D5FDF728FE67
:1031A000401B0228F6D9ABE72078410751D5386C8F
:1031B0000025C1000BD4002000900125396C41F09E
:1031C00080513964386C00F0805000900098DFF82E
:1031D0007863306840F4807030603168CA0510D47C
:1031E000306840F480703060FDF702FE824630683F
:1031F000C10506D4FDF7FCFDA0EB0A000228F6D9B4
:103200007EE7A16888F8001041F28936A06868B1AD
:10321000FDF7EEFD8246D8F80010880714D4FDF7BC
:10322000E7FDA0EB0A00B042F5D369E7FDF7E0FD4A
:103230008246D8F80000810706D5FDF7D9FDA0EB3E
:103240000A00B042F5D35BE71DB1386C20F0805026
:103250003864A06900285AD0B96801F00C01082927
:1032600037D0022829D100F055F805463868810189
:1032700005D5FDF7BDFD401B6528F7D340E7E269A2
:10328000206A616A0243A06A400842EA8112401E35
:1032900042EA0042E06A42EA00627A600121C9F82B
:1032A0006010FDF7A5FD0446386881012FD4FDF7B5
:1032B0009FFD001B6528F7D322E700F02BF804469A
:1032C0003868810123D5FDF793FD001B6528F7D3EE
:1032D00016E7012819D07868E16900F480028A4273
:1032E00002BF00F03F02216A8A420ED1636AC0F336
:1032F0008811994202BF00F44032A16A8A4202BF9B
:1033000000F07060E16A884201D0012000E00020F6
:10331000BDE8F6870020C9F86000FDF769BD2DE91A
:10332000F04104000F4652D0884E306800F00F0084
:10333000B84202D200F071F849D121687B4D88076C
:1033400012D5490703D5A86840F4E050A860217859
:10335000080703D5A96841F46041A960A968A0687D
:1033600021F0F0010143A9602178C80727D56068E2
:10337000012802D129688A0303E0022803D12968C1
:103380008A0103D423E02B68990720D5AA68920804
:1033900040EA8200A860FDF72BFD8046A9686068BE
:1033A00001F00C01B1EB800F09D0FDF721FDA0EB7E
:1033B000080041F289318842F0D303202BE03068C5
:1033C00000F00F00874204D200F027F801D001205E
:1033D00021E02178480705D5A968E06821F4E0518B
:1033E0000143A96021780A0706D5A868216920F45D
:1033F000604040EAC100A86000F05BF8AA68544948
:10340000C2F303128B5C4A49D84008604A480068FE
:1034100000F008FB0020BDE8F0813770316801F052
:103420000F01B942704770B586B00E461446494D3B
:10343000E8B90090A96A41F00101A9620221A86AD5
:1034400000F0010000904FF48070009A029101900A
:103450000021032203910591049201A93E48FEF741
:1034600027FB296821F0EC610E4326431EE0002073
:1034700000900222A96A41F00401A9624FF4007190
:10348000A86A00F004000090009B34480191029269
:103490000321049100220392059201A9FEF708FB83
:1034A000286820F07840064346EAC4062E6006B03D
:1034B00070BD30B52A4C606800F00C00042802D0C2
:1034C000082802D01DE0274830BD2268216800236B
:1034D000480202F03F0204D525682248C5F388114E
:1034E00003E021681348C1F38811A0FB010101F03A
:1034F0000BFA2168C1F30141491C4900B0FBF1F00E
:1035000030BD0C4830BD0A48124B00681A68164995
:10351000C2F3822206E006480E4B00681A68124980
:10352000C2F34232895CC840704700000038024054
:10353000480000200024F40044000020000047421E
:1035400070380240800E474200700040003C02404C
:10355000F45200080838024000000240000802400F
:103560000438024000127A007C540008FF2212EA5C
:10357000D05C1DBF12EAD153944593422BE09C448A
:10358000D30780EA010243EA002043EA01211A40FE
:10359000A1FB0030C04238BF00187CF17F010BDB7B
:1035A000FE294ADA5B0842EAC15153EA006373F12B
:1035B000004C51EB10207047D1F1080CDCF12001D8
:1035C0002FDB5B0810FA01F10B4320FA0CF073F1CA
:1035D00000415041704794451CBF02EAD1539342C9
:1035E00080EA010202F000421DD0400019D04900DB
:1035F00017D05BB9634514D00902B1FA81F3994041
:10360000BCEB030CC00140F00040C1E70002B0FA7F
:1036100080FC10FA0CF0B3EB0C0CC90141F0004136
:10362000B6E71000704740000AD0490008D010F1FA
:10363000807F94BF11F1807F02E042F0FF4070472D
:10364000D0437047C0F3C751D1F19E0108DD02029B
:1036500042F00042CA4002EBE07282EAE07070473A
:103660007FEAE07080F000407047000011F00043F6
:1036700003D54942404261F10001B1B1B1FA81F292
:1036800041409040C2F1200261FA02F181EA00005B
:1036900018BF40F0010002F19D01020643EAC1514A
:1036A00072F1004241EB1020704758B1B0FA80F23D
:1036B0009040C2F19D02010643EAC25271F10041FD
:1036C00042EB102070470000A9B1B1FA81F24140ED
:1036D0009040C2F1200261FA02F181EA000018BFB5
:1036E00040F0010002F19D01C905020672F100429D
:1036F00041EB1020704750B1B0FA80F29040C2F117
:103700009D02D205010671F1004142EB1020704785
:10371000431A4FF000423EBF5340C01AC918D309A4
:103720005FEAD05C13EB400F34BFB3EB410F40E0D6
:103730007CEBD1530CD342EA012122D8D1EB4020BB
:1037400009D3400A28BF5FEA500140EBCC507047D4
:10375000401A15D04002B0FA80F2521C9040400A44
:103760004FEA3C23B3EB026384BF00EB730007E036
:1037700040F400001A16DB07C2F10102D0401843E2
:103780007047182BFCDC31FA03F202FA03F3591AE2
:1037900038BF42F00102D2EB40203CBF0018ACF130
:1037A000010C5FEACC5CC20572F100414CEB502089
:1037B000704713EB400F0FD2C94209D0ACEBD15385
:1037C000022B03DB4902172BDDDD70479143401AC2
:1037D000C042D5D10020704713EB410FD0D36FF01A
:1037E0000000704790EA010F7FF592AF81F0004131
:1037F000421A3CBF801A8918C0F3C752FF2A4FF003
:10380000004C22D0C1F3C7534BB3D21AD2F11903E3
:103810002EDD4CEA01214CFA03F321EA0303D140E7
:103820004CEA00226FF3160052180FD353EAC2532A
:103830004CEA520273EB0C0C50EB1220420012F1D6
:10384000807F38BF70476FF31600704753EA0263FA
:1038500022EA0C0273EB0C0C50EB12207047490269
:1038600012BF9A4200EB5120EFE7D2F11703D2D5F5
:10387000704700004FF40002C10D23D0FF2929D268
:1038800030EAC15010437D31490828BF001880003C
:103890004FF0C073B0F1906006D452080ED2C01A37
:1038A0009B18D2EB4000F8D5520806D2C0189B1ADC
:1038B000D2EB4000F1D55208F8D35B1E580850EB0C
:1038C000C1507047B0FA80F108398840F9D0D1F181
:1038D0000101D8E7FF2914BFC042F2E7D042F0D877
:1038E000C843AFF30080704710F0004C68B148BF88
:1038F0004042B0FA80F18840D1F19D014CEAC15CB0
:10390000010671F100414CEB102070474FF0FF0CA5
:103910001CEAD0531DBF1CEAD1526345624543E007
:103920009B1A5FEACC7280EA010C42EA01211CEA90
:10393000020C42EA0020421A38BF01EB420253F166
:103940007E034FEA1121B2FBF1F001FB102260F37C
:10395000D63C4FEA0222B2FBF1F001FB102260F3E9
:10396000CE1C4FEA0222B2FBF1F006DDFF2B29DA72
:103970005CEA500040EBC3507047C3F1020301FB07
:103980001022192B40EA4C010CF0004C41F08071E0
:1039900021DC21FA03F0C3F120039940114371F1B6
:1039A000004250EB0C00704763451ABF0CEAD1523D
:1039B000624512E080EA010C00180CF0004C06D0C1
:1039C00049181AD10CF0004C4CF0FF407047C94226
:1039D00008BF6FEA020C60467047634506D1B2EB40
:1039E0000C02F5D001F00041484070474A0212BF76
:1039F0000846484000F0004070474AB90902B1FA51
:103A000081F2914043B19B18C00140F0004092E721
:103A1000C90141F0004152420002B0FA80F39840DF
:103A2000D31A88E738B50D4D0D4A297804464FF46E
:103A30007A731068B3FBF1F1B0FBF1F0FEF71BF8FD
:103A400050B9102C08D2002221464FF0FF30FDF76C
:103A5000E8FFAC60002032BD012032BD3C000020F8
:103A60004800002062F30F2262F31F4200B500BF3E
:103A7000130096469446103928BFA0E80C50FAD897
:103A80005FEA417C28BF0CC048BF40F8042BC9073F
:103A900028BF20F8022B48BF00F8012B00BD70475B
:103AA00070477047704770477047704710B50446BD
:103AB00000F016F8204610BD31B5FDF799F9009DCC
:103AC00015F1010F044602D0044908784519FDF7A5
:103AD0008FF9001BA842FAD331BD00BF3C00002083
:103AE0004AB1000011F8013B521E00F8013B1CBF17
:103AF00011F8013BF8E77047F8B507460C460F4D43
:103B000001224FF480712846FEF7BAF80A4E0122CE
:103B100000F018F84FF47A73224639460848FEF749
:103B2000BDF9002200F00EF82846BDE8F84000225A
:103B30004FF48071FEF7A4B8000002400008024074
:103B4000445200204FF480613046FEF799B80000DF
:103B5000F0B585B050260B9D25B986F3118800F08D
:103B600044FAFEE70C9C24B986F3118800F03DFA74
:103B7000FEE75C270097DDF800E0BEF15C0F04D0A3
:103B800086F3118800F031FAFEE72563002702254D
:103B900084F8595004AE0A9D03970294019600954B
:103BA00000F034F8204600F078F8049805B0F0BD35
:103BB0002DE9F8430646174684B088469946B80072
:103BC00000F026FF04001CD05C2000F021FF05005F
:103BD00014D000212C6385F85910039102950D999A
:103BE0000C98019100904B463A464146304600F011
:103BF0000DF8284600F051F8012004E0204600F0BE
:103C00008BFF4FF0FF3005B0BDE8F0832DE9F047A2
:103C10000A9D80460C461746286B9946A522B90096
:103C2000FFF720FF296B01EB8702171FFF08FF003A
:103C30000021635C6A1882F83430605C10B1491C62
:103C40001029F6D3089E002085F84300372E88BF40
:103C50003726099CEE6205F14C0ACAF80400CAF83E
:103C60000060281D00F0B3FF05F1180000F0AFFF61
:103C70002D61C6F13806AE616D620021CAF80810E8
:103C800000208AF80C004A464146384600F0DCFF26
:103C9000286004B12560BDE8F0872DE9F04100F00F
:103CA00068F8DFF87855DFF87885E86C401CE86440
:103CB0001426A86A28BBAC62E86C012829D1002729
:103CC00006FB07F0404400F075FF7F1C382FF7D348
:103CD00005F1740000F06EFF05F18807384600F02A
:103CE00069FF284600F066FF05F1140000F062FF4E
:103CF00005F1380000F05EFF05F17400E8622F6303
:103D000007E0A86D28B9E06AAA6AD16A884228BF8C
:103D1000AC62AA6EE06A521C6264696D814238BF6F
:103D20006865AA664643211D08EB060000F052FFB5
:103D300000F0FBFFA86D20B100F09DF901D200F06A
:103D40004FF9BDE8F08180B580B1DFF8D024116F64
:103D500021B100F02FF900F048F9FEE7136F5B1C6A
:103D6000136700F069FA00F044F808B900F038F978
:103D700001BD044600F0C0BF80B586B000210591AA
:103D8000049103AA04A905A8FFF751F9059A04991B
:103D900002920020019100900023039A0FF2FC414F
:103DA0000FF26530FFF7D4FE98B101F013F85021FF
:103DB000012810D181F3118800F017F9DFF8C80449
:103DC0004FF0FF31C166012282650021016500F0DC
:103DD00059FF07B000BD10F1010FFAD181F311882E
:103DE00000F003F9FEE7DFF8A014086F401C086735
:103DF000704770B5DFF82464306F0024002520B9C7
:103E000000F043F800F0F1F8FEE700F075FF306FC6
:103E1000401E3067306F002836D1F06CD0B933E0E7
:103E2000F068C46800F035F800F0BFF9E36A706D1F
:103E3000984238BF73651422DFF850045343211DA4
:103E4000184400F0C7FEE06AB26AD16A884224BF13
:103E50000122326630680028E2D10CB100F08BF903
:103E6000F46D44B100F01DF808B101203066641E05
:103E7000F8D10020F065306E30B1DFF814044FF057
:103E80008051012500F0B0F8CCE1502181F3118878
:103E9000704704F1180000F0C3BEDFF8EC03006DBA
:103EA00070472DE9F843DFF87463306F0025002870
:103EB0004FD1346D641C346510D1F06A006820B1B4
:103EC000FFF7E3FF00F091F8FEE7F16A306BF06274
:103ED0003163706E401C706600F04DF9F06EDFF8D3
:103EE000AC8384424FF0140927D31FE0F16AC868FD
:103EF000C768786884422AD3381D00F091FEB86AFA
:103F000018B107F1180000F08BFEF86A716D81425C
:103F100038BF706509FB00F0391D404400F05AFEBF
:103F2000F86AB26AD16A884228BF0125F06A00683F
:103F30000028DBD14FF0FF31F166B06AC06A09FB9F
:103F400000F958F80910022906D3012504E0F066AB
:103F5000F3E7F06D401CF065306E00B10125284696
:103F6000BDE8F28310B5DFF8B422106F10B1012163
:103F7000116610BD1066DFF81443506D00E0401E5E
:103F800014234343E15831B90028F8D100F012F866
:103F900000F02BF8FEE7E1184B685C684C6001F11B
:103FA00008039C4204BF64684C604B68D968916206
:103FB000506510BD502080F31188704710B50C4635
:103FC00020B9FFF7F7FF00F010F8FEE700F027F840
:103FD00000F00DFE2046BDE81040FFE701212BE177
:103FE000DFF8AC024FF080510160BFF34F8FBFF399
:103FF0006F8F704738B50D46144620B9FFF7DAFFCA
:10400000FFF7F3FFFEE700F00AF800F0E3FD0CB164
:104010004FF0FF3521462846BDE834400CE1DFF87B
:1040200068329A6A02F11801704738B5C068C468EE
:1040300024B9FFF7BFFFFFF7D8FFFEE7FFF729FF1F
:10404000DFF84452286F40B900F0AFF800F018F8DC
:1040500038BF6A6500F0EAF802E004F1180128466A
:1040600000F0B8FD00F007F803D201212966012015
:1040700032BD002032BDA96AE26AC86A9042704728
:10408000E26A686D90427047DFF8FC21516E016072
:10409000126D42607047F8B504460D46502024B9B1
:1040A00080F31188FFF7A1FFFEE725B980F311889F
:1040B000FFF79BFFFEE700F01FFEDFF8CC01D0F812
:1040C00050C02B68616813F1010FACEB01020DD0F9
:1040D000466E2768BE4201D08C450BD29A4207D269
:1040E0009A1A2A60416E2160006D6060002402E02F
:1040F00000202860012400F018FE2046F2BDDFF801
:10410000880101210166704770B5454CDFF8785190
:1041100011E000F0F1FD286AC668301D00F080FD56
:10412000E86C401EE864686B401E686300F0FDFDAB
:10413000304600F009F8686B0028EAD12268022AAC
:10414000F9D3FFF74DFFF6E710B5044694F8590090
:1041500040B9206B00F0E0FC2046BDE8104000F0C4
:10416000DBBC10BD0128F7D00228FAD0FFF722FFF0
:10417000FFF73BFFFEE72949C86A006818B94FF00E
:10418000FF32CA667047CA6AD068C2685068C8669B
:104190007047DFF8F410886D08B901207047086F88
:1041A00008B90220704700207047201D00F038BD7C
:1041B00038B50446002134B3DFF8CC50A86A502249
:1041C000844204D082F31188FFF70FFFFEE7206DD1
:1041D00020B982F31188FFF708FFFEE7E36AE26C7B
:1041E000401E934220650ED068B9FFF7DEFFE06CF9
:1041F000E062C0F13800A061FFF742FF38BF6A6596
:1042000000F003F80121084632BD1420DFF87C30AD
:104210004243211D981800F0DDBC0000E052002050
:10422000683C002000F081FD284670BD1420174B2B
:104230004243211D98187047F8B5134E376D0C4650
:10424000B16A0546081D00F0EBFC15F1010F05D120
:1042500024B1B06A011D06F138001BE0B06AED1907
:104260004560BD42B06A05D2011D306BBDE8F44027
:1042700000F0BDBC011DF06A00F0B9FCF06E854293
:1042800038BFF566F1BD0000E0520020683C002018
:1042900004ED00E0BDE8F44000F09CBC49444C450E
:1042A0000000000038B504000D4602D100F095F87A
:1042B000FEE700F021FDE16B206C226841435018BD
:1042C00060600021A1632068E16BA060491E206C42
:1042D000226841435018E06004F144014FF0FF3080
:1042E0000870487075B92069A0B104F11000FFF79B
:1042F0009CFE78B1DFF8C0054FF08051016000F0FE
:1043000008FA07E004F1100000F054FC04F1240066
:1043100000F050FC00F009FD012032BD7CB51C46C8
:10432000502320B983F3118800F0F3F9FEE724B994
:1043300083F3118800F0EDF9FEE72AB129B983F380
:10434000118800F0E6F9FEE771B950250095009E4E
:10435000502E0ED134B1069B012584F846500094AE
:1043600000F02BF8204676BD83F3118800F0D1F9D8
:10437000FEE783F3118800F0CCF9FEE7F8B50400FE
:104380000D46174602D100F028F8FEE7002D0EBFBB
:10439000502005FB04F0503000F03AFB06000AD034
:1043A000002086F8460000963B4606F1500229465A
:1043B000204600F002F83046F2BD38B5049C1D4698
:1043C00000290CBF24602260E063216420460121A3
:1043D000FFF768FF84F84C5031BD502080F31188FE
:1043E000BFF34F8FBFF36F8F704738B50C4613463E
:1043F000502120B981F3118800F08BF9FEE7A0422B
:1044000004D281F3118800F084F9FEE702250095BB
:1044100000220021FFF782FF00B1846332BD10B596
:104420000C46502120B981F3118800F072F9FEE7A3
:10443000A04204D281F3118800F06BF9FEE702225A
:104440000021FFF79BFF00B1846310BD2DE9F64703
:1044500082B004461E46502714B900F058F9FEE712
:104460005FEA010A01D1206C60B9022E02D1E06B33
:1044700001280AD1FFF78DFE50B9039840B100F032
:1044800046F9FEE700F043F9FEE700F040F9FEE7E9
:10449000274600244FF08058DFF81C942EE0039844
:1044A00000284BD014B900F043F9012400F03DFC82
:1044B000FFF799FC00F020FC07F1440000F03BF905
:1044C00004BF0021017000F02EF904BF00214170EB
:1044D00000F02BFC00F04DF8002844D100F00CFC5B
:1044E000B96BF86B814214BF0025012500F01DFC5B
:1044F00045BB384600F07FF9FFF77BFC00F0FCFB82
:10450000B96BF86B814201D3022EC8D132465146B5
:10451000384600F028F9796A29B107F12400FFF73D
:1045200084FD08B904E018B1C9F8008000F0F1F882
:1045300000F0FBFB012004B0BDE8F08700F0F5FBC4
:104540000020F8E7039907F11000FFF737FD384620
:1045500000F051F9FFF74DFC0028CFD1C9F80080D9
:1045600000F0D7F8CAE7384600F045F9FFF741FCFC
:10457000E6E703A96846FFF78EBD2DE9F843044638
:10458000884615461E46502714B900F0C0F8FEE7CD
:10459000B8F1000F01D1206C38BB022E02D1E06BC4
:1045A000012825D100F0E8FBEFF3118900F0AFF806
:1045B000A16BE06B814201D3022E21D194F94570A9
:1045C00032464146204600F0CEF817F1010F12D1D5
:1045D000606A98B104F12400FFF727FD002818BF96
:1045E000002D0BD00120286008E000F090F8FEE7D5
:1045F00000F08DF8FEE77F1C84F84570012000E094
:10460000002089F31188BDE8F2832DE9F7430646BF
:104610000F460024502526B985F3118800F079F85B
:10462000FEE70FB9306C48B9FFF7B3FD78B90298CF
:1046300068B185F3118800F06CF8FEE785F3118806
:1046400000F067F8FEE700F07BF8FFF7D2FB00F020
:1046500053FBB56BDFF86092002D4FF0805832D1DC
:104660000298002845D014B900F062F8012400F047
:104670005CFBFFF7B8FB00F03FFB06F1440042573C
:1046800012F1010F04BF0021017000F04CF804BFCB
:104690000021417000F049FB02A9FFF76BFF0028E1
:1046A00030462AD100F0DBF80028CCD000F036F8F4
:1046B00000F046F8FFF79DFB0028C8D1C9F800803C
:1046C00000F027F8C3E73946304600F080F86D1E49
:1046D000B563306940B106F11000FFF7A6FC18B1D0
:1046E000C9F8008000F015F800F01FFB0120BDE8BC
:1046F000FE8300F01AFB0020F9E700F07CF8FFF7DA
:1047000078FB304600F0ABF80028A0D0F3E787F341
:104710001188BFF34F8FBFF36F8F7047029906F177
:104720002400FFF74BBC90F9012012F1010F7047F4
:104730006846FFF7A9BC90F9002012F1010F7047FD
:10474000304658E010B5040002D1FFF746FEFEE700
:1047500000F0A0F894F8460020B92046BDE81040CB
:1047600000F0DAB910BDF8B506461546B46B326CE8
:10477000002742B9306830BB7068FFF719FD00218F
:10478000074671601FE065B9B068FFF7A9F9B16825
:10479000306C08447168B060884214D33068B060EF
:1047A00011E0F068FFF79CF9306CF2684042024477
:1047B000F26031688A4202D272681044F060022DC1
:1047C00001D104B1641E641CB4633846F2BD026CAE
:1047D000002A0B4600D1704710B5C46841681444E4
:1047E000C4608C4224BF0468C460C168BDE8104046
:1047F0001846FFF775B9F8B5054600F07DFA05F1E2
:10480000440494F9016007E005F12400FFF70DFC72
:1048100008B1FFF774FC761E70B2012802DB686AEB
:104820000028F1D14FF0FF36667000F07EFA00F0FC
:1048300063FA94F9007007E005F11000FFF7F5FB4B
:1048400008B1FFF75CFC7F1E78B2012802DB286903
:104850000028F1D12670BDE8F14000F066BA10B52D
:10486000044600F049FAA06B441EA44100F05DFA32
:10487000E00F10BD10B50024104B53F834201AB1CE
:10488000641C082CF9D310BD43F8341003EBC401A9
:10489000486010BD10B50023084901EBC3025468FD
:1048A000844203D05B1C082BF7D310BD002041F8D5
:1048B0003300506010BD000004ED00E08C56002075
:1048C000F8B504460D46164600F016FA04F138070E
:1048D00097F90C1011F1010F04BF0020387397F9FC
:1048E0000D1011F1010F04BF0020787300F01DFAC4
:1048F000386828B93246294604F12400FFF77AFBCC
:104900002046BDE8F24076E7D3BBD9B1B2F5803F8F
:104910005BD2022A1ED98C46B1FBF2F102FB11C315
:104920001B0443EA1043B3FBF2FC02FB1C3380B2CE
:1049300040EA0343B3FBF2F002FB103240EA0C40C2
:1049400000237047022A05D98446B0FBF2F002FB2F
:1049500010C270474AB105D100F0010249085FEA70
:104960003000704700220023704700F0C3BB0B00EB
:104970000200002100207047F7D300220023704777
:10498000904271EB030CF2D370B5B1FA81F4B3FA33
:1049900083F52C1BA340C4F1200532FA05F63343FE
:1049A000A2405FF00046E64002E05B085FEA3202A8
:1049B000841A71EB030524BF204629467641F4D3BF
:1049C00002000B003000002170BD70B5B1FA81F417
:1049D000B2FA82F5C4F120046419B4F12006DAD3E6
:1049E000B2405FF00044F440002502E052085FEA64
:1049F0003303C61A71EB020E24BF30467146644180
:104A00006D41F3D302000B002000290070BD0000AF
:104A10002DE9F8430446FFF7E6F9654FB8684FF013
:104A20000008002508BB07F1180307F1180013F070
:104A3000070F4FF47052014605D0C11DC908C900C7
:104A4000C1F57053C2185218083AD208D200396022
:104A50007D60BA6055601560531A4B600A60486803
:104A60003861F8604FF0004078614FF05009786984
:104A7000044241D1002C3FD0083414F0070F04D079
:104A800004F1080104F007000C1AACB3F868A04266
:104A900032D33E68394601E0314606467068A0428E
:104AA00002D230680028F7D1B868864224D00A685C
:104AB0003068086002F108087268121B112A0CD3D2
:104AC000311911F0070002D000F01FF8FEE7301D89
:104AD00002517460084600F046F87168F8683A6957
:104AE000401AF860904288BF1046386178690143E7
:104AF0007160356008F00705FFF77BF915B100F02C
:104B000004F8FEE74046BDE8F28389F31188BFF35D
:104B10004F8FBFF36F8F7047002800D1704738B5B3
:104B2000A0F10804224D6368696950220B4204D148
:104B300082F31188FFF7EBFFFEE7206820B182F3D4
:104B40001188FFF7E4FFFEE78B436360FFF74BF943
:104B5000E96860684118E960204600F004F8BDE8A3
:104B60003140FFF746B930B511490A4600E01A4610
:104B700013688342FBD35368D418844203D140683E
:104B8000C3185360104643681468C518A54208D17D
:104B900089688C4204D06168CB184360246800E0C7
:104BA0000C460460824218BF106030BD0000000057
:104BB000500000204FF0FF3200F108018260416098
:104BC000C16000F10802026100210160704700210C
:104BD0000161704710B542684A6094688C609368C0
:104BE0005960916008610168491C016010BD30B5D1
:104BF0000D6815F1010F08BF046907D000F1080422
:104C000000E01C4663681A689542FAD262684A60FE
:104C100091608C60616008610168491C016030BD71
:104C200010B5426801698368936082684368536085
:104C30004C68844204BF83684B60002202610868AC
:104C4000401E0860086810BD490810B54900A0F171
:104C50000C034FF0807459609C600FF20D011960D5
:104C600040F8202D203810BD544A5168502011F1D1
:104C7000010F80F31188BFF34F8FBFF36F8F00D008
:104C8000FEE7FEE71CB54E494C4C08780190FF2327
:104C90000B7007200A788DF800209DF8002002F0A4
:104CA0005002227005E09DF800205200401E8DF851
:104CB00000209DF800301A06F5D4424212F1030F8D
:104CC00003D0A06000F050F8FEE7000200F4E060BE
:104CD000A060019808703B48026842F470020260CC
:104CE000016841F07041016000F006FA0020606048
:104CF00000F049FA002016BD502080F31188BFF360
:104D00004F8FBFF36F8F2D4A5168491C01295160A5
:104D10000AD12D4B1A68110606D080F31188BFF313
:104D20004F8FBFF36F8FFEE770472449486838B94B
:104D3000502080F31188BFF34F8FBFF36F8FFEE7D2
:104D4000401E486008BF80F31188704780B500F0AE
:104D50000BF8FFF7A6F818B11B484FF0805101601F
:104D6000002282F3118801BD502080F31188BFF327
:104D70004F8FBFF36F8F7047EFF305825020102ADB
:104D80000E490BD3114B9B5C0A78934206D280F3F9
:104D90001188BFF34F8FBFF36F8FFEE789680C4B0D
:104DA0001A6802F4E062914206D280F31188BFF3E0
:104DB0004F8FBFF36F8FFEE7704700003000002079
:104DC00000E400E020ED00E004ED00E0F0E300E0AE
:104DD0000CED00E010B586B000F058F9DFF8FC42A9
:104DE000A068C0B100220592049204A903AA05A8F4
:104DF000FEF725F9059A049902920220019100908C
:104E00000023039A0FF2DC210FF27100FEF7A0FEDF
:104E10000028E06005D1502181F3118800F017F9D6
:104E2000FEE7012006B010BD2046BDE8F681F8B5CA
:104E3000044684B01E46002014B900F005F9FEE7D0
:104E4000DFF89872BD68BDB1062900910192029405
:104E50000CDAFFF79EF9022807BF0A9A0023002305
:104E60000022B8686946FFF7F1FA05E000233246F0
:104E700069462846FFF781FB05B0F0BDF8B586B05E
:104E8000964D2968086810B90124002602E0C86818
:104E900006680024FEF7A7FF01A800F09AF807466D
:104EA0000198002839D124BBB74227D3FEF7A1FFD0
:104EB0002968C868C468201DFFF7B2FEE0690128B0
:104EC00010D1A16933463A468919204600F0C4F84A
:104ED00040B1002000900023324600212046FFF719
:104EE000A6FF18B1616A204688471FE000F0ACF8C1
:104EF000FEE769680868441EA441E40FA8682246DA
:104F0000F11BFFF7DDFCFEF774FF78B974484FF032
:104F10008051016000F09BF808E0FEF76AFF05E0B1
:104F2000034602460918204600F096F8A8680022B9
:104F300002A9FFF76AFB0028A3D00298002803D536
:104F400005990498039A904702980028EED4049C8F
:104F5000606910B1201DFFF763FE01A800F039F869
:104F600002990929E2D8DFE801F0151515050E06AA
:104F70001515050EDAE794F82C000028D6D1204646
:104F8000FFF7CAFDD2E70399A1610029C8D100F05B
:104F90005BF8FEE703990246A0690B4641182046DC
:104FA00000F05AF80028C1D0616A20468847E269BB
:104FB000012ABBD1002000900023039AA069821827
:104FC00000212046FFF733FF0028AFD100F03CF866
:104FD000FEE72DE9FC410646404DFEF75EFF2969DC
:104FE00004468C4209D3002030602C611CE77860B5
:104FF0003F61391D2868FFF7FAFD29680868E8B1A4
:10500000C868D0F80080C768381DFFF709FE796AC4
:1050100038468847F8690128EFD1B869404480458F
:10502000E5D3002000900023424600213846FFF7D8
:10503000FEFE0028E1D100F007F8FEE7686869602D
:10504000286001213160D0E7502080F31188BFF340
:105050004F8FBFF36F8F704738B500248A4241608D
:1050600000611E4D06D38169D21A8A4206D2011D03
:10507000686807E09A4203D2994201D3012403E011
:10508000011D2868FFF7B3FD204632BD1CB5FFF7B0
:1050900033FE124CA068E0B904F11400FFF78AFD5A
:1050A00004F12800FFF786FD04F1140204F1280141
:1050B000002022606160009004F13C0304F18C0246
:1050C00010210A20FFF72AF9A06010B107A1FFF70D
:1050D000D1FBBDE81340FFF728BE0000D44B0020F1
:1050E00004ED00E0546D722053766300546D7251EC
:1050F00000000000704700000748084B00220260D3
:10510000002181604FF47A711A68B2FBF1F1491EF7
:10511000416007220260704710E000E04800002074
:10512000EFF30980BFF36F8F1D4B1A6820E9F00F72
:10513000106008B54FF0500080F31188BFF34F8F17
:10514000BFF36F8FFEF70EFF4FF0000080F3118862
:10515000BDE8084019680868B0E8F00F80F30988D6
:10516000BFF36F8F70470E4B19680868B0E8F00FF7
:1051700080F30988BFF36F8F4FF0000080F3118830
:105180004EF00D0E704707480068006880F30888ED
:1051900062B661B6BFF34F8FBFF36F8F00DF0000C1
:1051A0000853002008ED00E0505400080000000003
:1051B00000000000000000000000000000020000ED
:1051C0000800000000000000000000005C5400081F
:1051D00000000000000000000000000000000000CF
:1051E00000020000080000000000000000000000B5
:1051F00064540008000000000000000000000000EF
:10520000000000000008000008000000000000008E
:1052100000000000845400080000000000000000AE
:105220000000000000000000002000001800000046
:105230000000000000000000FEE7FEE7FEE7FEE7DA
:10524000FEE7704780B500F02BF8FEF7A2FF0128BB
:1052500003D0BDE80140FFF779BD01BD0420FCF794
:1052600013BD0948FBF78CBE0848FBF789BE084808
:10527000FCF7C6BE0748FDF7BEB80748FBF780BE7F
:105280000648FBF77DBE00003C5400209C540020E3
:1052900044520020845200207C530020DC53002024
:1052A000024A516810784118516070473C00002054
:1052B00010B50C490C4C086840F001000860002350
:1052C0008B600A68094802400A604C6000220B6843
:1052D000074823F480230B60CA604FF0006101602F
:1052E00010BD00000038024010300024FFFFF6FE21
:1052F00008ED00E0000000000000000001020304CF
:105300000607080980004000200010000800800007
:1053100002000100000C0240000C0240000C0240A0
:10532000000C0240000C024000040240000C02404D
:10533000000C024000000000AAAAAAAA0000000077
:105340000100000000000000100000000024F40034
:10535000FF00000030B4002412E050F8043BDA07EC
:1053600044BF4B445B1E091F042943F8044BFAD287
:105370001A468D0744BF1C80921CCB0748BF14708F
:1053800050F8041B0029E8D130BC704710B5034A1F
:105390007A440832024C7C44A41D03E01C00000047
:1053A0003C00000004E01168101D114488470246CB
:1053B000A242F8D110BD00009DFFFFFF84560000FF
:1053C00050000020000000001BC9FFFF500000003B
:1053D00034FFFFFF000000200000000000F00DF887
:1053E000002801D0FFF7D2FFAFF300800020AFF319
:1053F0000080FBF7C5FE00F002F80120704700F0C6
:1054000001B800000746384600F002F8FBE700004C
:1054100080B5AFF30080024A11001820ABBEFBE755
:10542000260002000548014603B4684680F3098857
:10543000AFF30080AFF30080FFF7D0FFA5EDF5FEDE
:105440000148804701480047B15200082554000830
:105450004144435F64617461000000006D6F6462E9
:1054600075730000466C617368000000666C6173C0
:1054700068000000524D535F61646300000000004B
:1054800001020304524D530041444300FFF7FEBFA5
:10549000FFF7FEBFFFF7FEBFFFF7FEBFFFF7FEBF40
:1054A000FFF7FEBFFFF7FEBFFFF7FEBFFFF7FEBF30
:1054B000FFF7FEBFFFF7FEBFFFF7FEBFFFF7FEBF20
:1054C000FFF7FEBFFFF7FEBFFFF7FEBFFFF7FEBF10
:1054D000FFF7FEBFFFF7FEBFFFF7FEBFFFF7FEBF00
:1054E000FFF7FEBFFFF7FEBFFFF7FEBFFFF7FEBFF0
:1054F000FFF7FEBFFFF7FEBFFFF7FEBFFFF7FEBFE0
:10550000FFF7FEBFFFF7FEBFFFF7FEBFFFF7FEBFCF
:10551000FFF7FEBFFFF7FEBFFFF7FEBFFFF7FEBFBF
:10552000FFF7FEBFFFF7FEBFFFF7FEBFFFF7FEBFAF
:10553000FFF7FEBFFFF7FEBFFFF7FEBFFFF7FEBF9F
:10554000FFF7FEBFFFF7FEBFFFF7FEBFFFF7FEBF8F
:10555000FFF7FEBFFFF7FEBFFFF7FEBFFFF7FEBF7F
:10556000FFF7FEBFFFF7FEBFFFF7FEBFFFF7FEBF6F
:10557000FFF7FEBFFFF7FEBFFFF7FEBFFFF7FEBF5F
:10558000FFF7FEBFFFF7FEBFFFF7FEBFFFF7FEBF4F
:10559000FFF7FEBFFFF7FEBFFFF7FEBFFFF7FEBF3F
:1055A000FFF7FEBFFFF7FEBFFFF7FEBFFFF7FEBF2F
:040000050800542576
:00000001FF
