:020000040800F2
:10000000C0C60020D11F0108811C0108831C010803
:10001000851C0108871C0108891C010800000000DC
:10002000000000000000000000000000F3F80008DD
:100030008B1C010800000000ADF800088D1C0108B1
:10004000C9200108CD200108D1200108D5200108D0
:10005000D9200108DD200108E1200108E520010880
:10006000A51C0108E9200108ED200108F120010884
:10007000F5200108F9200108AB1C0108B11C01089A
:10008000FD200108012101080521010809210108BD
:100090000D2101081121010815210108192101086C
:1000A0001D2101082121010825210108292101081C
:1000B0002D210108312101083521010839210108CC
:1000C0003D2101084121010845210108492101087C
:1000D0004D2101085121010855210108592101082C
:1000E0005D210108612101086521010869210108DC
:1000F0006D2101087121010875210108792101088C
:100100007D2101088121010885210108892101083B
:10011000B71C01088D210108BD1C010891210108AF
:10012000C31C01089521010899210108C91C010877
:100130009D210108CF1C0108A1210108A52101086A
:10014000A9210108AD210108B1210108B52101084B
:10015000B9210108BD210108C1210108C5210108FB
:10016000C9210108CD210108D1210108D5210108AB
:10017000D9210108DD210108E1210108000000006A
:10018000E52101080B000B000C000C000D000D0018
:100190000D000E000E000F000F00100010001100E7
:1001A00011001200120013001300140014001500B7
:1001B00015001600170017001800180019001A0083
:1001C0001A001B001C001C001D001E001E001F004A
:1001D000200020002100220023002300240025000D
:1001E000260027002700280029002A002B002C00C9
:1001F0002D002E002E002F00300031003200330081
:100200003400350036003700380039003A003B0032
:100210003D003E003F0040004100420043004500D9
:1002200046004700480049004B004C004D004F007D
:1002300050005100530054005500570058005A0018
:100240005B005C005E005F006100620064006600AD
:10025000670069006A006C006E006F007100730037
:100260007400760078007A007B007D007F008100BA
:1002700083008500870088008A008C008E00900033
:1002800092009400970099009B009D009F00A100A0
:10029000A300A600A800AA00AC00AF00B100B30004
:1002A000B600B800BB00BD00C000C200C500C7005A
:1002B000CA00CC00CF00D100D400D700DA00DC00A7
:1002C000DF00E200E500E700EA00ED00F000F300E7
:1002D000F600F900FC00FF000201050108010C0115
:1002E0000F011201150118011C011F012201260135
:1002F00029012D013001340137013B013E0142014A
:10030000460149014D015101550158015C0160014F
:10031000640168016C017001740178017C01800145
:10032000840189018D01910196019A019E01A30129
:10033000A701AC01B001B501B901BE01C301C701FC
:10034000CC01D101D601DA01DF01E401E901EE01BE
:10035000F301F801FD01030208020D021202180266
:100360001D02220228022D02330238023E024402FC
:1003700049024F0255025A02600266026C02720282
:1003800078027E0284028A02910297029D02A402F0
:10039000AA02B002B702BD02C402CA02D102D80248
:1003A000DF02E502EC02F302FA02010308030F0385
:1003B00016031D0325032C0333033B0342034903A8
:1003C0005103590360036803700377037F038703B6
:1003D0008F0397039F03A703AF03B703C003C803AB
:1003E000D003D903E103EA03F203FB0304040C0482
:1003F00015041E0427043004390442044B04540439
:100400005E04670470047A0483048D049604A004D7
:10041000AA04B404BD04C704D104DB04E504F00459
:10042000FA0404050E05190523052E0538054305B4
:100430004E05590563056E05790584058F059B05F5
:10044000A605B105BC05C805D305DF05EB05F60516
:1004500002060E061A06260632063E064A0656060C
:1004600063066F067C0688069506A106AE06BB06E7
:10047000C806D506E206EF06FC060907170724079B
:1004800032073F074D075A07680776078407920728
:10049000A007AE07BC07CB07D907E707F607050893
:1004A00013082208310840084F085E086D087C08D0
:1004B0008C089B08AA08BA08CA08D908E908F908EC
:1004C00009091909290939094A095A096B097B09D6
:1004D0008C099C09AD09BE09CF09E009F109030A9D
:1004E000140A250A370A480A5A0A6C0A7D0A8F0A32
:1004F000A10AB40AC60AD80AEA0AFD0A0F0B220B9F
:10050000350B470B5A0B6D0B800B940BA70BBA0BDB
:10051000CE0BE10BF50B090C1C0C300C440C580CE9
:100520006D0C810C950CAA0CBE0CD30CE80CFD0CC8
:10053000120D270D3C0D510D660D7C0D910DA70D73
:10054000BD0DD20DE80DFE0D140E2B0E410E570EF3
:100550006E0E850E9B0EB20EC90EE00EF70E0E0F3C
:10056000260F3D0F550F6C0F840F9C0FB40FCC0F4F
:10057000E40FFC0F15102D1046105E107710901030
:10058000A910C210DB10F5100E11271141115B11DB
:1005900075118F11A911C311DD11F71112122C124F
:1005A000471262127D129812B312CE12EA1205138C
:1005B00021133C13581374139013AC13C813E51391
:1005C00001141E143B14571474149114AF14CC145A
:1005D000E91407152415421560157E159C15BA15EA
:1005E000D815F71515163416531671169016B01641
:1005F000CF16EE160E172D174D176D178D17AD1759
:10060000CD17ED170D182E184F186F189018B11838
:10061000D218F4181519361958197A199C19BE19D7
:10062000E019021A241A471A691A8C1AAF1AD21A38
:10063000F51A181B3B1B5F1B821BA61BCA1BEE1B5C
:10064000121C361C5A1C7E1CA31CC81CEC1C111D41
:10065000361D5C1D811DA61DCC1DF11D171E3D1EE6
:10066000631E891EB01ED61EFD1E231F4A1F711F4A
:10067000981FBF1FE71F0E2036205D208520AD206C
:10068000D520FD2026214E2177219F21C821F1214F
:100690001A2243226D229622C022EA2214233E23EC
:1006A00068239223BC23E72311243C24672492244B
:1006B000BD24E924142540256B259725C325EF2566
:1006C0001B2648267426A126CD26FA26272754273E
:1006D0008227AF27DD270A28382866289428C228D1
:1006E000F0281F294D297C29AB29DA29092A382A23
:1006F000682A972AC72AF62A262B562B862BB72B31
:10070000E72B182C482C792CAA2CDB2C0C2D3E2DF9
:100710006F2DA12DD22D042E362E682E9B2ECD2E80
:10072000002F322F652F982FCB2FFE2F32306530C0
:100730009930CC300031343168319C31D1310532BF
:100740003A326F32A332D9320E3343337833AE3379
:10075000E43319344F348534BC34F23428355F35F2
:100760009635CD3504363B367236A936E136183724
:1007700050378837C037F83731386938A138DA3818
:1007800013394C398539BE39F739313A6A3AA43AC6
:10079000DE3A183B523B8C3BC73B013C3C3C763C31
:1007A000B13CEC3C273D633D9E3DD93D153E513E5D
:1007B0008D3EC93E053F413F7D3FBA3FF73F334045
:1007C0007040AD40EA4028416541A241E0411E42EF
:1007D0005C429A42D842164354439343D243104456
:1007E0004F448E44CD440C454C458B45CB450B4680
:1007F0004A468A46CA460B474B478B47CC470D486B
:100800004D488E48CF48114952499349D549164A17
:10081000584A9A4ADC4A1E4B604BA24BE54B274C88
:100820006A4CAD4CF04C334D764DB94DFD4D404EBC
:10083000844EC74E0B4F4F4F934FD74F1C506050B5
:10084000A450E9502E517351B751FC514252875276
:10085000CC52125357539D53E35329546F54B554FC
:10086000FB5441558855CE5515565C56A356EA564D
:1008700031577857BF5706584E589658DD58255966
:100880006D59B559FD59455A8D5AD65A1E5B675B4D
:10089000B05BF85B415C8A5CD35C1C5D665DAF5D00
:1008A000F95D425E8C5ED55E1F5F695FB35FFD5F81
:1008B00048609260DC6027617161BC6107625262CE
:1008C0009D62E86233637E63C96314646064AB64F1
:1008D000F76443658F65DB6526667366BF660B67E5
:1008E0005767A467F0673D688968D66823697069AF
:1008F000BC690A6A576AA46AF16A3E6B8C6BD96B51
:10090000276C746CC26C106D5E6DAC6DFA6D486EC8
:10091000966EE46E326F816FCF6F1E706C70BB701D
:100920000A715871A771F67145729472E37232734D
:100930008173D17320746F74BF740E755E75AE755C
:10094000FD754D769D76ED763D778D77DD772D784B
:100950007D78CD781E796E79BE790F7A5F7AB07A1C
:10096000007B517BA27BF27B437C947CE57C367DD3
:10097000877DD87D297E7A7ECB7E1C7F6D7FBF7F71
:1009800010806180B38004815681A781F9814A82F9
:100990009C82ED823F839183E38334848684D88470
:1009A0002A857C85CE8520867286C48616876887D0
:1009B000BA870C885F88B18803895589A889FA8924
:1009C0004C8A9F8AF18A438B968BE88B3B8C8D8C6B
:1009D000E08C328D858DD78D2A8E7C8ECF8E218FA7
:1009E000748FC78F19906C90BE9011916491B691DD
:1009F00009925C92AF9201935493A793F9934C940C
:100A00009F94F19444959795EA953C968F96E2963B
:100A100034978797DA972C987F98D298249977996A
:100A2000CA991C9A6F9AC29A149B679BB99B0C9C9B
:100A30005F9CB19C049D569DA99DFB9D4E9EA09ED2
:100A4000F29E459F979FEA9F3CA08EA0E0A033A115
:100A500085A1D7A129A27BA2CEA220A372A3C4A361
:100A600016A468A4BAA40CA55EA5AFA501A653A6BA
:100A7000A5A6F6A648A79AA7EBA73DA88EA8E0A82A
:100A800031A983A9D4A925AA76AAC8AA19AB6AABA9
:100A9000BBAB0CAC5DACAEACFFAC4FADA0ADF1AD43
:100AA00042AE92AEE3AE33AF84AFD4AF24B074B0F5
:100AB000C5B015B165B1B5B105B255B2A5B2F4B2C4
:100AC00044B394B3E3B333B482B4D1B421B570B5B5
:100AD000BFB50EB65DB6ACB6FBB64AB798B7E7B7CA
:100AE00036B884B8D3B821B96FB9BDB90BBA59BA01
:100AF000A7BAF5BA43BB91BBDEBB2CBC79BCC6BC64
:100B000014BD61BDAEBDFBBD48BE94BEE1BE2EBFEF
:100B10007ABFC7BF13C05FC0ABC0F7C043C18FC1AE
:100B2000DBC126C272C2BDC209C354C39FC3EAC39C
:100B300035C480C4CAC415C55FC5AAC5F4C53EC6C0
:100B400088C6D2C61CC766C7AFC7F9C742C88BC81C
:100B5000D4C81DC966C9AFC9F8C940CA89CAD1CAB3
:100B600019CB61CBA9CBF1CB38CC80CCC7CC0FCD86
:100B700056CD9DCDE4CD2ACE71CEB8CEFECE44CF9B
:100B80008ACFD0CF16D05CD0A1D0E7D02CD171D1F4
:100B9000B6D1FBD140D284D2C9D20DD351D395D393
:100BA000D9D31DD461D4A4D4E7D42AD56DD5B0D57A
:100BB000F3D536D678D6BAD6FCD63ED780D7C2D7AC
:100BC00003D844D886D8C7D807D948D989D9C9D92C
:100BD00009DA49DA89DAC9DA08DB48DB87DBC6DB00
:100BE00005DC44DC82DCC1DCFFDC3DDD7BDDB9DD26
:100BF000F6DD34DE71DEAEDEEBDE27DF64DFA0DFA4
:100C0000DCDF18E054E090E0CBE007E142E17DE179
:100C1000B7E1F2E12CE267E2A1E2DAE214E34EE3AB
:100C200087E3C0E3F9E331E46AE4A2E4DBE412E53C
:100C30004AE582E5B9E5F0E527E65EE695E6CBE62E
:100C400002E738E76DE7A3E7D8E70EE843E878E87E
:100C5000ACE8E1E815E949E97DE9B1E9E4E917EA39
:100C60004AEA7DEAB0EAE2EA14EB46EB78EBAAEB5B
:100C7000DBEB0CEC3DEC6EEC9FECCFECFFEC2FEDE6
:100C80005FED8EEDBEEDEDED1CEE4AEE79EEA7EEDA
:100C9000D5EE03EF30EF5EEF8BEFB8EFE4EF11F03E
:100CA0003DF069F095F0C1F0ECF017F142F16DF113
:100CB00097F1C2F1ECF115F23FF268F292F2BAF25A
:100CC000E3F20CF334F35CF384F3ABF3D3F3FAF312
:100CD00020F447F46DF494F4BAF4DFF405F52AF542
:100CE0004FF574F598F5BDF5E1F504F628F64BF6E9
:100CF0006FF691F6B4F6D6F6F9F61BF73CF75EF709
:100D00007FF7A0F7C1F7E1F701F821F841F861F8A2
:100D100080F89FF8BEF8DCF8FBF819F937F954F9B8
:100D200072F98FF9ABF9C8F9E4F901FA1CFA38FA4B
:100D300053FA6EFA89FAA4FABEFAD8FAF2FA0CFB60
:100D400025FB3EFB57FB70FB88FBA0FBB8FBD0FBF1
:100D5000E7FBFEFB15FC2CFC42FC58FC6EFC84FC03
:100D600099FCAEFCC3FCD8FCECFC00FD14FD27FD97
:100D70003BFD4EFD61FD73FD85FD97FDA9FDBBFDAE
:100D8000CCFDDDFDEEFDFEFD0EFE1EFE2EFE3EFE4A
:100D90004DFE5CFE6AFE79FE87FE95FEA2FEB0FE69
:100DA000BDFECAFED6FEE3FEEFFEFBFE06FF11FF10
:100DB0001CFF27FF32FF3CFF46FF50FF59FF62FF39
:100DC0006BFF74FF7CFF85FF8CFF94FF9BFFA3FFED
:100DD000A9FFB0FFB6FFBCFFC2FFC8FFCDFFD2FF27
:100DE000D7FFDBFFDFFFE3FFE7FFEAFFEEFFF1FFE7
:100DF000F3FFF6FFF8FFF9FFFBFFFCFFFDFFFEFF2F
:100E0000FFFFFFFFFFFFFFFFFEFFFDFFFCFFFBFFFC
:100E1000F9FFF8FFF6FFF3FFF1FFEEFFEAFFE7FF50
:100E2000E3FFDFFFDBFFD7FFD2FFCDFFC8FFC2FF2D
:100E3000BCFFB6FFB0FFA9FFA3FF9BFF94FF8CFF91
:100E400085FF7CFF74FF6BFF62FF59FF50FF46FF79
:100E50003CFF32FF27FF1CFF11FF06FFFBFEEFFEEA
:100E6000E3FED6FECAFEBDFEB0FEA2FE95FE87FEE4
:100E700079FE6AFE5CFE4DFE3EFE2EFE1EFE0EFE5E
:100E8000FEFDEEFDDDFDCCFDBBFDA9FD97FD85FD65
:100E900073FD61FD4EFD3BFD27FD14FD00FDECFCE7
:100EA000D8FCC3FCAEFC99FC84FC6EFC58FC42FCF4
:100EB0002CFC15FCFEFBE7FBD0FBB8FBA0FB88FB82
:100EC00070FB57FB3EFB25FB0CFBF2FAD8FABEFA8F
:100ED000A4FA89FA6EFA53FA38FA1CFA01FAE4F91C
:100EE000C8F9ABF98FF972F954F937F919F9FBF828
:100EF000DCF8BEF89FF880F861F841F821F801F8B5
:100F0000E1F7C1F7A0F77FF75EF73CF71BF7F9F6BB
:100F1000D6F6B4F691F66FF64BF628F604F6E1F540
:100F2000BDF598F574F54FF52AF505F5DFF4BAF43B
:100F300094F46DF447F420F4FAF3D3F3ABF384F3B1
:100F40005CF334F30CF3E3F2BAF292F268F23FF29C
:100F500015F2ECF1C2F197F16DF142F117F1ECF0FD
:100F6000C1F095F069F03DF011F0E4EFB8EF8BEFD0
:100F70005EEF30EF03EFD5EEA7EE79EE4AEE1CEE12
:100F8000EDEDBEED8EED5FED2FEDFFECCFEC9FECC8
:100F90006EEC3DEC0CECDBEBAAEB78EB46EB14EBE8
:100FA000E2EAB0EA7DEA4AEA17EAE4E9B1E97DE972
:100FB00049E915E9E1E8ACE878E843E80EE8D8E764
:100FC000A3E76DE738E702E7CBE695E65EE627E6BE
:100FD000F0E5B9E582E54AE512E5DBE4A2E46AE47E
:100FE00031E4F9E3C0E387E34EE314E3DAE2A1E29C
:100FF00067E22CE2F2E1B7E17DE142E107E1CBE01B
:1010000090E054E018E0DCDFA0DF64DF27DFEBDEF8
:10101000AEDE71DE34DEF6DDB9DD7BDD3DDDFFDC2D
:10102000C1DC82DC44DC05DCC6DB87DB48DB08DBBB
:10103000C9DA89DA49DA09DAC9D989D948D907D99F
:10104000C7D886D844D803D8C2D780D73ED7FCD6D5
:10105000BAD678D636D6F3D5B0D56DD52AD5E7D45D
:10106000A4D461D41DD4D9D395D351D30DD3C9D22F
:1010700084D240D2FBD1B6D171D12CD1E7D0A1D04E
:101080005CD016D0D0CF8ACF44CFFECEB8CE71CEB2
:101090002ACEE4CD9DCD56CD0FCDC7CC80CC38CC5B
:1010A000F1CBA9CB61CB19CBD1CA89CA40CAF8C947
:1010B000AFC966C91DC9D4C88BC842C8F9C7AFC774
:1010C00066C71CC7D2C688C63EC6F4C5AAC55FC5DA
:1010D00015C5CAC480C435C4EAC39FC354C309C379
:1010E000BDC272C226C2DBC18FC143C1F7C0ABC053
:1010F0005FC013C0C7BF7ABF2EBFE1BE94BE48BE5B
:10110000FBBDAEBD61BD14BDC6BC79BC2CBCDEBB95
:1011100091BB43BBF5BAA7BA59BA0BBABDB96FB9FF
:1011200021B9D3B884B836B8E7B798B74AB7FBB691
:10113000ACB65DB60EB6BFB570B521B5D1B482B44C
:1011400033B4E3B394B344B3F4B2A5B255B205B229
:10115000B5B165B115B1C5B074B024B0D4AF84AF2A
:1011600033AFE3AE92AE42AEF1ADA0AD4FADFFAC4A
:10117000AEAC5DAC0CACBBAB6AAB19ABC8AA76AA83
:1011800025AAD4A983A931A9E0A88EA83DA8EBA7D8
:101190009AA748A7F6A6A5A653A601A6AFA55EA541
:1011A0000CA5BAA468A416A4C4A372A320A3CEA2BB
:1011B0007BA229A2D7A185A133A1E0A08EA03CA04B
:1011C000EA9F979F459FF29EA09E4E9EFB9DA99DE4
:1011D000569D049DB19C5F9C0C9CB99B679B149B86
:1011E000C29A6F9A1C9ACA9977992499D2987F9833
:1011F0002C98DA9787973497E2968F963C96EA95E3
:1012000097954495F1949F944C94F993A793549394
:101210000193AF925C920992B69164911191BE9044
:101220006C901990C78F748F218FCF8E7C8E2A8EF1
:10123000D78D858D328DE08C8D8C3B8CE88B968B99
:10124000438BF18A9F8A4C8AFA89A8895589038938
:10125000B1885F880C88BA8768871687C4867286CB
:101260002086CE857C852A85D88486843484E38351
:1012700091833F83ED829C824A82F981A7815681C6
:101280000481B38061801080BF7F6D7F1C7FCB7E27
:101290007A7E297ED87D877D367DE57C947C437C73
:1012A000F27BA27B517B007BB07A5F7A0F7ABE79AA
:1012B0006E791E79CD787D782D78DD778D773D77C5
:1012C000ED769D764D76FD75AE755E750E75BF74C7
:1012D0006F742074D17381733273E37294724572A8
:1012E000F671A77158710A71BB706C701E70CF6F68
:1012F000816F326FE46E966E486EFA6DAC6D5E6D06
:10130000106DC26C746C276CD96B8C6B3E6BF16A80
:10131000A46A576A0A6ABC6970692369D6688968D1
:101320003D68F067A46757670B67BF6673662666FC
:10133000DB658F654365F764AB6460641464C963FF
:101340007E633363E8629D6252620762BC617161D1
:101350002761DC6092604860FD5FB35F695F1F5F7B
:10136000D55E8C5E425EF95DAF5D665D1C5DD35CF3
:101370008A5C415CF85BB05B675B1E5BD65A8D5A3A
:10138000455AFD59B5596D592559DD5896584E584D
:101390000658BF5778573157EA56A3565C5615562C
:1013A000CE5588554155FB54B5546F542954E353D9
:1013B0009D5357531253CC5287524252FC51B7514E
:1013C00073512E51E950A45060501C50D74F934F89
:1013D0004F4F0B4FC74E844E404EFD4DB94D764D8D
:1013E000334DF04CAD4C6A4C274CE54BA24B604B57
:1013F0001E4BDC4A9A4A584A164AD54993495249E3
:101400001149CF488E484D480D48CC478B474B4734
:101410000B47CA468A464A460B46CB458B454C4548
:101420000C45CD448E444F441044D243934354431F
:101430001643D8429A425C421E42E041A2416541B5
:101440002841EA40AD4070403340F73FBA3F7D3F0E
:10145000413F053FC93E8D3E513E153ED93D9E3D23
:10146000633D273DEC3CB13C763C3C3C013CC73BFA
:101470008C3B523B183BDE3AA43A6A3A313AF73990
:10148000BE3985394C391339DA38A13869383138E1
:10149000F837C037883750371837E136A9367236F3
:1014A0003B360436CD3596355F352835F234BC34BD
:1014B00085344F341934E433AE33783343330E3349
:1014C000D932A3326F323A320532D1319C31683190
:1014D00034310031CC30993065303230FE2FCB2F93
:1014E000982F652F322F002FCD2E9B2E682E362E53
:1014F000042ED22DA12D6F2D3E2D0C2DDB2CAA2CD0
:10150000792C482C182CE72BB72B862B562B262B07
:10151000F62AC72A972A682A382A092ADA29AB29FB
:101520007C294D291F29F028C228942866283828AC
:101530000A28DD27AF27822754272727FA26CD261A
:10154000A126742648261B26EF25C32597256B2543
:1015500040251425E924BD24922467243C24112429
:10156000E723BC23922368233E231423EA22C022CC
:1015700096226D2243221A22F121C8219F21772130
:101580004E212621FD20D520AD2085205D2036204E
:101590000E20E71FBF1F981F711F4A1F231FFD1E2C
:1015A000D61EB01E891E631E3D1E171EF11DCC1DCA
:1015B000A61D811D5C1D361D111DEC1CC81CA31C25
:1015C0007E1C5A1C361C121CEE1BCA1BA61B821B3F
:1015D0005F1B3B1B181BF51AD21AAF1A8C1A691A1B
:1015E000471A241A021AE019BE199C197A195819B7
:1015F00036191519F418D218B11890186F184F1819
:101600002E180D18ED17CD17AD178D176D174D1737
:101610002D170E17EE16CF16B0169016711653161C
:1016200034161516F715D815BA159C157E156015C4
:10163000421524150715E914CC14AF149114741431
:1016400057143B141E140114E513C813AC13901364
:10165000741358133C1321130513EA12CE12B3125C
:1016600098127D12621247122C121212F711DD111C
:10167000C311A9118F1175115B11411127110E11A1
:10168000F510DB10C210A910901077105E104610F4
:101690002D101510FC0FE40FCC0FB40F9C0F840F0E
:1016A0006C0F550F3D0F260F0E0FF70EE00EC90EF3
:1016B000B20E9B0E850E6E0E570E410E2B0E140EA3
:1016C000FE0DE80DD20DBD0DA70D910D7C0D660D23
:1016D000510D3C0D270D120DFD0CE80CD30CBE0C6A
:1016E000AA0C950C810C6D0C580C440C300C1C0C85
:1016F000090CF50BE10BCE0BBA0BA70B940B800B6F
:101700006D0B5A0B470B350B220B0F0BFD0AEA0A28
:10171000D80AC60AB40AA10A8F0A7D0A6C0A5A0AB4
:10172000480A370A250A140A030AF109E009CF0911
:10173000BE09AD099C098C097B096B095A094A0944
:101740003909290919090909F908E908D908CA084C
:10175000BA08AA089B088C087C086D085E084F0828
:1017600040083108220813080508F607E707D907DB
:10177000CB07BC07AE07A007920784077607680768
:101780005A074D073F073207240717070907FC06CA
:10179000EF06E206D506C806BB06AE06A10695060C
:1017A00088067C066F06630656064A063E06320623
:1017B00026061A060E060206F605EB05DF05D3051A
:1017C000C805BC05B105A6059B058F0584057905EF
:1017D0006E05630559054E05430538052E0523059D
:1017E00019050E050405FA04F004E504DB04D10430
:1017F000C704BD04B404AA04A00496048D048304A1
:101800007A04700467045E0454044B0442043904EF
:10181000300427041E0415040C040404FB03F20323
:10182000EA03E103D903D003C803C003B703AF033E
:10183000A7039F0397038F0387037F037703700337
:101840006803600359035103490342033B03330315
:101850002C0325031D0316030F0308030103FA02DB
:10186000F302EC02E502DF02D802D102CA02C4028E
:10187000BD02B702B002AA02A4029D029702910221
:101880008A0284027E02780272026C0266026002A0
:101890005A0255024F02490244023E023802330204
:1018A0002D02280222021D02180212020D02080255
:1018B0000302FD01F801F301EE01E901E401DF019A
:1018C000DA01D601D101CC01C701C301BE01B901C2
:1018D000B501B001AC01A701A3019E019A019601D7
:1018E00091018D018901840180017C0178017401DD
:1018F00070016C016801640160015C0158015501CF
:1019000051014D014901460142013E013B013701B0
:10191000340130012D012901260122011F011C0182
:101920001801150112010F010C0108010501020146
:10193000FF00FC00F900F600F300F000ED00EA0003
:10194000E700E500E200DF00DC00DA00D700D400A9
:10195000D100CF00CC00CA00C700C500C200C00043
:10196000BD00BB00B800B600B300B100AF00AC00D2
:10197000AA00A800A600A300A1009F009D009B0054
:10198000990097009400920090008E008C008A00CD
:10199000880087008500830081007F007D007B0038
:1019A0007A00780076007400730071006F006E009A
:1019B0006C006A00690067006600640062006100F4
:1019C0005F005E005C005B005A0058005700550045
:1019D00054005300510050004F004D004C004B008C
:1019E00049004800470046004500430042004100CE
:1019F00040003F003E003D003B003A003900380007
:101A0000370036003500340033003200310030003A
:101A10002F002E002E002D002C002B002A00290064
:101A2000280027002700260025002400230023008B
:101A300022002100200020001F001E001E001D00AB
:101A40001C001C001B001A001A00190018001800C6
:101A500017001700160015001500140014001300DD
:101A600013001200120011001100100010000F00EE
:101A70000F000E000E000D000D000D000C000C00FC
:101A80000B000B002DE9FE4F0646DFF89C597068ED
:101A900028627189142948DBDFF890A9DAF8001070
:101AA000DAF8140001F098F9002840F00E849AF852
:101AB000140000F0F000E02800F00784286A01F02C
:101AC000C2F8000B81001429A4BF308988422CDBA6
:101AD0000022A1F114006A62A8827289DFF850899D
:101AE0008A4206DBE882494209B2304601F0C7FB70
:101AF0003CE0306830B908F12803B2220FF2D87107
:101B000001F09BF86FF01301304601F0B8FB30464E
:101B10007189AC8AE982641A09B2494209B201F0BA
:101B2000AEFB30684289A4B2A242C0F2CE834168C3
:101B3000696221B2494209B201F0A1FB31890C1B53
:101B40003481708930B108F12803CF220FF29871E7
:101B500001F073F8326830891189884206D008F1A3
:101B60002803D0220FF28C7101F067F8286A0088F0
:101B700001F0F8FD296A0880488801F0F3FD296A20
:101B80004880486801F0F4FD296A4860A8628868C6
:101B900001F0EEFD296A8860E862C88901F0E2FD83
:101BA000296AC88100F050FC00F03F0010F00301EA
:101BB00018BF012128704FF0000B3089DFF87498AE
:101BC0000918A983D9F8004001E0A346E468002C75
:101BD00076D0207D30B908F12803E22208F16401B3
:101BE00001F02BF8207D0A2806D108F12803E32212
:101BF00008F18C0101F021F8207D012806D108F1BF
:101C00002803E42208F1B80101F017F8286A218BB3
:101C10000288914202BFE18A40888142D5D1616841
:101C2000DAF81000814202BF2168DAF8140081421C
:101C3000CBD12746F968B94206D108F12803EC2236
:101C400008F1E00100F0F9FFBBF1000F04D0F868E3
:101C5000CBF80C0000F080FBF868B84206D108F120
:101C60002803F42208F5867100F0E7FF002169607F
:101C70003089A881AE60296369706983286A286108
:101C80002878010703D5707B40F00100707307F1DD
:101C90004406306B00280AD0384602F039F910F1BA
:101CA0000D0F06D0306B00281CBFA88B002800F059
:101CB000DD80788D002802D1384602F096FCE6E2FD
:101CC000DFF87407046800E0E468002C43D0207D4E
:101CD0000A2806D008F12803FE2208F59C7100F0BE
:101CE000ACFF296A208B0A88904202BF4B88E08AA9
:101CF0009842E9D16168DAF81000814202BF216898
:101D0000DAF814008142DFD12878410764D4A98B26
:101D1000870712D5AF6A606AB7EB000E13D4208D27
:101D2000AEEB000000280EDC019200930AF11003D4
:101D3000E86A0AF114023944C5E2C30703D5DFF8A3
:101D4000FC0602682262002946D0A07E40F0020014
:101D5000A076204687E0DFF8E8362F6A1868002270
:101D600001E00246C068002800F09B82B7F802E05C
:101D7000C18A7145F5D10168DAF81440A14218BF53
:101D8000002818BF0029ECD1044622B1E068D060D9
:101D90001968E1601C60287841071DD4C2060CD583
:101DA0003888A96A0190CDF800E00AF11003A88BE9
:101DB0004118E86A0AF1140285E280070CD5607DBB
:101DC00002F046F9070008D1A369002B04D020696E
:101DD0004FF0FF320021984777E2DAF814003860BC
:101DE0000322DAF81010796007F15C0AE08AF882C1
:101DF000296A088838833A75A86A401C7862F862B4
:101E0000384602F00BFA7865F8647864B865A86A19
:101E1000401E386520693861CAF81C40207A00F0FD
:101E20000C00387200F098FA02F0D0FEDFF81416B9
:101E300001200870384600F01CFF286AC089AAF803
:101E40000000AAF80200391D788E02F0EDF97886BC
:101E50001221384602F038FB20B10021384601F04B
:101E6000ACFD32E2384602F0F5FB2EE26F632978D2
:101E7000480723D5387D022804D1E96AB068814239
:101E80005BD10CE0796AAA6A8A4210D138B908F1AC
:101E9000280340F2E7220FF27C4100F0CEFE687882
:101EA00040F008006870B87E00F0FE0068E1511A4A
:101EB00043D4388D091A00293FDC5EE1880704D538
:101EC000387D022818BF0328F7D1B87EC20603D494
:101ED000DFF8680501683962002087F8960041F252
:101EE0001C14384600F0C5FEA96AA88B95F800E0DE
:101EF0002A6ADFF844B5401802900EF010003B7DCE
:101F00009B1E072B19D8DFE813F0DC007A00740061
:101F10003B00350074001900080000F01BFA287817
:101F2000C1060AD5E86AB168884204BF706A002811
:101F300003D1687840F01000687039E100F00AFAC7
:101F40002878C106F9D5E86AB168884204BF706A8A
:101F50000028F2D1384602F0F2F800F003FADFF878
:101F6000E414FA60012008700A223A75DBF80000D8
:101F7000F86028E000F0EEF968788106DDD50FE022
:101F800000F0E8F96A782878E96A930600F0100012
:101F900024D5E8B1B268914204BF706A002817D115
:101FA000B87E40F00200B876384602F0C8F800F07B
:101FB000D9F9DFF89004FA60012101700A223A751C
:101FC000DBF80010F960CBF8007002F0FFFDEFE0E5
:101FD000B97E41F00201B976082059E00028F6D018
:101FE000B268914204BF706A002801D10621397598
:101FF000DEE000F0AFF96978880644D4D8E0002824
:1020000054D0E86A3168411A491E43D4B168411A74
:1020100000293FDC04203875706B002819D08069D6
:1020200050B908F1280340F251320FF2083100F0A4
:1020300004FE706B00280CD0706B8369002B08D0F5
:10204000386900223946984720B110F10D0F00F091
:102050001E81E5E000F07EF9688B08B1401E6883C0
:10206000788E4200A2428CBF1346234681009942DB
:1020700038BF800003D3A2428CBF40002046B0800E
:102080006978880605D5B97E41F00201B976072046
:1020900038758DE0118801910AF110035288029978
:1020A00000920AF1140202F01DFC81E05FEA8E70DA
:1020B000FBD5786A491C81427AD1384602F07DFC12
:1020C00076E00EF01203122B01BFEB6AA3F1010CB4
:1020D00033689C4556D1481C7862F862491EE86A0C
:1020E0003060D08930837083F16004203875391DE9
:1020F000788E02F099F84200A2428CBF1346234624
:102100008100994238BF840002D3A24288BF4400B4
:102110007886B480F08B38B908F1280340F21A327F
:102120000FF6E83100F089FDF18B481EF083B46AA8
:1021300064B9746A3CB908F1280340F222320FF600
:10214000E43100F07AFD2068706201E02168B1623C
:10215000204601F01BFFB06A00280EBF4FF0FF3190
:10216000002187F842103986336C33B13869002278
:102170003946984710F10D0F2BD0B87E40F0020081
:10218000B87615E0A0B1108801900AF110035188CB
:10219000E86A00910AF11402029902F0A3FB97F891
:1021A0004210062904DA00203886384602F0EEFB99
:1021B000697808070ED5B26C1AB138696FF00D0155
:1021C00090473946484601F0DDFF3946012002F0CC
:1021D0003FFE5CE06A8B4AB1B36B2BB1386939467C
:1021E000984710F10D0F52D000206883384600F058
:1021F000CAF800284BD1286B6FF00C0928B3306B5C
:1022000038B108F128034FF4D2720FF6E42100F040
:1022100014FDB97E2A6BC80606D5104601F033F8C6
:10222000384601F031FC32E0F46B24B13869002308
:102230003946A04704E000233946002001F0C6FEDD
:10224000484524D008B1286B30636878810615D5DD
:10225000306B20B1417B41F0200141730EE0388D9D
:10226000B0F5066F1CBF401C3885F46B34B138697B
:10227000002300223946A047484508D00020686363
:10228000384600F080F810B9384602F0E3F9002033
:1022900068632863A868E8B100F0F5FF0020A86033
:1022A00018E0B88901F05EFA40070ED4286A018868
:1022B00001910AF110034088A96A00900AF1140202
:1022C000A88B4118E86A02F00DFB3046BDE8FE4FCE
:1022D00000F0D9BFBDE8F78F702D3E6E6578742091
:1022E000213D204E554C4C00702D3E6C656E203DBE
:1022F0003D203000702D3E746F745F6C656E203D24
:102300003D20702D3E6E6578742D3E746F745F6C49
:10231000656E00007463705F696E7075743A20704A
:1023200063622D3E737461746520213D20434C4FE0
:10233000534544007063622D3E6C697374656E652D
:10234000722D3E61636365707420213D204E554CB3
:102350004C00000038467AE0D9F80010F960C9F85E
:1023600000707047D9F80000B84204D1C068C9F8BD
:10237000000006E0084620B1C168B942FAD1F96808
:10238000C1600022704710B5044627484178C8064E
:1023900013D5A17EC80606D4D4F88C201AB12069C2
:1023A0006FF00E0190472146224801F0EBFE2146D6
:1023B000012002F04DFD012010BD002010BD70B5C0
:1023C00005460C46E96800F03FF8C00714D52046E2
:1023D00001F0D3FD002424E0908901F0C3F9C00787
:1023E00006D5012001F0BEF9EA6891890843908181
:1023F0002046246801F0CAFD9CB10B48E268816A5E
:102400002889566823894018861BF61AE4D5526835
:10241000801A002805DD511A298189B2686800F008
:1024200073FE2C6070BD000090C1002014C200201B
:10243000D4100108680000206C0000205C0000201F
:102440006400002058000020888901F08BB92DE934
:10245000F84F0546DFF88C88287D042807DA08F154
:1024600028034FF481620FF6D00100F0E6FBDFF89D
:1024700078783978C80605F1440640F14881316919
:10248000348BD6F80C90B86AD7F820C0FB6A0A19CA
:10249000B9EB000E09D402D1B1EB030905D499427E
:1024A0001AD1BCF80E108C4216D2BCF80E10B5F83A
:1024B0005E900C464C4538BF4C467483F06005F185
:1024C000940431833361607819B928B921700120EF
:1024D00001E008B10020607031680FF67804581AE6
:1024E000002808F5B47905F1420C2CDCB88B0028E3
:1024F00001BFD6F810E0308B704490421FD1B5F97F
:102500003020002A1BD4994219D19CF80100421CAA
:10251000D1B2884238BF8CF801209CF80110042900
:1025200007DBB288688E801881B28A4200D2B08000
:10253000AAE00329FCD1284602F068FAA4E00020B2
:102540008CF80100A0E0401E76D4B068181A00286C
:1025500072DCA97E480704D501F0FB01A976F0885A
:10256000B08000218CF80010B5F93E20B5F93C1080
:10257000B08802EBE102A5F8402000218CF80110A0
:1025800033602A7D042A12DBF388984206D26B8ED0
:102590001B189AB290420AD2184608E0698E494345
:1025A00091FBF0F1091889B2814228BF0846B0803A
:1025B0001EE0DAF80000B06200F01CFBF18B8142F3
:1025C00005D208F1280340F29E4200F035FB00F0EE
:1025D00011FB00F013FBF08B50B1B06A40B9706A88
:1025E00038BB08F1280340F2A742214600F025FB42
:1025F000B06AF0B1C068406801F0BAF8B16A8346C9
:1026000000F020FB10F0030118BF0121D6F828A02C
:10261000BAF8080083448B44F96AABEB0100002848
:10262000C7DDBAF1000F04D0002028860020E8762C
:102630002AE04FF0FF30F8E7284601F0D6FF23E00C
:10264000DAF8000008B900213184706200F0D2FA93
:10265000F18B814205D208F1280340F2D54200F007
:10266000EBFA00F0C7FA00F0C9FAF08B60B1B06A7B
:10267000002804BF706A002806D108F1280340F240
:10268000DD42214600F0D9FA706AC8B1C0684068DE
:1026900001F06EF8716A834600F0D4FA10F003007E
:1026A00018BF0120D6F824A0FA6ABAF80810A2EBE5
:1026B0000B03591A081A03D4B068121A002ABFDD96
:1026C000B18B788B4118B183686B00B3AA6BF96A40
:1026D000521A1CD5DFF814462268B5F93C10101ABE
:1026E00000B2A0EBE100411803B2A987002B48BF5C
:1026F0004042B5F93E208018A0EBA200E88709B25D
:1027000000B200EBE100A5F8400000206863B88B40
:10271000B96A002800F057822A7D072A80F2538286
:102720006B6AA3EB0109B9F101025ED4A9EB0000C9
:10273000401C002859DCBC683CB908F1280340F271
:102740003C520FF2306100F078FA47F6FF70814595
:1027500007DB08F1280340F23D520FF2286100F038
:102760006CFAB8680FF23C6A4189494525DA00895C
:10277000484507DA08F1280340F23F520FF214618E
:1027800000F05BFAB8680089A0EB090005E0A9EB4E
:102790000109002120816181246861894945F6DBB6
:1027A000C9F100090FFA89F1204600F068FD90B1E7
:1027B00008F1280340F24C520AE0C9F100090FFA6F
:1027C00089F100F05CFD30B108F1280340F251526C
:1027D000514600F032FA696ABA89B86AB962521A87
:1027E00082183869BA81416005E0C91A03D5A87E0C
:1027F00040F00200A876696ABA6A531A00F1DE81D5
:10280000288D1B1A5B1C002B00F3D881914208F520
:10281000C87A40F01F81386900F015FA10F0030003
:1028200018BF0120B9894018B88380B22A8D82422E
:1028300027D2386900F007FAC10709D5386900F0D6
:1028400002FA00F03E0000F08DFF3B6900F0CBF98A
:10285000288D3969B881FFF7F7FD00F0DAF938699A
:1028600000F0F1F910F0030118BF0121BA8900F05E
:10287000D9F906D008F1280340F27F52514600F002
:10288000DCF9F06A00285DD0386900F0DCF9C00797
:1028900007D5F06A002855D00168F16201F076FB97
:1028A000F7E7F46A1DE0908900F05CFFC00714D5DB
:1028B0003969FFF7C9FD80070FD4012000F052FFEE
:1028C00039698A891043888100F04CFF10F00301B8
:1028D00018BF0121B8890918B9832046246801F07E
:1028E00055FB74B3E268B86AB98B53680918A1EB59
:1028F00003092389B9EB0303D5D55268891A002946
:102900001FDD101AB881386900F09DF900F081F9D7
:10291000386900F098F910F0030018BF0120B98958
:10292000BA6A4018B88380B2E36859688018884250
:1029300007D008F1280340F2AF5208F5E47100F027
:102940007CF9F462B98BBA6A8A186A622B8D8B4261
:1029500007D208F1280340F2B9520FF25C4100F0AF
:102960006CF9298DB88B091A2985284601F092F84F
:10297000B968088910B100203963B860386900F07F
:1029800062F9C10753D5787840F0200078704EE0A6
:10299000396337E0B862E06800F055F910F00300E1
:1029A00018BF01206A6A21898A1880186862E06865
:1029B00000F049F910F0030018BF012021892A8D89
:1029C0004018824207D208F1280340F2DE5208F58F
:1029D000017100F032F9E06800F035F910F0030001
:1029E00018BF01202A8D2189521A101A28852846DD
:1029F00001F050F86168088930B1386B0028C7D001
:102A000000F0C5FC00206060E06800F01CF9C00721
:102A100008D5797841F020017970287D042804BF19
:102A2000072129752068F062204601F0AFFAF46AA8
:102A300024B1E068696A40688842ABD0A97EC807C3
:102A400052BF41F0010101F0FE0141F00201A976FF
:102A5000BDE8F18F284601F0C8FDD6F82C90B9F1F9
:102A6000000F03D100F0BCF8F062F1E7B96A00246E
:102A7000D9F80C205068814203D0CCB9081A22D56D
:102A800010E0B9F80800B9898842E1D200F0A8F84E
:102A90000028DDD0002C14BF2060F0624946BDE85C
:102AA000F44F8CE400F09CF80028D1D0F062F5E7F8
:102AB000D4F80CC0DCF80430CB1A5B1E03D4081A1F
:102AC000401C00280BDDD9F8000018B952688A1A9A
:102AD000002A1ADC4C465FEA0009C9D1B8E700F0C9
:102AE0007FF80500B4D0E06841682089BA6A4018D0
:102AF000801A002805DD511A218189B2606800F032
:102B000003FB256049462846C9E7D9F80C0000F0C8
:102B10009AF8C0079CD400F063F80028C9F80000B8
:102B200096D0D9F80C004168B9F80800BA6A401884
:102B3000801A002807DD511AA9F8081089B2D9F8BF
:102B4000040000F0E1FABA8BB86A696A8218288D2D
:102B5000521A121A002AC1DD00F072F8C0070AD515
:102B600000F06EF800F03E0000F0FCFDD9F8001017
:102B7000CB6800F038F8686A298D0918B86A091A14
:102B8000D9F80000018189B2406800F0BDFA00F078
:102B900057F810F0030118BF0121D9F8000002898D
:102BA00000F040F81BD008F128035146404601B020
:102BB000BDE8F04F40F27B6202F090B92846BDE8D4
:102BC000F24F01F012BD686A091A04D4288D091A5F
:102BD000491C002903DDA87E40F00200A87637E7F3
:102BE000381D01F0E1B99A894CF2FF010A40104307
:102BF00098817047DAF8040000F0A7BBF18B081A3F
:102C0000F0837A8BBAF8080082187A83504601F074
:102C1000BDB9800702D5B989481EB881B989B8689D
:102C200000F072BAB86A8918B98389B209186A6A59
:102C3000288D8218914270474946404602F04EB9AD
:102C4000D9F80010C868808900F08CBD10B5264CFA
:102C5000218B606A4A1C10B1E38A994204D2206A2F
:102C600022830844007D10BDC91AC9B22283405C8A
:102C700010BDF8B51C4DAC8A06465CB30020288315
:102C80000FE0FFF7E3FF0746FFF7E0FF40EA07200A
:102C900040F21921884201DA010001D14FF4067097
:102CA0007086288BA04215D2FFF7D0FF90B1022882
:102CB00008D0F6D3FFF7CAFF02280BDB298B401898
:102CC000801EDCE7FFF7C2FF042803D1288B801C9D
:102CD0008442D6DAF1BD0449487840F010004870CB
:102CE00070470000D410010890C100205C00002053
:102CF0007063622D3E726566757365645F646174AE
:102D000061203D3D204E554C4C0000007063622D0B
:102D10003E736E645F71756575656C656E203E20EF
:102D2000300000006E6F207365676D656E742074EF
:102D30006F206672656500007463705F726563651D
:102D40006976653A2077726F6E6720737461746577
:102D5000000000007463705F726563656976653AB0
:102D60002076616C6964207175657565206C656E8F
:102D700067746800696E7365672E7020213D204E70
:102D8000554C4C00696E73616E65206F66667365A5
:102D9000742100007062756620746F6F2073686F15
:102DA00072742100706275665F6865616465722087
:102DB0006661696C656400007463705F7265636569
:102DC0006976653A207463706C656E203E2072638C
:102DD000765F776E640A0000C24318BF002810D0E7
:102DE00091F833309A070ED54A6890420BD08B6821
:102DF00003EA00011A40914202BFDB4318409842A7
:102E000001D1012070470020704730B50168846807
:102E10004218416802EB5103C90703D54C4401E055
:102E2000491C08D19A4218BF12F9011B01D10C307C
:102E300030BD12F8015B002904F8015BF0D4491E93
:102E4000F7D5EFE710B502F0D6F8DFF84C170022FF
:102E50000A7002F0D9F8DFF84407046800E0E4687B
:102E600034B1206F0028FAD001F087F800202067E5
:102E700010BD38B502F0BFF8DFF81C4725780121F6
:102E8000217002F0C1F875B900220021DFF81007A7
:102E900002F032F938B102F0AEF800212170BDE83D
:102EA000324002F0B1B831BD2DE9F84F0428164682
:102EB000DFF8F0961BD8DFE800F0031416181800AE
:102EC0003625032E0F4600F2DB80DFE806F09DCDAD
:102ED000CD020C2001F08EFF04000FD1FFF7C9FFD7
:102EE000C7E02225EDE70E25EBE70025E9E709F12C
:102EF00028034FF48B720FF2B061C7E003212173F6
:102F000000202060EE1C60191030C01C8008B6083C
:102F10008000B60060602781C6F51470874238BF14
:102F20003D4605D3ED1C4FF6FC700540C5F5147504
:102F300065816168608904F5187A0844824509F161
:102F4000940805D209F128034FF4987200F0A7F80D
:102F5000764216F5147F07D109F128034FF49972D0
:102F600009F1C80100F09CF860890FF25866012150
:102F7000E181A3463F1A254639E003200021207352
:102F800061734FF6FF7221609742CBF8004006DB79
:102F900009F128034FF4A672314600F081F8B8B267
:102FA0002781B0F5147F2CBF4FF414703846608130
:102FB00004F110006060217911F0030F07D009F1CE
:102FC00028034FF4A97209F1FC0100F069F869685F
:102FD00068890844824505D209F1280340F2551258
:102FE00000F05DF861890120E0817F1AA346002F7F
:102FF00032DD0C2001F0FEFE0400BED1FFF739FFE8
:10300000284600F040F934E005F113014FF6FC705A
:103010000140FA1C10404018F91C83B28908B3EB38
:10302000810F26D380B202F039FA040021D0601952
:103030001030C01C8008800000F02BF8217321792B
:1030400011F0030F09D009F1280340F2771209F5B6
:10305000967100F025F800E02C46002060730121F5
:10306000E1812046BDE8F28F0B2001F0C3FE040091
:1030700001D10020F6E7002000F00BF82673ECE702
:1030800009F128034FF4C6720FF24C5100F008F812
:10309000EFE760602781678100212160704741462A
:1030A000484601F01BBF000038B50446042C184602
:1030B00010D8DFE804F003090B0D0D003824059B40
:1030C0000D19AB4212D20FE02424F8E71024F6E7E2
:1030D0000024F4E7DFF8CC0400F1280340F2C51225
:1030E00000F5AC7101F0FAFE002032BD049B002512
:1030F000056003B123440181418143600121022322
:10310000C1814373027332BD2DE9F84304000E46BA
:10311000DFF8905407D105F1280340F2F3120FF2C3
:10312000D44100F059F8207B032818BF01280BD0A8
:10313000002818BF022807D005F1280340F2F71233
:103140000FF2C84100F048F82789BE4242D2F71B6F
:103150000FF2E8480FF2D04918E0361A4FF6FF7028
:103160008742B6B206DB05F1280340F20B2249463E
:1031700000F032F8208938182081246834B905F12C
:10318000280340F20F22414600F026F86089B04241
:10319000E3DB207BB0B96089864213D0617B88076E
:1031A00010D46168091B711889B2204602F0F6F844
:1031B000040007D105F1280340F21D220FF29441CB
:1031C00000F00AF866812681206808B100F05BF8FB
:1031D00000202060BDE8F183284601F07FBEF8B5ED
:1031E000DFF8C04348B904F1280340F23F220FF250
:1031F0008041204601F072FE27E00B0025D04E42B0
:1032000000290FD537464589BBB29D420BD204F148
:10321000280340F247220FF26441204601F05EFE8F
:103220000120F2BD8FB2037B002B18BF032B0ED100
:103230004268324400F110039A42F1D34489038971
:1032400042600C19C918448101810020F2BD022B93
:1032500018BF012B0CD1002904D54289BFB2BA4254
:10326000DED302E0DCDD002ADAD042683244E5E752
:1032700004F1280340F277220FF22041CDE700222B
:10328000ADE70122ABE72DE9F8430400DFF8148332
:1032900009D108F1280340F2D2220FF2D43100F014
:1032A00035F900204FE0207B002818BF01280BD003
:1032B000022818BF032807D008F1280340F2DE22B5
:1032C0000FF2E83100F022F900270FF2F83901F08F
:1032D00092FE0546E08930B908F1280340F2EB225E
:1032E000494600F013F9E089461EE681284601F0C0
:1032F0008BFEB6B236BB627B2568207B91070DD56D
:10330000206938B908F1280340F2F92208F5BE71A6
:1033100000F0FCF821692046884710E0032802D11C
:1033200021460C2005E0012818BF022804D12146BF
:103330000B2001F08DFD02E0204601F097FF7F1C7D
:103340002C00C4D1F8B2BDE8F2830146002001E0B0
:103350000968401C0029FBD180B2704710B50400F9
:1033600014D001F048FEE189491CE18101F04CFED6
:10337000E08958B9BDE81040DFF828020FF25C314F
:1033800000F1280340F2393201F0A8BD10BD70B53C
:1033900004000D46DFF80C6218BF002D0FD106F1B6
:1033A000280306F5D0713046BDE8704040F24D323A
:1033B00001F094BD228929898A1822810446206857
:1033C0000028F7D121896089814208D006F12803BD
:1033D00040F2553206F5EC71304601F07FFD206871
:1033E00040B106F1280340F256320FF20431304664
:1033F00001F074FD2189288941182181256070BD63
:1034000010B50C46FFF7C3FF2046BDE81040A5E706
:103410002DE9F0470546002600270C466FF00F09FE
:10342000DFF88081002D18BF002C03D02989208966
:10343000814206D208F1280340F2BD3208F50B7133
:103440004DE06089A0EB070A6889801B5045B8BF32
:103450008246616868681FFA8AF23944304402F093
:1034600029F956446989B6B25744B142BFB207DA66
:1034700008F1280340F2CD320FF2842100F046F823
:103480006089B84207DA08F1280340F2CE320FF221
:10349000882100F03BF860898742A4BF0027246898
:1034A0006889864202BF00262D68002D10D02CB1FD
:1034B00060892189884201D12068A0B92DB168892D
:1034C0002989884201D1286890B9002CB9D11AE025
:1034D000CCB108F128034FF476720FF2582100F0B6
:1034E00015F8484610E008F1280340F2DE3203E008
:1034F00008F1280340F2E33208F5177100F006F8EE
:103500006FF0050000E00020BDE8F087404601F0C4
:10351000E5BC2DE9F84304468946164600272148B4
:1035200034B900F1280340F2FE320FF218210AE00C
:10353000B9F1000F18BFB8461DD100F1280340F2C1
:10354000FF3200F5227101F0C9FC002022E0C01A10
:1035500080B2B5B28542C8BF054660689BB2C1184B
:103560001FFA88F02A46484402F0A4F82468EF19AC
:10357000A844761B0023B0B258B108E099B2608924
:103580000029E4D09AB28242E1D324681B1A002CAD
:10359000F4D1B8B2BDE8F283BAC2002068000020BE
:1035A000452E0008280E0108706275665F616C6C1C
:1035B0006F633A206261642070627566206C617985
:1035C0006572000072656D5F6C656E203C206D61F8
:1035D000785F7531365F7400706275665F616C6C20
:1035E0006F633A206572726F6E656F7573207479C0
:1035F00070650000706275665F7265616C6C6F6308
:103600003A207020213D204E554C4C00706275666A
:103610005F7265616C6C6F633A2073616E652070D8
:103620002D3E74797065000067726F77203C206DC5
:1036300061785F7531365F740000000070627566F6
:103640005F7265616C6C6F633A207120213D204E82
:10365000554C4C006D656D5F7472696D20726574B8
:1036600075726E65642071203D3D204E554C4C00B6
:103670007020213D204E554C4C000000696E637255
:10368000656D656E745F6D61676E697475646520E4
:103690003C3D20702D3E6C656E0000006261642030
:1036A00070627566207479706500000070627566DE
:1036B0005F667265653A2073616E65207479706526
:1036C00000000000706275665F667265653A207082
:1036D0002D3E726566203E203000000070627566E7
:1036E00020726566206F766572666C6F77000000E9
:1036F000702D3E6E657874203D3D204E554C4C003B
:103700006F66667365745F746F203C3D20705F74F4
:103710006F2D3E6C656E00006F66667365745F6644
:10372000726F6D203C3D20705F66726F6D2D3E6C38
:10373000656E0000705F746F20213D204E554C4C2B
:1037400000000000706275665F636F70795F706182
:10375000727469616C3A20696E76616C696420628A
:10376000756600000146000A40EA012080B27047F9
:103770000146080200F47F000A0A40EA016002F4F0
:103780007F42104340EA116070472E00704780B5B9
:1037900000F08BFBDFF8AC180878401C0870C007FD
:1037A00002D5BDE80140E6E101BD00007CB504465C
:1037B0000029227DDFF89058DFF8906848D0042A6D
:1037C00018BF072A44D1606F002804BF208DB0F5D0
:1037D000066F3DD0A17EC80600F1088006F12803DF
:1037E00040F20F1260A1304601F078FB00F055FB6B
:1037F000E06C01F077F8204600F0A1FC2869A042B7
:1038000003D1C068286106E0084620B1C168A14222
:10381000FAD1E168C1600020E06001212970207DBB
:10382000042808D10A2121756869E0606C6101F003
:10383000CDF9002076BDDFF8FC080168A14202D175
:10384000FFF749FAF5E72146012001F001FBF0E717
:103850001AB1022A42D013D349E0E08A0028F2D0FC
:10386000A868A04203D1C068A86006E0084620B15D
:10387000C168A142FAD1E168C1600020E060E2E7DE
:1038800094B906F12803C02244A1304601F026FB7A
:103890000021087D012807D006F128035FF0C1024E
:1038A00038A1304601F01AFB01210FF2B0220023AB
:1038B00052F82100006804E0866FA64208BF8367C3
:1038C000C0680028F8D1491C0429F1D3214605F12C
:1038D0000C0000F057FC21460220B6E7214605F116
:1038E000100000F04FFC012028702146ADE7204673
:1038F000BDE8764038B5050040F00980DFF84C0798
:1039000026A100F1280340F24D1201F0E7FA287DCC
:10391000032804D004280AD0072813D019E0284629
:1039200000F05EFD040007D10520287505E028465B
:1039300000F056FD0400F7D06CB9284600F08AFE6E
:10394000204632BD284600F04BFD0400F4D109208A
:10395000EBE7002032BD14F1010FF1D1A87E40F059
:103960000800A876F5E700007063622D3E666C6182
:10397000677320262054465F5258434C4F534544AA
:10398000000000007063622D3E7374617465203D19
:103990003D204C495354454E0000000070636220A6
:1039A000213D204E554C4C00017D012903D0817EE4
:1039B00041F0100181760121F8E62DE9FE4F054620
:1039C0008B46287D012807D100F0D0F84FF4F07223
:1039D00000F1640101F082FA287DDFF86C760A2894
:1039E0000BD1294607F1140000F0CCFB294603B0A7
:1039F000BDE8F04F012001F02BBAE96C0291D5F837
:103A00002490D5F88CA0D5F81080E98A00240026EF
:103A100078B9B9B1B868A84203D1C068B86006E007
:103A2000084620B1C168A942FAD1E968C160EC60DA
:103A300008E00E46294607F1100000F0A3FB012024
:103A40005C463870E86E08B100F097FAA86E08B1CD
:103A500000F093FA286F08B100F08FFA44B1288B78
:103A6000019000962B1D02982A46494600F03AFF25
:103A7000294600F00CF85FEA0A0003D06FF00C0151
:103A80004046D047BDE8F78F012196E7E468012062
:103A900001F0DEB938B50446218D656A628E481999
:103AA00040F231439A42A8BF4FF48662E36AC01ADB
:103AB000821A01D4618532BDE81A0028C8BF0025EA
:103AC0000DDC5D1BB5F5803F09D3DFF8E8070FF289
:103AD000F87100F128034FF4427201F0FFF9658597
:103AE000002032BD70B504460E46207DDFF8C45775
:103AF000012807D105F128034FF4487205F1E401CC
:103B000000F089FB228D40F66100B618B1B2814207
:103B1000268506DAB6B286B9207D072818BF09289F
:103B200003D14FF40660208507E005F1280340F239
:103B30002D3205F5867100F06EFB2046FFF7AAFFD7
:103B4000B0F5067F08DBA07E40F00200A07620469C
:103B5000BDE8704000F07EBD70BD00006400002034
:103B600060000020680000206C000020DFF844079F
:103B700000F1280370472DE9FE4FDFF8CC64DFF831
:103B8000CCA47068401C70607078401C707021E09C
:103B9000A04207D00AF1280340F28D420AF50571D0
:103BA00000F078F9E0683061BBF1000F05D000F05B
:103BB00074F9D9F8000000F095FE21463F68FFF740
:103BC00065FF0020307055B16FF00C013846A847F2
:103BD000307820B134694FF0000800E0E468002C30
:103BE00000F01A81207D38B90AF128034FF47C7265
:103BF0000AF5B07100F04EF9207D012807D10AF1D5
:103C0000280340F2F1320AF5C67100F043F9207D35
:103C10000A2807D10AF1280340F2F2320AF5DC71D2
:103C200000F038F97178607F8842D7D0617700253D
:103C3000217D0229AB4604F14C0904F1940704F1FB
:103C4000420204D110780628A8BF012560DA137853
:103C50000C2BA8BF01254FDA7878C0B10FF2F062C3
:103C600010443A7810F8010C8242BCBF521C3A70E2
:103C70003978814240DB204600F012FF00283BD11A
:103C80003D707978062937D8491C797034E0B4F949
:103C9000300000285CBF401C2086D9F8200058B3B3
:103CA000B4F93000B4F940C0604525DB02290FD0DB
:103CB0000C2B28BF0C23B4F93C00B4F93E1001EBE7
:103CC000E00C0FF27C60C1560CFA01F0A4F8400041
:103CD0002586B9F81030D088984238BF0346608EE8
:103CE00041005B0888B2834238BF0B461381608E67
:103CF000D080204600F04AFE207D062808D1A17E13
:103D0000C80605D57168206A091A292928BF6D1CC3
:103D1000217A080728D5207D042818BF072823D139
:103D20007368216AD9F84420DFF88C055B1A801883
:103D30004FF4FA71B0FBF1F1994203D26D1C4FF0D0
:103D4000010B11E0B978DFF8740500FB01224FF494
:103D5000FA70B2FBF0F29A4206D2204600F07AFEE8
:103D600010B9B878401CB870D9F8240068B17368ED
:103D7000216A5B1AB4F94010062251438B4204D3E6
:103D800000F0FBF80020C9F82400681C217D0329FD
:103D900004D17268216A521A292A05E0092905D13D
:103DA0007268216A521AF12A28BF054604F11007E9
:103DB000BDB1D9F84050204600F0C1F9B8F1000F6C
:103DC00030693FF4E5AE844207D10AF1280340F29E
:103DD00089420AF5F47100F05DF8E068C8F80C005B
:103DE000E2E6A046F97AE468491CF972C9B2387B68
:103DF000814210D30021F9723170BA6F42B1386834
:103E000041469047317800297FF4E4AE002802D182
:103E1000404600F01FFCE2E674694FF000080EE037
:103E2000A04207D00AF1280340F2CF420AF52671DA
:103E300000F030F8E06870612146FFF727FE3CB3E0
:103E4000207D0A2807D00AF1280340F2BD420AF576
:103E5000107100F01FF87168206A091AF12914D353
:103E6000204600F06CF97069B8F1000FD8D0844298
:103E700007D10AF1280340F2CB420AF51C7100F089
:103E800009F8E068C8F80C00D6E7A046E468D6E771
:103E9000BDE8F78F504601F021B8218B0191231D19
:103EA000E08A00902246616A704770B5DFF80054DE
:103EB0006878401C68702C6922E06177A07EC10799
:103EC00009D540F00200A076204600F0C3FBA07E9A
:103ED00000F0FC00A076A17E080705D501F0F701EF
:103EE000A1762046FFF706FDE668606F38B1002135
:103EF0002970204600F00CF828780028DBD13446E1
:103F00002CB16978607F8842D7D1E468F8E770BD4A
:103F10002DE9F041054600206F6FD5F880407E7B8B
:103F20006867002C03463A46294602D02869A04714
:103F300001E000F04BF801006FF00C0812D1B00660
:103F400018D5288DB0F5066F1CBF401C2885D5F804
:103F500080407CB12869002300222946A0474045C3
:103F600008D101E0404501D1404604E06F676FF0A1
:103F7000040000E00020BDE8F08110B5002803E057
:103F8000046800F003F82000FAD110BD10B5040059
:103F900009D0606808B1FFF776F92146BDE8104006
:103FA000032000F055BF10BD38B50546032000F0D2
:103FB00021FF040001D1002032BD1022294601F06A
:103FC00079FB6068FFF7CAF9204632BD10B51400CE
:103FD000084607D02189FFF785FD2046FFF753F9F2
:103FE000002010BD002BFBD1BDE81040FFF7DCBC6A
:103FF00070B50446082818BF092808D013480FF2E6
:10400000E42100F1280340F2DC5200F067FFDFF802
:10401000A0120869002500220AE0067DA64206D10A
:104020004E68036AF61AAE4224BF35460246C0689F
:104030000028F2D12AB1BDE8704000211046FFF7F8
:10404000BCBC70BDBBC2002058000020F00A0108B3
:10405000F8B5054600F070F80400954E42D170693D
:104060000023002107E07468026AA41A9C4224BF5E
:1040700023460146C0680028F5D111B10846FFF774
:1040800003FD00F059F804002CD10920FFF7B0FF20
:1040900000F052F8040025D10820FFF7A9FF00F036
:1040A0004BF804001ED1802DACBF7F232B46306916
:1040B000002700210DE0447DA34221BFD6F804C0B3
:1040C000026AACEB0202BA4202D31746014623460B
:1040D000C0680028EFD111B10846FFF7D5FC00F009
:1040E0002BF8044624B39821204601F0EFFA04F19E
:1040F000480065754FF4866101834FF4066262855E
:1041000022854FF40673FF22A27263860622A4F86A
:104110004020E28701234FF0FF322286038072683D
:1041200022627378664A637741808263654981645D
:104130002046F2BDC4C10020012000F05BBE38B5AE
:104140000446207D00281CBF0A28012819D004F14C
:104150006405286918B1FFF796F800202861E8681F
:10416000FFF70BFF0021E9604FF0FF302086686801
:10417000FFF703FFA868FFF700FF00206860A86052
:10418000288031BD38B502460C461068A04203D1E4
:10419000C068106006E0084620B1C168A142FAD1AB
:1041A000E168C1600022E2602046FFF7C8FF207D81
:1041B0000A280DD001282AD0A17EC80708D541F0D1
:1041C0000201A176204600F045FA207D01281ED08C
:1041D000A06EDFF8E05030B105F1280340F25372D1
:1041E00044A100F018F8D4F86C0030B105F12803B0
:1041F00040F2547245A100F00EF8D4F8700030B1CE
:1042000005F1280340F2567247A100F004F800219E
:104210002175E18231BD284600F060BE244A9169D3
:10422000506840189061704710B50446084601F088
:1042300051FA00281EBF418D08B2002805D0A1F117
:10424000280080B2844288BF0446204610BD38B59D
:104250000546084600E0204638B102682968C4686F
:104260008A4208BFFFF710FCF5E731BD70B50400C6
:104270000D461CBF2068002819D00D4E316920461C
:10428000FFF7E5FFB1682046FFF7E1FF002D1CBFF7
:10429000286800280BD0F068002807E0036822682F
:1042A000C168934204BF2E6806600800F6D170BD55
:1042B00058000020F00A0108B84C0A00F824010058
:1042C000CD3F000800DD6D006E65775F7263765F3D
:1042D000616E6E5F776E64203C3D20307866666666
:1042E00066000000696E76616C69642073746174A5
:1042F00065000000756E73656E74207365676D658B
:104300006E7473206C65616B696E6700756E6163B6
:104310006B6564207365676D656E7473206C656191
:104320006B696E67000000006F6F736571207365C5
:10433000676D656E7473206C65616B696E670000F4
:104340000102030405060707070707070700000027
:1043500003060C18306078002DE9F0410E46054642
:104360001146891914319846002289B20120FEF7BE
:104370009BFD040031D0618906F11400814208DA06
:10438000DFF8FC0500F15803732200F1280100F06A
:10439000A5FD6768E88AFFF7E5F938803606288BBF
:1043A000FFF7E0F97880C7F80480B60E686AFFF777
:1043B000DFF9761DB860360346F01006B0B2FFF79D
:1043C000D1F9B881688DFFF7CDF9F88100213982E4
:1043D0007982688D696A4118E9622046BDE8F081FA
:1043E00038B50546AC6EC4B100E00446206800282C
:1043F000FBD1E1688889FFF7B5F910F0070F0CD100
:104400000120FFF7AFF9E268918908439081A87E07
:1044100040F02000A876002032BD2846BDE8344098
:10442000012151E02DE9F0478046089D0F46924654
:104430009946032005F0010600F0DCFCB6000400FC
:1044400003D13846FEF71FFF1AE0A5720021216054
:1044500067603889B04208DADFF824050FF200718E
:1044600000F15803BA2200F039FD3889801B208101
:1044700014213846FEF703FF20B12046FFF786FDE2
:1044800000201FE061684868E060B608B8F81600D0
:10449000FFF768F9E1680880761DB8F81800FFF7A3
:1044A00061F9E16848804846FFF762F9E1684860D1
:1044B0004AEA0630FFF756F9E26890810021E06889
:1044C00041822046BDE8F0872DE9F8438846002662
:1044D00018F0030F0546DFF8A89407D109F1580337
:1044E00040F21B3209F5127100F07CF805F1620709
:1044F0003888082803DC4FF6FD71884202D35FEA52
:10450000C8721FD55FEA887048BF01260022B1003B
:104510000020FEF7C9FC040014D06089B0EB860FC0
:1045200007DA09F1580340F2413209F5287100F029
:1045300059F800964246AB6D21462846FFF772FFB8
:10454000040006D1A87E40F08000A8764FF0FF302E
:1045500046E0207B10F0030F07D009F1580340F22A
:1045600049320FF2146100F03DF8208938B109F1A9
:10457000580340F24A3209F5377100F033F805F17B
:104580006806316811B9346004E001460868002803
:10459000FBD10C60002018F0030F788002D0A86DCA
:1045A000401CA8655FEAC87103D5A87E40F02000D2
:1045B000A8766068FEF7C9FE39884018388080B256
:1045C00068B17068002804BF3168002907D109F17B
:1045D000580340F26D3209F5427100F003F80020F3
:1045E000BDE8F283484600F079BCFEB50646F06CA3
:1045F000FFF7BEF80346002200213046FFF7ACFE6D
:10460000040006D1B07E40F00300B0766FF00100E8
:10461000FEBD301D01F05EF810B96FF003070BE02E
:10462000029006210191321D707A00903146B37AD2
:10463000204601F03EF907463D462046FEF723FEA0
:10464000B07E002D14BF40F0030000F0FC00B076F7
:104650003846FEBD2DE9F84F054684B0287DDFF8C9
:104660002083012808D108F1580340F2ED3208F503
:104670004C71404600F032FCC24A1068A84200F07B
:10468000268105F14806B18A3088814234BF039102
:104690000390A97E346A88070AD524B100F0B2F9E4
:1046A00000F019F904D2284605B0BDE8F04F9CE7A8
:1046B000D6F82490B9F1000F05D000E08146D9F872
:1046C00000000028FAD1281D01F004F85FEA000A72
:1046D00007D0002D1CBF2868002807D11AF104005C
:1046E00002D16FF00300F3E000682860002C13D0C3
:1046F00000F088F900F0EFF80FD273B1B18A8B4265
:104700000BD1706A48B905F194014878002803D1AB
:10471000002201200A704870D1E000F073F900F027
:10472000DAF8F9D300F018FA400708D508F1580371
:1047300040F246420FF25841404600F0CFFB706A0B
:1047400098B1AA7E12F0440F0FD1306A28B10168E7
:1047500059B90089698E884207D2308B28B1708B95
:10476000082802DC12F0A00FD6D0287D022806D03F
:104770001020FEF7F7FFE268918908439081606896
:10478000C189012947D1686AFEF7F2FFE1688860B4
:10479000688DFEF7E7FFE168C8816A6A688D821854
:1047A000EA6201F11407A17AC80709D5291D4FF45F
:1047B0000670FFF739FD40F00170FEF7D9FF386051
:1047C000B5F93000002844BF00212986686B38B94C
:1047D0006D4908686863E1684868FEF7C9FFA86327
:1047E0006068E168426843898A1A92B29B1A4381E1
:1047F000416003899A1A0281062300220A82CDF8B9
:1048000008A001932A1D697A00912946AB7A01F02C
:1048100050F8010027D120683062297D022903D099
:10482000A87E00F0FC00A87600F0ECF8074600F047
:1048300093F910F0030118BF012120897268C7198C
:10484000C919521A48BF716000F086F910F00300D0
:1048500018BF0120218940182AD000222260706AE6
:1048600030B9746222E0A97E41F08001A9762FE080
:1048700000F0C8F80746D9F80C0000F0C4F83F1A59
:1048800012D505F16C0700E03F68386840B1C06898
:1048900000F0B9F8834600F0B5F8BBEB0000F3D4A4
:1048A000386820603C6006E0C9F80040A14602E09C
:1048B0002046FFF76BFB346A002C7FF42EAF306A82
:1048C00008B90021B183A87E00F07F00A8760020FF
:1048D00005B0BDE8F08F6A6C2189039B801A081827
:1048E000834270472DE9FF478146884615469A4620
:1048F000002214210120FEF7D7FA04003DD0608980
:10490000142808D21E4800F1580340F24D5200F11D
:10491000280100F0E3FA0D9E0C986768FEF722FF6D
:1049200038803046FEF71EFF78804846FEF720FFAD
:1049300078604046FEF71CFFB86045F21400FEF7B1
:1049400011FFB881002146F20800F881398279828E
:10495000504600F0BFFE50B10290062200200192A6
:1049600000902946FF235246204600F0A2FF204631
:1049700004B0BDE8F047FEF786BCBDE8FF87000045
:1049800098070108C4C100205C00002000F1340336
:104990009A6B0AB970470A4611680029FBD1596B16
:1049A000116000219A6B99635A63997BFF291CBFA0
:1049B000491C9973002119604CE6F8B500F13405E3
:1049C000AC6BF4B12168A96300F1680600E03668B9
:1049D000306840B1C1684868FEF7CAFE074600F07B
:1049E00011F83F1AF3D4316821603460206808B9A7
:1049F00000212986A87BFF281CBF401CA87300202B
:104A00002860F1BDE0684068FEF7B2BE38B50446E4
:104A100004F14805686AE0B1A17E480719D4204630
:104A2000FFF7CBFFA98A2888884238BF0146608EED
:104A30004908B1EB400F38BF41008AB200EB40009B
:104A400080182880A07E40F00400A07669800020B5
:104A5000208631BD3EB50546E86C401EFEF788FE57
:104A60000346002200212846FFF776FC040002D10D
:104A70004FF0FF303EBD281D00F02CFE10B96FF046
:104A8000030508E000F062F82A1DAB7A29462046AB
:104A900000F00FFF05462046FEF7F5FB28463EBD19
:104AA0002DE9FF410646F46E1CB9B46E0CB9002026
:104AB00049E000F051F8C10704D52089451EAD41F9
:104AC000ED0F00E00025E068436885F00102002159
:104AD0003046FFF741FC5FEA000808BF4FF0FF30A7
:104AE00031D0D8F804704DB11120FEF73BFEBA89E1
:104AF0004CF2FF010A401043B88109E06068218947
:104B000003895B1A9BB2012207F11401FEF701FD34
:104B1000FFF778FFF16C401C091A48BFF064301DA4
:104B200000F0D8FD10B96FF0030408E000F00EF8B3
:104B3000321DB37A3146404600F0BBFE0446404683
:104B4000FEF7A1FB204604B0BDE8F08102900621EB
:104B50000020019100907047E0688089FEF702BE56
:104B6000702D3E746F745F6C656E203E3D206F70DB
:104B7000746C656E000000007365672D3E74637091
:104B8000686472206E6F7420616C69676E65640082
:104B9000525354206E6F7420657870656374656439
:104BA000206865726521000080B5FEF7F0FD674959
:104BB0000868002802BF66490868002802D0BDE8DE
:104BC000084012E063480021016001BD61490868A6
:104BD00050B95E4A1068002802BF5D4A106800287C
:104BE00002D001230B6000E0704700225A49FA20EE
:104BF0001CE010B50446606880472068574922468B
:104C0000BDE8104012E070B50126544C544D55F8E3
:104C1000360005EBC602214600F008F8761C052E8A
:104C2000F5D301F0BDF84F49486070BDF8B50546B1
:104C30000E4617460A2000F0DDF804000AD101B044
:104C4000BDE8F040484800F16803D42200F1280193
:104C500000F044B901F0A4F8424B0146186810B9BD
:104C60002A46596002E05A6849198A1A00212160CF
:104C7000A660E760626028B141688D4204D24D1B96
:104C8000456020601C60F1BD024600E00A46636892
:104C900051685B1A6360116839B14E68B342F5D24E
:104CA00019B14868C31A4B6004E09D4202D24068C3
:104CB0004519656021601460F1BD2DE9F047824619
:104CC0008846DFF8A890274E306830B941465046F4
:104CD000BDE8F047002200F035B901F061F8024666
:104CE00070683168121A4868904208D3821A06D058
:104CF0004146504600F026F910F1010F23D13068EB
:104D00000028E3D001F04CF804467068241A31689A
:104D10000029D9D04A689442DFD3706810187060B7
:104D2000A41A0A6832608D68CF680A2000F090F8F3
:104D3000002DECD0484600F03FF93846A8474846D9
:104D400000F03FF9E3E7BDE8F087000068000020CD
:104D50006C000020ACC20020A94B0008F34B0008F7
:104D6000201F010864C20020801901084CC20020E5
:104D700030B5816800220A6000234268D21C920884
:104D8000920005E00D6815600A605B1C04882244EF
:104D90004488A342F6DB30BD38B50025374CA8B2B5
:104DA00054F82000FFF7E4FF6D1CA9B20D29F6D3DB
:104DB00031BD38B5044600F01EF90546A068046808
:104DC0009CB12168016014F0030009D02B4800F168
:104DD000800300F15C0140F24912343000F07EF8AB
:104DE000284600F011F9204632BD284600F00CF9A3
:104DF000002032BD10B50D28204C0ADB04F18003E1
:104E000040F287121EA104F1340000F067F8002080
:104E100010BD54F82000BDE81040CAE738B504467C
:104E20000D4615F0030009D0DFF850001CA100F179
:104E3000800340F29D12343000F050F800F0DBF8AF
:104E4000A268116829601560BDE8324000F0DCB846
:104E500010B50D28094C0ADB04F1800304F134007D
:104E6000BDE8104040F2DB1215A100F037B821B1C7
:104E700054F82000BDE81040D0E710BD1818010814
:104E80006D656D705F6D616C6C6F633A20747970E5
:104E900065203C204D454D505F4D415800000000BD
:104EA0006D656D705F667265653A206D656D207029
:104EB000726F7065726C7920616C69676E656400F1
:104EC0006D656D705F667265653A207479706520F6
:104ED0003C204D454D505F4D415800000EB41EB56D
:104EE000024605A801900024009401AB012104486A
:104EF00078440C3000F0F1FF03B010BC5DF810FBFB
:104F0000B9D0000010B5044608460022042102F082
:104F100065F9206000B94CE0002010BD13B50446CF
:104F200020684FF0FF33002201A902F099F9002810
:104F3000F6D113BD02B5006800230022694602F0D5
:104F40008FF91BE0F8B507460D46144601F061FFE6
:104F50000646386844B123460022294602F0B3F9D8
:104F600040B14FF0FF30F2BD4FF0FF330022294631
:104F700002F0A9F901F04DFF801BF2BD08B14FF01E
:104F8000FF3002BDFFE7006800B10120704700005C
:104F900080B5002001F0D6FF1E49086001BD10B5A4
:104FA0000446002001F0CEFF206000B901E000209F
:104FB00010BD4FF0FF3010BD00684FF0FF3102F020
:104FC00001B8006802F02DB82DE9F84189B0074614
:104FD0000D46109E90461C466846242100F076FB44
:104FE0000097059406966A464146284601F025FF3B
:104FF0000AB0BDE8F08180B5064A10684FF0FF3175
:1050000001F0E0FF012002BD0249086802F009B882
:1050100000000000A8C200207CB56B4C216809B1DB
:105020006068884704F10C00FFF7C6FF6BA5674E68
:1050300006E006F12803692229463046FFF74EFFB5
:1050400004F10C00FFF7BDFF694604F10800FFF70B
:1050500034FE04F10C00FFF7AFFF00980028E8D001
:105060000178022904D019D3042912D00AD315E0FB
:10507000009B81684068DA68904700990920FFF733
:10508000E7FEDDE7009A80685168884700990820AC
:10509000F5E7009A806851688847D1E706F1280350
:1050A0009B22C9E72DE9F04100F04FF820B900F04C
:1050B00055F8B522FFF712FF0920FFF79BFE040009
:1050C0000ED0022020706560A660E760214608F1DE
:1050D0000800FFF72FFF28B121460920FFF7B8FE8F
:1050E0004FF0FF30BDE8F08191F8332012F0180F37
:1050F00014BF374A374AD5E72DE9F04100F025F8CB
:1051000020B900F02BF8EE22FFF7E8FE0820FFF7A9
:1051100071FE040002D14FF0FF300BE0032020703D
:10512000002F6560A660214608F1080004D0FFF753
:10513000F5FE0020BDE8F081FFF7FCFE0028F8D066
:1051400021460820FFF784FEE5E70546DFF8788072
:105150000E46174608F10800FFF714BFDFF86C0091
:1051600026A100F1280370477CB506460C4602F0E4
:10517000FBF8154D06212E606C6005F10800FFF765
:10518000C1FE124C40B104F1280340F2D51204F1E3
:1051900064012046FFF7A2FE05F10C00FFF7FFFEB9
:1051A00040B104F1280340F2D91204F188012046ED
:1051B000FFF794FE182000904FF480630022064908
:1051C00012A0FFF701FF73BD40C20020D4180108F0
:1051D000D5F6000827570008195000087463706955
:1051E000705F7468726561643A20696E76616C699B
:1051F00064206D657373616765000000496E7661B8
:105200006C6964206D626F780000000074637069DF
:10521000705F74687265616400000000DFF89803D5
:1052200000F10F0110B58908002389004B800B7134
:105230004FF4C86201F5C8640A80012323712280FB
:10524000628081604460016000F5CC60FFF7A7FEDA
:1052500058B1BDE81040DFF864030FF2BC3100F133
:1052600028034FF4CC72FFF739BE10BDF8B5040027
:1052700000F0938014F00300DFF8407307D007F1CB
:1052800028034FF4D67207F1900100F099F9CA4D46
:1052900029688C4202D36868844207D307F1280347
:1052A00040F2AF120FF28C3100F08AF929688C427B
:1052B00002D36868844205D3FFF79DFEBDE8F24043
:1052C000FFF7A2BE05F5CC663046FFF775FE083C39
:1052D000207938B907F128034FF4E0720FF26C31EE
:1052E00000F06EF900212171A868844238BFAC60DB
:1052F0002868844280F0078007F1280340F25D129D
:10530000B1A100F05DF96868844206D307F1280373
:105310004FF4AF72B2A100F053F994F8040030B129
:1053200007F1280340F25F12B4A100F049F9208888
:1053300040F24161884207D307F128034FF4B1726C
:1053400007F1640100F03CF9296822888B189C421F
:105350000ED0187960B96F68BB4209D0A86898422E
:1053600008BFAC60188820808F1C1B88601AF85218
:105370006788CB19A3420BD0187948B9A868A04216
:1053800008BFAB60208818805A1A2388891CCA522B
:105390003046BDE8F240FFF714BEF1BD2DE9F843F9
:1053A000C91C4FF6FC7202EA01050C2D32BF0C2518
:1053B00040F241618D4231D27F4FDFF8008239687F
:1053C0008146894502D37868814507D308F12803CF
:1053D0004FF4FA72A2A14046FFF780FD3E68B14546
:1053E00002D37868814504D3FFF705FEFFF70CFE72
:1053F00051E0A9F1080139F8080C8E1B801BA0F1BF
:105400000804A4B2AC4207DA08F1280340F20622ED
:1054100099A14046FFF762FDAC4201DA00203BE073
:10542000A54238D007F5CC684046FFF7C5FD3A687D
:1054300039F8083CB9681344187978B9AD190835BA
:10544000ADB218885419994208BF21460023237130
:105450002080668029F8085C208813E005F114009C
:10546000844214D3AD190835ABB2D018884238BF86
:1054700001460023037139F8083C0380468029F86F
:10548000085C0088B0F5C86F1CBF921C1552B9604B
:105490004046FFF796FD4846BDE8F2832DE9F0410E
:1054A000070015D0C71C4FF6FC7007400C2F0CD21C
:1054B0000C27414E06F5CC684046FFF77DFDB168EC
:1054C00032688B1A9BB23D4607E0B7F5C86FF0D93A
:1054D0000020BDE8F081BCF80030C5F5C864A342E7
:1054E00065D202EB030C644620790028F3D12088B2
:1054F000C01A0838A842EED305F1140C604516D343
:10550000FF180837B8B210444FF0000E80F804E0DE
:10551000B4F800C0A0F800C04380278001232371A5
:105520000088B0F5C86F04D01044478001E0012026
:1055300020718C42214F14D1736801E00888111842
:105540000879002818BF9942F8D1B160994218BF74
:10555000002806D007F1280340F2CF224EA100F028
:105560002FF84046FFF72DFD70682D190835A84229
:1055700007D207F128034FF4357207F1B40100F0A8
:105580001FF814F003000FD007F1280340F2D622D1
:1055900007F1E40100F014F807F128034FF4367224
:1055A00007F58A7100F00CF804F1080091E7404615
:1055B000FFF707FD8CE7000018940020F0140108A5
:1055C0003846FFF78BBC0000706C75675F686F6CC6
:1055D00065733A206D656D203E3D2072616D00005F
:1055E000706C75675F686F6C65733A206D656D20D0
:1055F0003C2072616D5F656E64000000706C7567C1
:105600005F686F6C65733A206D656D2D3E757365CF
:1056100064203D3D203000006661696C6564207443
:105620006F20637265617465206D656D5F6D757463
:10563000657800006D656D5F667265653A206C6522
:1056400067616C206D656D6F727900006D656D5FCF
:10565000667265653A206D656D2D3E7573656400F3
:105660006D656D5F7472696D3A206C6567616C2061
:105670006D656D6F727900006D656D5F7472696D37
:105680002063616E206F6E6C7920736872696E6B37
:10569000206D656D6F7279006D656D5F6D616C6C0D
:1056A0006F633A20216C667265652D3E7573656483
:1056B000000000004AB1000011F8013B521E00F842
:1056C000013B1CBF11F8013BF8E77047002201F0D5
:1056D00063BE000070B50246DFF8CC0214680068B3
:1056E000A0B190F8333003F005010529F7D14168E6
:1056F0000029F4D0866806EA040531408D4211D0B5
:105700009B07ECD4C1688C42E9D170BDA748006802
:1057100038B190F8331001F00501052901D1416835
:1057200001B9002070BD2DE9F84F0646884677681C
:1057300039780809042867D1880000F03C09788886
:10574000FEF710F804463089214681423CBF3046BE
:10575000FDF7DAFC7089484556DB3189A14253D305
:10576000B9F1140F50DB3869914D686100F0F00019
:10577000F9682961E02813D198F83300C10733D5BF
:10578000D8F8040080B3444694BB787A112802BF4D
:10579000B91C31F80900B0F5884F29D1444632E0F0
:1057A0004FF0010B4446DFF800A294F83310C8070D
:1057B0000AD5606840B16A698242E5D02146104648
:1057C000FDF70AFB0028DFD1BBF1000F0ED0287DCA
:1057D0007F2809D0DAF800404FF0000B444508BF9D
:1057E0002468002CE1D1D0E70024CEE72468F5E757
:1057F000286940B14146FDF7EFFA28B9287C00F04E
:10580000F000E02800D01CB93046FDF73CFD09E06F
:10581000F9884FF63F70014207D0304601F0B3FEE1
:10582000060001D1002042E077682C60C5F80480B2
:10583000AF60C9F100013878800000F03C00A88119
:1058400009B23046FDF71BFD787A01280DD00628F5
:1058500006D011280ED14146304602F09AF91FE0D9
:1058600041463046FCF70EF91AE04146304602F058
:1058700071FB15E068692146FDF7AEFA68B9287D2D
:1058800000F0F000E02808D049463046FDF7F9FC6A
:1058900077600221304602F0EBFB3046FDF7F3FC67
:1058A000002028606860A860A88128616861BDE860
:1058B000F28F3EB5089D0C4622B100291ABF096837
:1058C00000292C1D02959DF818109DF81C50009180
:1058D0000195214600F002F83EBD00002DE9F84395
:1058E00006468846F089DFF8CC90012814461F460A
:1058F00000F0088009F1280340F2333230A1484615
:10590000FFF7ECFA002C38D014213046FDF7B7FC35
:1059100010B16FF0010045E070897568142808D255
:1059200009F1280340F2613209F168014846FFF7A6
:10593000D5FA099808992F726872452022681E4F7F
:105940002A61287069703089FDF70CFF688000209B
:10595000E8803888FDF706FFA8803888401CB8F139
:10596000000F388003D115490868E86002E0D8F8D4
:105970000010E9600020688103E071680869009008
:105980006C460A9B588D40B13189884205D2224627
:105990001946304601F0A2FF04E018465B69224632
:1059A00031469847BDE8F28354C2002058C2002017
:1059B00014C20020C41A0108B4C20020B820010893
:1059C000702D3E726566203D3D20310010B586B0D9
:1059D000044614216846FFF779FE2268DFF8A41414
:1059E0008A4270D100200590DFF89C04026842F0E2
:1059F00000720260016801F0007100F066F842F088
:105A000080620260016801F0806100F05EF842F09F
:105A100000620260016801F0006105910021059AB1
:105A20000591036843F004030360016801F0040179
:105A300000F04BF842F001020260016801F0010140
:105A400005910021059A05910221036843F00203A4
:105A500003600323006800F0020005903220059ADD
:105A6000019100900B210022049102920393694658
:105A7000DFF8180402F044FB022186220191009213
:105A800000200B2102900322049103926946DFF863
:105A9000000402F035FB00210222029101924FF432
:105AA00060500B2100900322049103926946DFF8B5
:105AB000E40302F025FB002207213D2002F047FC11
:105AC0003D2002F063FC06B010BD05910021059B4E
:105AD000059102687047DFF8C013886C01F04EBB77
