:020000040800F2
:10000000E8180020DD2D0008F52B0008F72B00086C
:10001000F92B0008FB2B0008FD2B00080000000056
:10002000000000000000000000000000FF2B00089E
:10003000012C000800000000032C0008052C00081B
:10004000F52D0008F92D0008FD2D0008012E0008EF
:10005000052E0008092E00080D2E0008112E00089C
:10006000132C0008152E0008192E00081D2E00085C
:10007000212E0008252E0008192C00081F2C00082E
:10008000292E00082D2E0008312E0008352E0008DC
:10009000392E00083D2E0008412E0008452E00088C
:1000A000492E00084D2E0008512E0008552E00083C
:1000B000592E00085D2E0008612E0008652E0008EC
:1000C000692E00086D2E0008712E0008752E00089C
:1000D000792E00087D2E0008812E0008852E00084C
:1000E000892E00088D2E0008912E0008952E0008FC
:1000F000992E00089D2E0008A12E0008A52E0008AC
:10010000A92E0008AD2E0008B12E0008B52E00085B
:10011000252C0008B92E0008BD2E0008C12E0008AD
:100120002B2C0008C52E0008C92E0008312C000811
:10013000CD2E0008D12E0008D52E0008D92E00089B
:10014000DD2E0008E12E0008E52E0008E92E00084B
:10015000ED2E0008F12E0008F52E0008F92E0008FB
:10016000FD2E0008012F0008052F0008092F0008A8
:100170000D2F0008112F0008152F000800000000A7
:10018000192F000838B5040001D1012032BD00202C
:10019000A06204F15005687820B900222A70204638
:1001A00000F0F6FC0221697000F052FC6268A06861
:1001B000E168A369024320690A43616902430A4373
:1001C00003F40073E069216A1A430243A06A2368BA
:1001D0000A4302431A60A169606A2268090C01F0AF
:1001E0000401014351602168C86920F40060C861BE
:1001F0000021696001206870002032BD2DE9F843BC
:10020000074607F15006002530780C46914698467F
:10021000012808BF022000F096800120307000F015
:10022000C5FD7178012918BF022554D1002C18BFD3
:10023000B9F1000F00F08380032171700023736017
:100240003C63A7F83490A7F836900021B963BB87C8
:10025000F9877B643964BB68B3F5004F04D13B6810
:10026000196841F48041196039680B685C0603D451
:100270000B6843F040030B604446F968B1F5006F2A
:1002800079682CD1002918BFB9F1010F09D13B6B56
:1002900039681A88CA603B6B9A1C3A63F98E4A1E09
:1002A000FA86804606E03A6B1188C1603A6B901C72
:1002B00000F0C7F9F88E002835D0386882689107B9
:1002C000F1D400F073FDA0EB0800A04204D314F1B8
:1002D000010FEFD0032533E0002CEBD1FAE7002922
:1002E00018BFB9F1010F00F0C2F9804608E03A6B7F
:1002F00011780173386B411C3963F88E411EF98601
:10030000F88E80B1386882689107F0D400F04EFD15
:10031000A0EB0800A04203D314F1010FF0D0D9E7FD
:10032000002CEDD1D6E742462146384600F0F3FBDB
:1003300008B12020706000F08FF9706800B10125CD
:1003400000F09DF82846BDE8F2832DE9F843074602
:10035000002478680D469146984607F15006B0F59E
:10036000827F04BFB86800280BD14FF0040C86F8D8
:1003700001C0CDF800804B462A46384600F084F88C
:100380007BE03078012808BF022076D00120307051
:1003900000F00CFD7178012918BF02246AD1002DEC
:1003A00018BFB9F1000F64D004227270002171608F
:1003B000BD63A7F83C90A7F83E903963B986002248
:1003C000FA8639647A64B968B1F5004F04D13A68A5
:1003D000116821F48041116039680A68530600F001
:1003E00035F90546F968002926D108E0007BB96B8C
:1003F0000870B86B421CBA63F98F481EF887F88FF3
:1004000068B338688268D107F0D400F0CFFC401B95
:10041000404504D318F1010FF1D003242AE0B8F1CC
:10042000000FECD1F9E7C168B86B0180B96B8A1C89
:10043000BA63F98F481EF887F88F80B138688168F1
:10044000CA07F0D400F0B2FC401B404503D318F1BA
:10045000010FF1D0E1E7B8F1000FEDD1DDE72A4659
:100460004146384600F042FB08B1202070607068B9
:1004700000B1012400F003F82046BDE8F28301201A
:1004800070700021317070472DE9FC47074607F175
:100490005006012530788A4691464FF00008012821
:1004A00008BF022000F0CB801C46357000F07EFCB7
:1004B0007278012A23460AD07968B1F5827F02BF9B
:1004C000B9680029042A02D04FF00208B4E0BAF15A
:1004D000000F18BFB9F1000F00D00CB9A846ABE06F
:1004E00096F801C0BCF1040F1CBF4FF0050E86F852
:1004F00001E0C446C6F804C0C7F83890FC87BC8742
:10050000C7F830A0FC86BC86C7F84080C7F8448096
:1005100039680A68540600F099F8F9680A9CB1F540
:10052000006F796841D1002918BF012B09D13B6BBD
:1005300039681A88CA603A6B911C3963FA8E511E69
:10054000F9868146F88E002804BFF88F002866D00F
:100550003968886882070CD5F88E002818BF002DEE
:1005600007D0386B0288CA600025396B881C00F000
:1005700068F839688868C2070BD5F88F48B1C86831
:10058000B96B08800125B86B821CBA63F88F411ED5
:10059000F98700F00BFCA0EB0900A042D2D314F1C4
:1005A000010FCFD04FF0030846E0002918BF012B00
:1005B00000F05DF88146F88E002804BFF88F00280F
:1005C0002DD03968886882070CD5F88E002818BFAE
:1005D000002D07D0386B02780A730025396B481C50
:1005E00000F02FF839688868C2070BD5F88F48B13A
:1005F000C868B96B08700125BA6B501CB863F98FD5
:10060000481EF88700F0D2FBA0EB0900A04203D3FC
:1006100014F1010FCFD0C5E7002CCCD1C2E74A4678
:100620002146384600F077FA20B120204FF001082B
:10063000706001E000F010F8FFF721FF4046BDE8D0
:10064000F6873863F98E481EF886704703D40A6827
:1006500042F040020A607047B86838B90021009142
:100660003968C868009089680091009A704709D17C
:100670003B6B39681A780A733A6B511C3963FA8EEE
:10068000511EF986704770B5064606F150050024E4
:100690002878012801D1022070BD01232B706878D1
:1006A000012818BF022439D109B1100001D1012459
:1006B00034E00320687000236B603163B286F286F9
:1006C0000021B16371643164B187F187B068B0F51E
:1006D000004F04D13168086840F480400860B06C75
:1006E0000FF235310164B06C0FF23521C163B06C8B
:1006F0000FF23D31C164B06C0365F38E3068316B2D
:1007000000F10C02B06C00F0CFFB10B100F067F804
:1007100004E000F06CF840F002004860002028700F
:10072000204670BDF8B506460024B06806F15005B5
:10073000002804BF7368B3F5827F08D104246C706D
:10074000304601B0BDE8F04013460A465FE02F781E
:10075000012F01D10220F2BD01272F706B78012BF0
:1007600018BF022437D109B1130001D1012432E0AE
:1007700004236B7000276F60B163B287F28700219A
:1007800034647164B486B0F5004FF18604D13168E9
:10079000086820F480400860F06C0FF28521016445
:1007A000F06C0FF2C511C163F06C0FF28521C164CA
:1007B000F06C0465F38F3068B26B00F10C01F06CE3
:1007C00000F072FB10B100F00AF804E000F00FF83E
:1007D00040F001004860002028702046F2BD6868A3
:1007E00040F0100068600124012068707047306894
:1007F00001684A0603D4016841F040010160316894
:10080000486840F020004860316848687047F8B593
:10081000044604F1500600253078012801D1022059
:10082000F2BD012030707778012F09D06068B0F5F3
:10083000827F02BFA0680028042F01D0022568E053
:10084000002918BF002A01D0180001D1012560E05D
:10085000707804281CBF0527777000207060216322
:10086000A386E386A263A387E38720646064E06CC9
:100870007278042A07D10FF2A91101640FF2E9007E
:10088000E16CC86306E00FF2A1120FF24511026499
:10089000E06CC163E06C0FF29911C164E06C056516
:1008A000E38F2068A26B00F10C01E06C00F0FCFA11
:1008B000A8B92168486840F001004860A06C056450
:1008C000A06CC563A06CC564A06C0565E38E206850
:1008D000216B00F10C02A06C00F0E6FA38B17068F0
:1008E00040F01000706001250120707011E0206858
:1008F00001684A0603D4016841F0400101602168A3
:10090000486840F0200048602068416841F00201DA
:100910004160002030702846F2BD90F851007047C9
:1009200038B500F040F800F039F811D400F03FF885
:1009300000F013F800F065F800F0FFF800F003F99C
:100940000020E086012184F85110606D00B13AE08A
:100950002046BDE8324000F0B9BD2168486820F06B
:10096000020048607047000038B500F01CF800F045
:1009700015F80ED400F01BF800F01FF86421204693
:1009800000F0B4F808B12021616500F03DF800B135
:1009900019E02046BDE8324000F09EBD2B68196882
:1009A0000246C80570470546AC6B00F0FFB92168E8
:1009B000486820F020004860704721684868800837
:1009C0008000486070472046BDE8324000F032BEEB
:1009D00038B5FFF7E8FFFFF7E1FF0DD4FFF7E7FFBA
:1009E00000F00FF800F0A9F8FFF7E7FF0021E1861B
:1009F00000F00AF800B1E6E72046BDE8324000F01A
:100A000079BD6421204686E00020E087012184F83A
:100A10005110606D70470000806B00F00CBE00004C
:100A2000806B00F009BE0000806B00F006BE000085
:100A3000806B026851688908890051600121426D0C
:100A400042F01002426580F8511000F0F3BD000042
:100A50002168086820F04000086070472DE9F041E7
:100A6000069F05460E4690461C4629688868304019
:100A7000B0420CBF01210021414534D014F1010FD7
:100A8000F3D000F093F9C01BA04201D2002CECD1AE
:100A90002968486820F0E00048606868B0F5827F07
:100AA0000BD1A868B0F5004F18BFB0F5806F04D126
:100AB0002968086820F040000860A86AB0F5005F67
:100AC00009D12868016821F400510160296808688B
:100AD00040F40050086005F15000012242700021EE
:100AE0000170032000E00020BDE8F0811CB5044641
:100AF0000B466068B0F5827F08D1A068B0F5004F62
:100B000018BFB0F5806F01D1FFF7A2FF00928021DE
:100B10000022204605E01CB500920B460446002248
:100B20008021FFF79BFF10B100F002F8032016BDF3
:100B3000606D40F020006065704718B1606D40F056
:100B4000200060657047A06838B9002100912168D5
:100B5000C868009089680091009A704781B00020B1
:100B600000908548416841F480414160416801F44A
:100B7000804100910021009B0091026842F0805268
:100B80000260006800F080500090009801B070474B
:100B90002DE9F84386B0054600F0E8F82A68774B5F
:100BA000774878499A424FF4806943D100220092F5
:100BB0004FF0C0674B69744C43F480534B614FF462
:100BC00000384A6902F4805200920022009E6F4E63
:100BD00000920B6843F002030B600223096801F0E6
:100BE000020100913821009A0293002203920191A0
:100BF000032305220493059201A900F01FFD26603E
:100C000067600020A06000F06CF808B100F010FDF3
:100C1000EC64A56306F148005D4C206067604021EC
:100C2000A160002000F05DF808B100F001FDAC64A7
:100C3000A5634EE0574B9A424BD1002200920B69BC
:100C4000554F43F480430B610A6902F480420092DD
:100C50000022009B009202220E6846F002060E60FF
:100C600009684E4E01F0020100914FF44441009B8F
:100C7000019102920321002304910522039305921E
:100C800001A900F0DBFC00207860B860F8607861B2
:100C9000B861F861386278623E6000F01DF808B112
:100CA00000F0C6FCEF64BD6340203D4F06F1180222
:100CB0000021B8603A607960F9607961B961F961E1
:100CC0003962796200F008F808B100F0B1FCAF6455
:100CD000BD6307B0BDE8F083C7F81090384600F058
:100CE0006BB8E060C4F810906061A061E061C4F886
:100CF00020806062204600F05FB810B586B00446E0
:100D000000F034F8236827498B422DD10020009051
:100D10001C48016941F400210161016901F40021CD
:100D200000910021009B0091026842F004020260E1
:100D30000222006800F0040000904FF44060009927
:100D4000029201210391019008210322059104924E
:100D500001A9154800F072FC00220021342000F0A7
:100D600094FD342000F0B0FD06B010BD1421002227
:100D700001A800F0D1BD0000403802400030014021
:100D80000004024030380240E412002010640240A7
:100D90004413002000380040A41300205860024093
:100DA00004140020004C0040000802400148406844
:100DB000704700BF3000002070B50446FFF7F6FF13
:100DC00006460CB9012070BD04F1340500202870DE
:100DD0000221697000F062F822681168C80708D51E
:100DE000FFF7E4FF801B0628F6D3202129620320A9
:100DF00052E01368DFF8DC0261680340A0680B432F
:100E0000E168034320690B4361690343A0690B4315
:100E1000E16903430B43216A606A1943042803D143
:100E2000E06A0843216B0143116022685369606ADC
:100E3000DB08042840EAC3030AD1A66AE06A334308
:100E400030B1A16989B9002E18BF022E1FD016D368
:100E50005361204600F05AF9A96A3F228A40826015
:100E6000002028620121697070BDB1F5005F0AD1D0
:100E7000032EEDD8DFE806F00D0B0D03E8E7B0F127
:100E8000C07FE5D105E0022E03D9F61EE0D1C001F6
:100E9000DED5402129620120687070BD2168086894
:100EA0004008400008607047F8B5044604F1340774
:100EB000002538787E6A012801D10220F2BD012088
:100EC0003870787801281DD14FF0020C87F801C0E6
:100ED00000203862204600F009F9B86A3F2101FA83
:100EE00000FCC6F808C02068016841F016010160E6
:100EF000F86820B12168086840F00800086000F038
:100F000005F801E03D7002252846F2BD2168086819
:100F100040F001000860704790F83520022A03D0A5
:100F20008021416501207047052180F83510016856
:100F30000868400840000860002070472DE9FC4127
:100F4000064606F134050020634A00904FF416501F
:100F50006F6A11683C68B1FBF0F8A86A082101FAD1
:100F600000F004420ED0306803685A070AD50368BF
:100F700023F004030360A86A8140B960296A41F044
:100F800001012962A86A24FA00F2D1070BD5326860
:100F900051690A0607D5012101FA00F0B860286AF4
:100FA00040F0020028620421A86A81400C4208D067
:100FB00033681A68900704D5B960286A40F00400C5
:100FC00028621021A86A81400C421BD033681A683D
:100FD000100717D5B96030680268510307D500685B
:100FE00001030BD5696969B1304688470AE0016899
:100FF000CA0503D4016821F008010160E96809B15C
:1010000030468847A86A202181400C4241D032688E
:101010001068C3063DD5B9603068697805291ED1CE
:10102000026822F016020260316800F057F804BF2F
:101030006869002804D03068016821F00801016067
:101040003F22A86A8240BA600021297001226A709A
:10105000E96900293AD03046BDE8FC4108470168FB
:101060004A0307D5006801030FD4296989B13046C6
:1010700088470EE00168CA0507D4016821F0100115
:10108000016000222A7001206870A96809B1304609
:101090008847286AD0B1296AC80711D50521697027
:1010A0003168FFF7FCFE0098401C8045009003D398
:1010B00032681168C807F6D400222A7001216970CD
:1010C000A96919B13046BDE8FC410847BDE8F38184
:1010D000000000003F8010F03C000020486920F034
:1010E00080004861E86800287047000030B5046857
:1010F000256825F48025256063608068402802D13A
:10110000A260E16030BDA160E26030BD10B5014673
:101110001822086807A400F0FF03103BB3FBF2F2AB
:10112000800AA35CCB658002042A28BF001D886565
:1011300010BD000000061016000610162DE9F84339
:1011400086B000F007FC00F086F91421684600F034
:101150001BFC0020DFF87064DFF87044DFF8705487
:10116000DFF87094DFF87074DFF8708405903168F0
:1011700041F010013160306800F0100000F065F9B6
:1011800042F080023260306800F0800000F05DF9CB
:1011900042F002023260306800F002000590002048
:1011A000059A0590316841F004013160306800F023
:1011B000040000F04AF942F001023260306800F0A9
:1011C000010005900020059905901B21326842F02E
:1011D000080232600122306800F00800059005988E
:1011E000204600F00DFB00224021204600F008FBC5
:1011F00000224FF4E071284600F002FB00224FF479
:10120000A06100F017F900227B21384600F0F8FABF
:1012100001228021384600F0F3FA00228021404666
:1012200000F0EEFA04200021009002916946DFF8F8
:10123000B0230192204600F001FA5B2001210090CA
:1012400000F0FDF8204600F0F9F94FF4E07200F0EC
:10125000F4F8284600F0F2F94FF4007402210094EB
:1012600001910321002203910292049269462846CB
:1012700000F0E4F94FF4A06200F0DFF8484600F017
:10128000DDF9FB2200F0D9F8384600F0D7F98020CC
:10129000002100900122029103910192694640468B
:1012A00000F0CCF9002000903168CE4D41F40011DF
:1012B0003160306800F40010009000200099009028
:1012C0000021326842F4800232600022306800F46B
:1012D0008000009000980E2000F0D7FA0E2000F059
:1012E000F3FA002200210F2000F0CFFA0F2000F0C7
:1012F000EBFA00220021382000F0C7FA382000F075
:10130000E3FA002200213B2000F0BFFA3B2000F06E
:10131000DBFAB548E8654FF4E131296600206866DC
:10132000A866E8660C216867A867296705F15C0074
:1013300000F02EFB08B100F07BF9AC4FAC493960EE
:101340004FF482767E600020B860F8603861786182
:10135000F86138627862B862BC610A20F862384687
:10136000FEF710FF08B100F063F9DFF88882C5F8D6
:101370000480AE600020E8602861686101211020CF
:101380002862A9610A20002128636962A962E962D2
:10139000EC61281DFEF7F6FE08B100F049F90022C5
:1013A0000021082000F071FA082000F08DFA00F00A
:1013B00019FD00F089FE4FF480718F4800F0D4FED3
:1013C00005F19C0400208D4A206000238C48137096
:1013D00000218C4A0170137001228B48017005F1C5
:1013E0005C008A4900F02DFB18E004280BD100F0C6
:1013F0004DFE0020287006E00228F6D1002200F001
:1014000017F800212970B86D102805D107F15C008C
:1014100000F072FE0020B86500F0D4FED8F800009D
:10142000606028780128E7D1012200F001F8E0E7A8
:101430004FF48071484600F0E3B900920121019118
:101440000022029203926946704705900020059998
:1014500005903268704700B591B0302105A800F0C2
:1014600093FA1421684600F08FFA102109910122A5
:1014700000210C910892C3210E91022005900B903F
:101480000D220F9004210D92109105A801F042F851
:1014900008B100F0CDF8022101910F204FF48051E6
:1014A000009000234FF4A052049102930392032171
:1014B000684601F092F908B100F0BAF84FF0E06226
:1014C0000021012001F00DFA11B000BD474988420A
:1014D00000D0704780B504E04449884200D070478E
:1014E00080B50A2000F04AFD49490878BDE802406D
:1014F00000F051BD2DE9F041052000F03FFD012233
:101500004021324800F07CF94248C278017941EA32
:101510000221414A11804479837943EA04235380AC
:10152000C579047A44EA05249480467A857A45EAA6
:101530000625D580C77A067B46EA0726168190F8ED
:101540000DC0877B47EA0C27578190F80FE090F891
:1015500010C04CEA0E2CA2F80CC090F8118090F844
:1015600012E04EEA082EA2F80EE02C4A9480D580B4
:101570001180538016815781A2F80CC0A2F80EE0AA
:101580001A4CA56D102D08D2C11C04EB05101022B9
:101590005C3001F049FA6D1CA565BDE8F08182B0B0
:1015A000026811498A420DD10A2000900098411E1C
:1015B00000280091FAD100224FF48061054802B062
:1015C00000F01EB902B070473038024000100240EF
:1015D0000008024000000240000C024000040240EB
:1015E00000002110DC110020004C0040400C0020C5
:1015F00000380040003001409C0D00206F0F00209B
:10160000700F0020710F0020720F00206E0F00205D
:10161000730F0020AC14002014110020400A002099
:1016200080B5052000F0AAFCBDE8014000F089BCAF
:1016300072B6FEE770477047704770472DE9F84F64
:101640000027794EDFF8E4814FF00F0902460B4680
:101650002EE0774DAA4214BF4FF0090E4FF0080E4E
:101660000EFA01F141EA040E724941F82CE0C5433B
:1016700031685C682940E40348BF01433160716808
:101680005C682940A40348BF01437160B1685C688D
:101690002940E40248BF0143B160F16805EA010C4A
:1016A0005968890248BF40EA0C0CC6F80CC07F1C80
:1016B000186830FA07F100F0A1800121B940084014
:1016C000F5D04FEA470C032404FA0CF46FEA040E39
:1016D0005C68012C18BF022C03D0112C18BF122CEF
:1016E00010D19468DD680EEA040405FA0CF52C4369
:1016F0009460546824EA01015C68C4F30014BC409F
:1017000021435160D46899680EEA040401FA0CF18F
:101710000C43D460B9005C68022C18BF122C11D1A4
:10172000FC0802EB840401F01C05D4F820B009FA8F
:1017300005FA2BEA0A0BD3F810A00AFA05F545EAD8
:101740000B05256214680EEA04051C7904F00304F5
:1017500004FA0CF444EA050CC2F800C05C68E4002A
:10176000A5D54FF0000ECDF800E04FEA970CD8F861
:10177000004044F48044C8F8004001F00C01D8F85F
:1017800000E00EF4804ECDF800E009FA01F5009C6F
:10179000DFF8A0E05EF82C40AC43274DAA4208BF1A
:1017A0004FF0000E29D0254DAA4208BF4FF0010E80
:1017B00023D0234DAA4208BF4FF0020E1DD0214D69
:1017C000AA4208BF4FF0030E17D01F4DAA4208BF10
:1017D0004FF0040E11D01D4DAA4208BF4FF0050E68
:1017E0000BD01B4DAA4208BF4FF0060E05D0194D75
:1017F000AA427FF42EAF4FF0070E31E7BDE8F18F1C
:1018000002B909048161704742690A4218BF09049C
:101810008161704710490A6803461A421CBF0B6079
:10182000FFF7FEBE70470000003C01404438024014
:10183000002002400838014000000240000402403D
:1018400000080240000C0240001002400014024058
:1018500000180240001C0240143C01400A01010033
:1018600002D4274B5A547047264801F00F01014417
:1018700001F8042C704724490A6860F30A2240F2F8
:10188000FA5060F31F420A60704770B51E4C23681F
:10189000C3F302230124C3F10705052D2FBF0F2633
:1018A000C3F1070604FA06F6761E1D1D072D34BF88
:1018B0000023DB1E3140994004FA03F3BDE8704079
:1018C0005B1E1A401143C9E7010007D4012200F052
:1018D0001F010E4B8A40400943F820207047401EEC
:1018E000B0F1807F01D30120704709494860F022A0
:1018F0000848027000238B6007220A6000207047AE
:1019000000E400E018ED00E00CED00E000E100E094
:1019100010E000E023ED00E04018491C1CBFB1F1CD
:10192000010100F8012DF9D170470EE0026843680B
:10193000024408305FEAC37C44BF4B445B1E52F84C
:1019400004CB43F804CB091FF9D150F8041B00293C
:10195000ECD1704780B50B48016841F4007101601B
:10196000026842F480620260016841F480710160A3
:101970000320FFF780FF0F2001F062F8FFF7EEF879
:10198000002002BD003C0240002201F079B80000B6
:1019900038B5040001D1012032BD04F13805687862
:1019A00008B900F013F800F007F800F020F8FFE79E
:1019B000486100F010F832BD242068702168C868C2
:1019C00020F40050C860204600F07EB90021297044
:1019D0002046FFF792B92168C86840F40050C860FB
:1019E0006A60202169702020A8700020704721685B
:1019F000086920F49040086100222168486920F0BD
:101A00002A00704710B500F138035C78202C16D1FD
:101A100009B1140001D1012010BD1C78012C0ED099
:101A200001241C7001628284C28400215960212239
:101A30005A7019700168C86840F080002AE00220DE
:101A400010BD10B500F138039C78202C20D109B1CD
:101A5000140001D1012010BD1C78012C18D00124E4
:101A60001C7081628285C2850021596022229A7091
:101A700019700168CA6842F48072CA6002685169CC
:101A800041F0010151610168C86840F0200001E0A7
:101A9000022010BDC860002010BD416921F0400146
:101AA0004161606B704770B504462068026801466A
:101AB00012F00F0FCB68456903F0200002F02001FF
:101AC00007D1002918BF00285BD02046BDE8704030
:101AD000B0E0EE0702D413F4907F52D0D60705D5BC
:101AE000DB0503D5E66B46F00106E663560705D530
:101AF000EB0703D5E66B46F00206E663960705D5CD
:101B0000EB0703D5E66B46F00406E663120706D53D
:101B100008B9EA0703D5E36B43F00803E363E26B1C
:101B2000002A6FD000291EBF0028204600F082F84E
:101B300020684069E26B110701D440061BD520469E
:101B400000F061F8206841694A060FD5FFF7A5FF4C
:101B500060B10FF2D1010165606BFFF7DDF900287C
:101B600050D0606B016DBDE8704008472046BDE86D
:101B7000704000F09EBF204600F09BFF0020E06315
:101B800070BD11062DD518062BD594F839102129D2
:101B900038D1A068B0F5805F0DD1226A2168108825
:101BA000C0F30800486020690028206A0CBF811C2F
:101BB000411C216205E0206A421C226201782068F3
:101BC0004160E08C401EE08480B2D8B92168C868CA
:101BD00020F08000C8602168C86840F04000C860FC
:101BE00070BD50060ED559060CD52068C16821F08D
:101BF0004001C1602046202184F83910BDE87040C2
:101C0000FFF7CDBC70BD0268D16821F49071D1603E
:101C100002685169490849005161202280F83A2040
:101C200070470000806B0022C2850021C18400F053
:101C300040BF000010B590F83A10222942D18168C7
:101C4000B1F5805F2AD1826A0169134601BB04683D
:101C50006168C1F30801921C82621980C18D491E1E
:101C6000C18589B261BB0268D16821F02001D160D1
:101C70000268D16821F48071D16001684A69520814
:101C800052004A61202180F83A1000F071FA17E002
:101C90000168496801F0FF01521CDDE70169002974
:101CA000816A05D14A1C826203685A680A70D5E7C6
:101CB0004B1C83620268536803F07F030B70CDE70F
:101CC000002010BD022010BD70B504461926226800
:101CD0001169E06821F44051014311616FF063051F
:101CE000D3683A48A168034020690B436169034304
:101CF000E0690B430343D3605169A069344B21F47D
:101D00004071014351613348E169B1F5004F35D16C
:101D1000824218BF9A4215D100F05BFE46436068CC
:101D2000400000F059F805FB0015ED003235642144
:101D3000B5FBF1F14A0002F4F87202EB001201F077
:101D400007013EE000F03DFE464360684000B6FB00
:101D5000F0F06421B0FBF1F105FB0105ED00323537
:101D60006420B5FBF0F0420002F4F87202EB0112BD
:101D7000216800F007008018886070BD824218BF9B
:101D80009A4207D100F025FE46436068800000F0CB
:101D900023F809E000F015FE616846438900B6FBB0
:101DA000F1F16420B1FBF0F005FB00152D01323597
:101DB0006421B5FBF1F101F0F00202EB001201F039
:101DC0000F0120688918816070BD0000F369FFFF72
:101DD0000014014000100140B6FBF0F16422B1FB99
:101DE000F2F0704770B5614C0122102100F0A0F8AC
:101DF000642000F05FFE012200F09FF8002200F056
:101E000096F8642000F056FE012200F090F84FF49E
:101E10007A7000F04FFE00F08FF800F0ADF8544DEE
:101E2000514E4FF0FF33132206F118012846FEF7FA
:101E30008CFA00F0A1F8012200F07FF800F09CF885
:101E4000112000F078F800F097F800F069F800F041
:101E500093F8012200F071F800F08EF8452200217D
:101E6000112032707170B07000F066F800F082F8E6
:101E700000F056F800F07EF800F04BF800F07AF829
:101E800000F040F800F076F8012200F056F800F07B
:101E900073F81A2000F04FF800F06EF800F040F8E8
:101EA00000F06AF8012200F048F800F065F84522D9
:101EB0003270002110207170B07000F03DF800F019
:101EC00059F800F02DF800F055F800F022F800F075
:101ED00051F800F017F800F04DF8012200F02DF84D
:101EE00000F04AF8102000F026F800F045F800F065
:101EF00017F800F041F8012200F01FF8BDE870402B
:101F000019203BE04FF0FF330122B11C2846FEF7B9
:101F100075B94FF0FF330122711C2846FEF76EB9E8
:101F20004FF0FF33012231462846FEF767B90821FA
:101F30002046FFF765BC3070002240212046FFF7A5
:101F40005FBC80B5002240210848FFF759FC1420EF
:101F500000F014F80448BDE80050021D00F12C0107
:101F600013230348FEF753BCA814002000100240BE
:101F7000E0110020642001E01920FFE7002100E0CB
:101F8000491C8142FCD37047704B33F8101003EBAF
:101F90008003002205E06D4B33F8101003EB800343
:101FA00001221869FFF72CBC11B50C46684981B0B5
:101FB0000C7000F05CF82046FFF7E6FF00F057F8E1
:101FC000012201A900F04DF813BD78B5C1B0044657
:101FD0000D4616464FF4827100226846FFF79CFCBE
:101FE0005B490C7000F040F800F041F800F03CF85C
:101FF00002202A0C290A8DF800008DF801208DF8A6
:1020000002108DF803504FF48072314601A800F0A1
:1020100065FD2046FFF7B8FF00F029F84FF4827203
:1020200000F01EF842B070BD38B504460D4600F011
:102030001BF800F01CF800BF4AA0016800912B0CAF
:10204000290A8DF801308DF802108DF803502046D2
:10205000FFF79AFF00F00BF8042200F001F831BD01
:1020600069463C48FEF70FBB214606209CE70A2044
:10207000FFF784BF10B50446FFF7F6FFFFF7F7FF41
:102080002146BDE81040C7208EE700001CB500BF08
:1020900033A1304C0A6800920020FFF775FFFFF76C
:1020A000E6FF4FF47A73042269462046FEF7A6F84D
:1020B0004FF4206228492046FEF734FB2046FEF705
:1020C0002CFC0128FAD113BD10B50024E1B2062082
:1020D000FFF76AFFFFF7CBFFE1B29820FFF764FF3D
:1020E000FFF7C5FFE0B2FFF7C5FFFFF7C0FF641CB5
:1020F000E0B20828EADB10BD70B5184C267804EB76
:10210000860502466968B1F5000F24BF00206860AB
:1021100069683046FFF759FF6968686A01F58071A0
:1021200000F58070B0F5805F6960686206D30020BA
:102130006862090B09033046FFF776FF761C002022
:10214000301800F0F800361A267070BD000000202C
:10215000730F0020400C0020400000206414002079
:1021600003000000200000000022FFF7D5BB0000A4
:1021700038B5C74CC74A23780120A0706078135443
:10218000401CC5B2CD2DA8BF0020607001222146A1
:10219000C148FFF756FC0021E17031BD4278012AA9
:1021A0000AD0032A09D0052A09D0062A06D00F2A08
:1021B00006D0102A05D0704754E0A6E0F0E0DFE03A
:1021C000FDE02FE1F8B5B24C217901292BD1002097
:1021D00020716778B14DAF4E7A1C3146284600F029
:1021E00023FC00236370CD213046FFF7CDFBCD21CA
:1021F000AB48FFF7C9FB07F1FE01C9B2284600F062
:102200006DF9E9198A1E1178527842EA0122A5F87F
:10221000D020824204BF2878012804D139462846BC
:10222000BDE8F440BAE7F1BD99488178012908D1A9
:10223000C278511C652A03DB0021012281700271E2
:10224000C170704738B505460C4601224FF48061D5
:102250009448FFF7D5FA22462946BDE838408E4813
:10226000FFF7D0BB2DE9F8430746B878FC787D79B5
:1022700044EA0024387945EA0025642DC8BF642566
:1022800028B200F017F9864E3978317000217A783B
:102290007270B0700027F21C01E0D1547F1CFBB2B9
:1022A0008342FADB214600237F4A044606F10308F5
:1022B00006F1030917E0981003EB507047053F0E35
:1022C00020F00700A742A3EB000C0BDA5818105CB3
:1022D00040B119F807E0012000FA0CF040EA0E00C6
:1022E00008F807005B1CAB42E5DBE11CC9B23046D5
:1022F00000F0F4F8F21C31191055641D000A087141
:10230000E1B23046BDE8F4439CE72DE9F041837823
:10231000C2784479624D42EA0322037944EA0324F5
:1023200003782B70002146786E706000A8708C4690
:1023300066005E482F1D0FE0CBB29B1830F813806B
:10234000EB1C4FEA182E03F80CE007F80C800CF198
:102350000203491C5FFA83FCB445EDDBF01CC1B2FB
:10236000284600F0BBF8291D020A01F81420EB1CD6
:10237000761D03F81400F1B22846BDE8F04161E78C
:1023800010B58378C278447942EA0322037954EA8B
:10239000032318BF0123444CA354BDE8104051E768
:1023A00038B58478C3780579404A43EA04234479F0
:1023B00044EA052422F81340BDE8344042E7F8B56A
:1023C00001460A794D7945EA02250027364A17E089
:1023D000DCB20C444FF0010CE4790CFA00FC1CEA6E
:1023E0000404A44618BF4FF0010C401CC0B202F810
:1023F00006C010F0070F02D108B15B1C00207F1C43
:10240000FEB2AE42E4DB264C0622204600F00CFB76
:102410000621204600F062F8A0710821000AE07150
:10242000204632E0F8B504464FF480512048FFF7CB
:10243000EBF9A178E278657942EA0122217945EA4F
:1024400001250020002719490DE0231804EB000E98
:10245000DB799EF808C04CEA0323B61821F8163041
:10246000801CC0B27F1CFEB2AE42EEDB0C4D0622D9
:102470002146284600F0D8FA0621284600F02EF81A
:10248000A8710821000AE8712846BDE8F440D9E6A1
:102490006E0F0020740F0020381200209C0E0020C8
:1024A000441000200000024080120020141100207F
:1024B000000C024081B000218DF8001001B200290B
:1024C00008D408389DF8001002B2491C002A8DF883
:1024D0000010F3D59DF8000001B0704770B54FF6BD
:1024E000FF7500230AA40CE0C25C554008222E466A
:1024F00005F0010534F81550521E85EA5605F6D14F
:102500005B1C8B42F0D3280A40EA052080B270BDE4
:10251000000001A02DE9FC47040016D02078DFF868
:10252000C874C10713D5B86800F00C00042807D0A0
:10253000B86800F00C00082842D1786841023FD505
:102540003868810303D56068002800F03C8120785A
:10255000DFF8A494810719D5B86810F00C0F07D0E4
:10256000B86800F00C00082846D17868410243D4CE
:102570003868810703D5E068012840F02481396874
:10258000206921F0F80141EAC00139602178DFF8C3
:102590006C84080766D56069DFF86414002853D09E
:1025A00001220A60FEF702FC0546D8F80400810704
:1025B00058D4FEF7FBFB401B0228F6D9032005E1A7
:1025C0006168B970606858B1FEF7F0FB054639687C
:1025D0008803BCD4FEF7EAFB401B6528F7D3EDE780
:1025E000FEF7E4FB054639688803B0D5FEF7DEFB4D
:1025F000401B6528F7D3E1E7E068B0B10122C9F8D4
:102600000020FEF7D3FB05463968880705D4FEF79E
:10261000CDFB401B0228F7D9D0E73868216920F0AC
:10262000F80040EAC1003860B0E70022C9F8002095
:10263000FEF7BCFB054638688107A7D5FEF7B6FB59
:10264000401B0228F7D9B9E70860FEF7AFFB054643
:10265000D8F80400810705D5FEF7A8FB401B022827
:10266000F6D9ABE72078410751D5386C0025C10079
:102670000BD4002000900125396C41F08051396461
:10268000386C00F0805000900098DFF87863306874
:1026900040F4807030603168CA0510D4306840F46E
:1026A00080703060FEF782FB82463068C10506D438
:1026B000FEF77CFBA0EB0A000228F6D97EE7A168B2
:1026C00088F8001041F28936A06868B1FEF76EFB09
:1026D0008246D8F80010880714D4FEF767FBA0EBF9
:1026E0000A00B042F5D369E7FEF760FB8246D8F8EE
:1026F0000000810706D5FEF759FBA0EB0A00B042A7
:10270000F5D35BE71DB1386C20F080503864A069C8
:1027100000285AD0B96801F00C01082937D00228E6
:1027200029D100F055F805463868810105D5FEF736
:102730003DFB401B6528F7D340E7E269206A616AE8
:102740000243A06A400842EA8112401E42EA004267
:10275000E06A42EA00627A600121C9F86010FEF77F
:1027600025FB0446386881012FD4FEF71FFB001BB0
:102770006528F7D322E700F02BF80446386881017A
:1027800023D5FEF713FB001B6528F7D316E70128B6
:1027900019D07868E16900F480028A4202BF00F033
:1027A0003F02216A8A420ED1636AC0F388119942BE
:1027B00002BF00F44032A16A8A4202BF00F070609A
:1027C000E16A884201D0012000E00020BDE8F687E0
:1027D0000020C9F86000FEF7E9BA2DE9F0410400D5
:1027E0000F4652D0884E306800F00F00B84202D237
:1027F00000F071F849D121687B4D880712D549074F
:1028000003D5A86840F4E050A8602178080703D5F4
:10281000A96841F46041A960A968A06821F0F001AD
:102820000143A9602178C80727D56068012802D133
:1028300029688A0303E0022803D129688A0103D4A6
:1028400023E02B68990720D5AA68920840EA820005
:10285000A860FEF7ABFA8046A968606801F00C0139
:10286000B1EB800F09D0FEF7A1FAA0EB080041F20E
:1028700089318842F0D303202BE0306800F00F004C
:10288000874204D200F027F801D0012021E021780E
:10289000480705D5A968E06821F4E0510143A96023
:1028A00021780A0706D5A868216920F4604040EA2B
:1028B000C100A86000F05BF8AA685449C2F3031293
:1028C0008B5C4A49D84008604A48006800F0B8F874
:1028D0000020BDE8F0813770316801F00F01B94286
:1028E000704770B586B00E461446494DE8B9009061
:1028F000A96A41F00101A9620221A86A00F0010061
:1029000000904FF48070009A029101900021032200
:1029100003910591049201A93E48FEF78FFE2968B4
:1029200021F0EC610E4326431EE0002000900222BD
:10293000A96A41F00401A9624FF40071A86A00F08D
:1029400004000090009B34480191029203210491FD
:1029500000220392059201A9FEF770FE286820F07C
:102960007840064346EAC4062E6006B070BD30B516
:102970002A4C606800F00C00042802D0082802D01D
:102980001DE0274830BD226821680023480202F07C
:102990003F0204D525682248C5F3881103E0216869
:1029A0001348C1F38811A0FB010100F09DF82168D4
:1029B000C1F30141491C4900B0FBF1F030BD0C48A6
:1029C00030BD0A48124B00681A681649C2F38222C9
:1029D00006E006480E4B00681A681249C2F34232FC
:1029E000895CC84070470000003802403C0000206D
:1029F0000024F400380000200000474270380240F4
:102A0000800E474200700040003C0240A02C0008AD
:102A1000083802400000024000080240043802402A
:102A200000127A00EC2D00084AB1000011F8013BB9
:102A3000521E00F8013B1CBF11F8013BF8E770473C
:102A400038B50D4D0D4A297804464FF47A73106855
:102A5000B3FBF1F1B0FBF1F0FEF741FF50B9102CE0
:102A600008D2002221464FF0FF30FEF70EFFAC6087
:102A7000002032BD012032BD300000203C0000208B
:102A800000B500BF130096469446103928BFA0E851
:102A90000C50FAD85FEA417C28BF0CC048BF40F810
:102AA000042BC90728BF20F8022B48BF00F8012BD0
:102AB00000BD704731B5FEF779F9009D15F1010FA2
:102AC000044602D0044908784519FEF76FF9001B47
:102AD000A842FAD331BD00BF3000002010B5044633
:102AE000FFF7A2FF204610BDD3BBD9B1B2F5803F9E
:102AF0005BD2022A1ED98C46B1FBF2F102FB11C354
:102B00001B0443EA1043B3FBF2FC02FB1C3380B20C
:102B100040EA0343B3FBF2F002FB103240EA0C4000
:102B200000237047022A05D98446B0FBF2F002FB6D
:102B300010C270474AB105D100F0010249085FEAAE
:102B40003000704700220023704700F051B80B009E
:102B50000200002100207047F7D3002200237047B5
:102B6000904271EB030CF2D370B5B1FA81F4B3FA71
:102B700083F52C1BA340C4F1200532FA05F633433C
:102B8000A2405FF00046E64002E05B085FEA3202E6
:102B9000841A71EB030524BF204629467641F4D3FD
:102BA00002000B003000002170BD70B5B1FA81F455
:102BB000B2FA82F5C4F120046419B4F12006DAD324
:102BC000B2405FF00044F440002502E052085FEAA2
:102BD0003303C61A71EB020E24BF304671466441BE
:102BE0006D41F3D302000B002000290070BD0000EE
:102BF00070470000FEE7FEE7FEE7FEE7FEE77047EE
:102C00007047704780B5FFF70FFBBDE8014000F04B
:102C10001DB80420FEF7FEBD0748FEF78FB9074830
:102C2000FEF78CB90648FEF73EBF0648FEF786B9A8
:102C30000548FEF783B90000A41300200414002007
:102C400038120020E412002044130020024A516888
:102C500010784118516070473000002010B50C49C1
:102C60000C4C086840F00100086000238B600A6883
:102C7000094802400A604C6000220B68074823F4B0
:102C800080230B60CA604FF00061016010BD00003E
:102C90000038024010300024FFFFF6FE08ED00E08F
:102CA00000000000000000000102030406070809FC
:102CB0008000400020001000080080000200010099
:102CC000000C0240000C0240000C0240000C0240CC
:102CD000000C024000040240000C0240000C0240C4
:102CE0000100000000000000100000000024F400BB
:102CF00030B4002412E050F8043BDA0744BF4B44E0
:102D00005B1E091F042943F8044BFAD21A468D07AB
:102D100044BF1C80921CCB0748BF147050F8041BA2
:102D20000029E8D130BC704710B5034A7A44083214
:102D3000024C7C44A41D03E01C0000003C00000089
:102D400004E01168101D114488470246A242F8D1E0
:102D500010BD00009DFFFFFFA814000040000020F0
:102D600000000000C7EBFFFF4000000044FFFFFF32
:102D7000000000200000000000F00DF8002801D045
:102D8000FFF7D2FFAFF300800020AFF30080FEF723
:102D9000D5F900F002F80120704700F001B80000FA
:102DA0000746384600F002F8FBE7000080B5AFF3B5
:102DB0000080024A11001820ABBEFBE7260002008B
:102DC0000548014603B4684680F30988AFF30080E4
:102DD000AFF30080FFF7D0FFA5EDF5FE0148804777
:102DE000014800475D2C0008C12D000800000000CC
:102DF00001020304FFF7FEBFFFF7FEBFFFF7FEBFB0
:102E0000FFF7FEBFFFF7FEBFFFF7FEBFFFF7FEBFF6
:102E1000FFF7FEBFFFF7FEBFFFF7FEBFFFF7FEBFE6
:102E2000FFF7FEBFFFF7FEBFFFF7FEBFFFF7FEBFD6
:102E3000FFF7FEBFFFF7FEBFFFF7FEBFFFF7FEBFC6
:102E4000FFF7FEBFFFF7FEBFFFF7FEBFFFF7FEBFB6
:102E5000FFF7FEBFFFF7FEBFFFF7FEBFFFF7FEBFA6
:102E6000FFF7FEBFFFF7FEBFFFF7FEBFFFF7FEBF96
:102E7000FFF7FEBFFFF7FEBFFFF7FEBFFFF7FEBF86
:102E8000FFF7FEBFFFF7FEBFFFF7FEBFFFF7FEBF76
:102E9000FFF7FEBFFFF7FEBFFFF7FEBFFFF7FEBF66
:102EA000FFF7FEBFFFF7FEBFFFF7FEBFFFF7FEBF56
:102EB000FFF7FEBFFFF7FEBFFFF7FEBFFFF7FEBF46
:102EC000FFF7FEBFFFF7FEBFFFF7FEBFFFF7FEBF36
:102ED000FFF7FEBFFFF7FEBFFFF7FEBFFFF7FEBF26
:102EE000FFF7FEBFFFF7FEBFFFF7FEBFFFF7FEBF16
:102EF000FFF7FEBFFFF7FEBFFFF7FEBFFFF7FEBF06
:102F0000FFF7FEBFFFF7FEBFFFF7FEBFFFF7FEBFF5
:0C2F1000FFF7FEBFFFF7FEBFFFF7FEBF9C
:0400000508002DC101
:00000001FF
